{
	"contracts/YoppenTokenModified.sol": {
		"YoppenTokenModified": {
			"abi": [
				{
					"inputs": [
						{
							"internalType": "address",
							"name": "initialOwner",
							"type": "address"
						},
						{
							"internalType": "address",
							"name": "_treasuryAddress",
							"type": "address"
						}
					],
					"stateMutability": "nonpayable",
					"type": "constructor"
				},
				{
					"inputs": [
						{
							"internalType": "address",
							"name": "spender",
							"type": "address"
						},
						{
							"internalType": "uint256",
							"name": "allowance",
							"type": "uint256"
						},
						{
							"internalType": "uint256",
							"name": "needed",
							"type": "uint256"
						}
					],
					"name": "ERC20InsufficientAllowance",
					"type": "error"
				},
				{
					"inputs": [
						{
							"internalType": "address",
							"name": "sender",
							"type": "address"
						},
						{
							"internalType": "uint256",
							"name": "balance",
							"type": "uint256"
						},
						{
							"internalType": "uint256",
							"name": "needed",
							"type": "uint256"
						}
					],
					"name": "ERC20InsufficientBalance",
					"type": "error"
				},
				{
					"inputs": [
						{
							"internalType": "address",
							"name": "approver",
							"type": "address"
						}
					],
					"name": "ERC20InvalidApprover",
					"type": "error"
				},
				{
					"inputs": [
						{
							"internalType": "address",
							"name": "receiver",
							"type": "address"
						}
					],
					"name": "ERC20InvalidReceiver",
					"type": "error"
				},
				{
					"inputs": [
						{
							"internalType": "address",
							"name": "sender",
							"type": "address"
						}
					],
					"name": "ERC20InvalidSender",
					"type": "error"
				},
				{
					"inputs": [
						{
							"internalType": "address",
							"name": "spender",
							"type": "address"
						}
					],
					"name": "ERC20InvalidSpender",
					"type": "error"
				},
				{
					"inputs": [
						{
							"internalType": "address",
							"name": "owner",
							"type": "address"
						}
					],
					"name": "OwnableInvalidOwner",
					"type": "error"
				},
				{
					"inputs": [
						{
							"internalType": "address",
							"name": "account",
							"type": "address"
						}
					],
					"name": "OwnableUnauthorizedAccount",
					"type": "error"
				},
				{
					"anonymous": false,
					"inputs": [
						{
							"indexed": true,
							"internalType": "address",
							"name": "owner",
							"type": "address"
						},
						{
							"indexed": true,
							"internalType": "address",
							"name": "spender",
							"type": "address"
						},
						{
							"indexed": false,
							"internalType": "uint256",
							"name": "value",
							"type": "uint256"
						}
					],
					"name": "Approval",
					"type": "event"
				},
				{
					"anonymous": false,
					"inputs": [
						{
							"indexed": true,
							"internalType": "address",
							"name": "previousOwner",
							"type": "address"
						},
						{
							"indexed": true,
							"internalType": "address",
							"name": "newOwner",
							"type": "address"
						}
					],
					"name": "OwnershipTransferred",
					"type": "event"
				},
				{
					"anonymous": false,
					"inputs": [
						{
							"indexed": true,
							"internalType": "address",
							"name": "from",
							"type": "address"
						},
						{
							"indexed": true,
							"internalType": "address",
							"name": "to",
							"type": "address"
						},
						{
							"indexed": false,
							"internalType": "uint256",
							"name": "value",
							"type": "uint256"
						}
					],
					"name": "Transfer",
					"type": "event"
				},
				{
					"inputs": [
						{
							"internalType": "address",
							"name": "owner",
							"type": "address"
						},
						{
							"internalType": "address",
							"name": "spender",
							"type": "address"
						}
					],
					"name": "allowance",
					"outputs": [
						{
							"internalType": "uint256",
							"name": "",
							"type": "uint256"
						}
					],
					"stateMutability": "view",
					"type": "function"
				},
				{
					"inputs": [
						{
							"internalType": "address",
							"name": "spender",
							"type": "address"
						},
						{
							"internalType": "uint256",
							"name": "value",
							"type": "uint256"
						}
					],
					"name": "approve",
					"outputs": [
						{
							"internalType": "bool",
							"name": "",
							"type": "bool"
						}
					],
					"stateMutability": "nonpayable",
					"type": "function"
				},
				{
					"inputs": [
						{
							"internalType": "address",
							"name": "account",
							"type": "address"
						}
					],
					"name": "balanceOf",
					"outputs": [
						{
							"internalType": "uint256",
							"name": "",
							"type": "uint256"
						}
					],
					"stateMutability": "view",
					"type": "function"
				},
				{
					"inputs": [],
					"name": "commissionRate",
					"outputs": [
						{
							"internalType": "uint256",
							"name": "",
							"type": "uint256"
						}
					],
					"stateMutability": "view",
					"type": "function"
				},
				{
					"inputs": [],
					"name": "decimals",
					"outputs": [
						{
							"internalType": "uint8",
							"name": "",
							"type": "uint8"
						}
					],
					"stateMutability": "view",
					"type": "function"
				},
				{
					"inputs": [],
					"name": "name",
					"outputs": [
						{
							"internalType": "string",
							"name": "",
							"type": "string"
						}
					],
					"stateMutability": "view",
					"type": "function"
				},
				{
					"inputs": [],
					"name": "owner",
					"outputs": [
						{
							"internalType": "address",
							"name": "",
							"type": "address"
						}
					],
					"stateMutability": "view",
					"type": "function"
				},
				{
					"inputs": [],
					"name": "renounceOwnership",
					"outputs": [],
					"stateMutability": "nonpayable",
					"type": "function"
				},
				{
					"inputs": [],
					"name": "symbol",
					"outputs": [
						{
							"internalType": "string",
							"name": "",
							"type": "string"
						}
					],
					"stateMutability": "view",
					"type": "function"
				},
				{
					"inputs": [],
					"name": "totalSupply",
					"outputs": [
						{
							"internalType": "uint256",
							"name": "",
							"type": "uint256"
						}
					],
					"stateMutability": "view",
					"type": "function"
				},
				{
					"inputs": [
						{
							"internalType": "address",
							"name": "recipient",
							"type": "address"
						},
						{
							"internalType": "uint256",
							"name": "amount",
							"type": "uint256"
						}
					],
					"name": "transfer",
					"outputs": [
						{
							"internalType": "bool",
							"name": "",
							"type": "bool"
						}
					],
					"stateMutability": "nonpayable",
					"type": "function"
				},
				{
					"inputs": [
						{
							"internalType": "address",
							"name": "from",
							"type": "address"
						},
						{
							"internalType": "address",
							"name": "to",
							"type": "address"
						},
						{
							"internalType": "uint256",
							"name": "value",
							"type": "uint256"
						}
					],
					"name": "transferFrom",
					"outputs": [
						{
							"internalType": "bool",
							"name": "",
							"type": "bool"
						}
					],
					"stateMutability": "nonpayable",
					"type": "function"
				},
				{
					"inputs": [
						{
							"internalType": "address",
							"name": "newOwner",
							"type": "address"
						}
					],
					"name": "transferOwnership",
					"outputs": [],
					"stateMutability": "nonpayable",
					"type": "function"
				},
				{
					"inputs": [],
					"name": "treasuryAddress",
					"outputs": [
						{
							"internalType": "address",
							"name": "",
							"type": "address"
						}
					],
					"stateMutability": "view",
					"type": "function"
				}
			],
			"devdoc": {
				"errors": {
					"ERC20InsufficientAllowance(address,uint256,uint256)": [
						{
							"details": "Indicates a failure with the `spender`’s `allowance`. Used in transfers.",
							"params": {
								"allowance": "Amount of tokens a `spender` is allowed to operate with.",
								"needed": "Minimum amount required to perform a transfer.",
								"spender": "Address that may be allowed to operate on tokens without being their owner."
							}
						}
					],
					"ERC20InsufficientBalance(address,uint256,uint256)": [
						{
							"details": "Indicates an error related to the current `balance` of a `sender`. Used in transfers.",
							"params": {
								"balance": "Current balance for the interacting account.",
								"needed": "Minimum amount required to perform a transfer.",
								"sender": "Address whose tokens are being transferred."
							}
						}
					],
					"ERC20InvalidApprover(address)": [
						{
							"details": "Indicates a failure with the `approver` of a token to be approved. Used in approvals.",
							"params": {
								"approver": "Address initiating an approval operation."
							}
						}
					],
					"ERC20InvalidReceiver(address)": [
						{
							"details": "Indicates a failure with the token `receiver`. Used in transfers.",
							"params": {
								"receiver": "Address to which tokens are being transferred."
							}
						}
					],
					"ERC20InvalidSender(address)": [
						{
							"details": "Indicates a failure with the token `sender`. Used in transfers.",
							"params": {
								"sender": "Address whose tokens are being transferred."
							}
						}
					],
					"ERC20InvalidSpender(address)": [
						{
							"details": "Indicates a failure with the `spender` to be approved. Used in approvals.",
							"params": {
								"spender": "Address that may be allowed to operate on tokens without being their owner."
							}
						}
					],
					"OwnableInvalidOwner(address)": [
						{
							"details": "The owner is not a valid owner account. (eg. `address(0)`)"
						}
					],
					"OwnableUnauthorizedAccount(address)": [
						{
							"details": "The caller account is not authorized to perform an operation."
						}
					]
				},
				"events": {
					"Approval(address,address,uint256)": {
						"details": "Emitted when the allowance of a `spender` for an `owner` is set by a call to {approve}. `value` is the new allowance."
					},
					"Transfer(address,address,uint256)": {
						"details": "Emitted when `value` tokens are moved from one account (`from`) to another (`to`). Note that `value` may be zero."
					}
				},
				"kind": "dev",
				"methods": {
					"allowance(address,address)": {
						"details": "See {IERC20-allowance}."
					},
					"approve(address,uint256)": {
						"details": "See {IERC20-approve}. NOTE: If `value` is the maximum `uint256`, the allowance is not updated on `transferFrom`. This is semantically equivalent to an infinite approval. Requirements: - `spender` cannot be the zero address."
					},
					"balanceOf(address)": {
						"details": "See {IERC20-balanceOf}."
					},
					"decimals()": {
						"details": "Returns the number of decimals used to get its user representation. For example, if `decimals` equals `2`, a balance of `505` tokens should be displayed to a user as `5.05` (`505 / 10 ** 2`). Tokens usually opt for a value of 18, imitating the relationship between Ether and Wei. This is the default value returned by this function, unless it's overridden. NOTE: This information is only used for _display_ purposes: it in no way affects any of the arithmetic of the contract, including {IERC20-balanceOf} and {IERC20-transfer}."
					},
					"name()": {
						"details": "Returns the name of the token."
					},
					"owner()": {
						"details": "Returns the address of the current owner."
					},
					"renounceOwnership()": {
						"details": "Leaves the contract without owner. It will not be possible to call `onlyOwner` functions. Can only be called by the current owner. NOTE: Renouncing ownership will leave the contract without an owner, thereby disabling any functionality that is only available to the owner."
					},
					"symbol()": {
						"details": "Returns the symbol of the token, usually a shorter version of the name."
					},
					"totalSupply()": {
						"details": "See {IERC20-totalSupply}."
					},
					"transferFrom(address,address,uint256)": {
						"details": "See {IERC20-transferFrom}. Emits an {Approval} event indicating the updated allowance. This is not required by the EIP. See the note at the beginning of {ERC20}. NOTE: Does not update the allowance if the current allowance is the maximum `uint256`. Requirements: - `from` and `to` cannot be the zero address. - `from` must have a balance of at least `value`. - the caller must have allowance for ``from``'s tokens of at least `value`."
					},
					"transferOwnership(address)": {
						"details": "Transfers ownership of the contract to a new account (`newOwner`). Can only be called by the current owner."
					}
				},
				"version": 1
			},
			"evm": {
				"assembly": "    /* \"contracts/YoppenTokenModified.sol\":174:1065  contract YoppenTokenModified is ERC20, Ownable {... */\n  mstore(0x40, 0x80)\n    /* \"contracts/YoppenTokenModified.sol\":260:263  100 */\n  0x64\n    /* \"contracts/YoppenTokenModified.sol\":228:263  uint256 public commissionRate = 100 */\n  0x06\n  sstore\n    /* \"contracts/YoppenTokenModified.sol\":368:586  constructor(address initialOwner, address _treasuryAddress) ERC20(\"Yoppen\", \"YPN\") Ownable(initialOwner) {... */\n  callvalue\n  dup1\n  iszero\n  tag_1\n  jumpi\n  0x00\n  dup1\n  revert\ntag_1:\n  pop\n  mload(0x40)\n  sub(codesize, bytecodeSize)\n  dup1\n  bytecodeSize\n  dup4\n  codecopy\n  dup2\n  dup2\n  add\n  0x40\n  mstore\n  dup2\n  add\n  swap1\n  tag_2\n  swap2\n  swap1\n  tag_3\n  jump\t// in\ntag_2:\n    /* \"contracts/YoppenTokenModified.sol\":459:471  initialOwner */\n  dup2\n    /* \"@openzeppelin/contracts/token/ERC20/ERC20.sol\":1896:2009  constructor(string memory name_, string memory symbol_) {... */\n  mload(0x40)\n  dup1\n  0x40\n  add\n  0x40\n  mstore\n  dup1\n  0x06\n  dup2\n  mstore\n  0x20\n  add\n  0x596f7070656e0000000000000000000000000000000000000000000000000000\n  dup2\n  mstore\n  pop\n  mload(0x40)\n  dup1\n  0x40\n  add\n  0x40\n  mstore\n  dup1\n  0x03\n  dup2\n  mstore\n  0x20\n  add\n  0x59504e0000000000000000000000000000000000000000000000000000000000\n  dup2\n  mstore\n  pop\n    /* \"@openzeppelin/contracts/token/ERC20/ERC20.sol\":1970:1975  name_ */\n  dup2\n    /* \"@openzeppelin/contracts/token/ERC20/ERC20.sol\":1962:1967  _name */\n  0x03\n    /* \"@openzeppelin/contracts/token/ERC20/ERC20.sol\":1962:1975  _name = name_ */\n  swap1\n  dup2\n  tag_8\n  swap2\n  swap1\n  tag_9\n  jump\t// in\ntag_8:\n  pop\n    /* \"@openzeppelin/contracts/token/ERC20/ERC20.sol\":1995:2002  symbol_ */\n  dup1\n    /* \"@openzeppelin/contracts/token/ERC20/ERC20.sol\":1985:1992  _symbol */\n  0x04\n    /* \"@openzeppelin/contracts/token/ERC20/ERC20.sol\":1985:2002  _symbol = symbol_ */\n  swap1\n  dup2\n  tag_10\n  swap2\n  swap1\n  tag_9\n  jump\t// in\ntag_10:\n  pop\n    /* \"@openzeppelin/contracts/token/ERC20/ERC20.sol\":1896:2009  constructor(string memory name_, string memory symbol_) {... */\n  pop\n  pop\n    /* \"@openzeppelin/contracts/access/Ownable.sol\":1297:1298  0 */\n  0x00\n    /* \"@openzeppelin/contracts/access/Ownable.sol\":1273:1299  initialOwner == address(0) */\n  0xffffffffffffffffffffffffffffffffffffffff\n  and\n    /* \"@openzeppelin/contracts/access/Ownable.sol\":1273:1285  initialOwner */\n  dup2\n    /* \"@openzeppelin/contracts/access/Ownable.sol\":1273:1299  initialOwner == address(0) */\n  0xffffffffffffffffffffffffffffffffffffffff\n  and\n  sub\n    /* \"@openzeppelin/contracts/access/Ownable.sol\":1269:1364  if (initialOwner == address(0)) {... */\n  tag_12\n  jumpi\n    /* \"@openzeppelin/contracts/access/Ownable.sol\":1350:1351  0 */\n  0x00\n    /* \"@openzeppelin/contracts/access/Ownable.sol\":1322:1353  OwnableInvalidOwner(address(0)) */\n  mload(0x40)\n  0x1e4fbdf700000000000000000000000000000000000000000000000000000000\n  dup2\n  mstore\n  0x04\n  add\n  tag_13\n  swap2\n  swap1\n  tag_14\n  jump\t// in\ntag_13:\n  mload(0x40)\n  dup1\n  swap2\n  sub\n  swap1\n  revert\n    /* \"@openzeppelin/contracts/access/Ownable.sol\":1269:1364  if (initialOwner == address(0)) {... */\ntag_12:\n    /* \"@openzeppelin/contracts/access/Ownable.sol\":1373:1405  _transferOwnership(initialOwner) */\n  tag_15\n    /* \"@openzeppelin/contracts/access/Ownable.sol\":1392:1404  initialOwner */\n  dup2\n    /* \"@openzeppelin/contracts/access/Ownable.sol\":1373:1391  _transferOwnership */\n  shl(0x20, tag_16)\n    /* \"@openzeppelin/contracts/access/Ownable.sol\":1373:1405  _transferOwnership(initialOwner) */\n  0x20\n  shr\n  jump\t// in\ntag_15:\n    /* \"@openzeppelin/contracts/access/Ownable.sol\":1225:1412  constructor(address initialOwner) {... */\n  pop\n    /* \"contracts/YoppenTokenModified.sol\":484:533  _mint(initialOwner, 100000000 * 10 ** decimals()) */\n  tag_18\n    /* \"contracts/YoppenTokenModified.sol\":490:502  initialOwner */\n  dup3\n    /* \"contracts/YoppenTokenModified.sol\":522:532  decimals() */\n  tag_19\n    /* \"contracts/YoppenTokenModified.sol\":522:530  decimals */\n  shl(0x20, tag_20)\n    /* \"contracts/YoppenTokenModified.sol\":522:532  decimals() */\n  0x20\n  shr\n  jump\t// in\ntag_19:\n    /* \"contracts/YoppenTokenModified.sol\":516:518  10 */\n  0x0a\n    /* \"contracts/YoppenTokenModified.sol\":516:532  10 ** decimals() */\n  tag_21\n  swap2\n  swap1\n  tag_22\n  jump\t// in\ntag_21:\n    /* \"contracts/YoppenTokenModified.sol\":504:513  100000000 */\n  0x05f5e100\n    /* \"contracts/YoppenTokenModified.sol\":504:532  100000000 * 10 ** decimals() */\n  tag_23\n  swap2\n  swap1\n  tag_24\n  jump\t// in\ntag_23:\n    /* \"contracts/YoppenTokenModified.sol\":484:489  _mint */\n  shl(0x20, tag_25)\n    /* \"contracts/YoppenTokenModified.sol\":484:533  _mint(initialOwner, 100000000 * 10 ** decimals()) */\n  0x20\n  shr\n  jump\t// in\ntag_18:\n    /* \"contracts/YoppenTokenModified.sol\":562:578  _treasuryAddress */\n  dup1\n    /* \"contracts/YoppenTokenModified.sol\":544:559  treasuryAddress */\n  0x07\n  0x00\n    /* \"contracts/YoppenTokenModified.sol\":544:578  treasuryAddress = _treasuryAddress */\n  0x0100\n  exp\n  dup2\n  sload\n  dup2\n  0xffffffffffffffffffffffffffffffffffffffff\n  mul\n  not\n  and\n  swap1\n  dup4\n  0xffffffffffffffffffffffffffffffffffffffff\n  and\n  mul\n  or\n  swap1\n  sstore\n  pop\n    /* \"contracts/YoppenTokenModified.sol\":368:586  constructor(address initialOwner, address _treasuryAddress) ERC20(\"Yoppen\", \"YPN\") Ownable(initialOwner) {... */\n  pop\n  pop\n    /* \"contracts/YoppenTokenModified.sol\":174:1065  contract YoppenTokenModified is ERC20, Ownable {... */\n  jump(tag_26)\n    /* \"@openzeppelin/contracts/access/Ownable.sol\":2912:3099  function _transferOwnership(address newOwner) internal virtual {... */\ntag_16:\n    /* \"@openzeppelin/contracts/access/Ownable.sol\":2985:3001  address oldOwner */\n  0x00\n    /* \"@openzeppelin/contracts/access/Ownable.sol\":3004:3010  _owner */\n  0x05\n  0x00\n  swap1\n  sload\n  swap1\n  0x0100\n  exp\n  swap1\n  div\n  0xffffffffffffffffffffffffffffffffffffffff\n  and\n    /* \"@openzeppelin/contracts/access/Ownable.sol\":2985:3010  address oldOwner = _owner */\n  swap1\n  pop\n    /* \"@openzeppelin/contracts/access/Ownable.sol\":3029:3037  newOwner */\n  dup2\n    /* \"@openzeppelin/contracts/access/Ownable.sol\":3020:3026  _owner */\n  0x05\n  0x00\n    /* \"@openzeppelin/contracts/access/Ownable.sol\":3020:3037  _owner = newOwner */\n  0x0100\n  exp\n  dup2\n  sload\n  dup2\n  0xffffffffffffffffffffffffffffffffffffffff\n  mul\n  not\n  and\n  swap1\n  dup4\n  0xffffffffffffffffffffffffffffffffffffffff\n  and\n  mul\n  or\n  swap1\n  sstore\n  pop\n    /* \"@openzeppelin/contracts/access/Ownable.sol\":3083:3091  newOwner */\n  dup2\n    /* \"@openzeppelin/contracts/access/Ownable.sol\":3052:3092  OwnershipTransferred(oldOwner, newOwner) */\n  0xffffffffffffffffffffffffffffffffffffffff\n  and\n    /* \"@openzeppelin/contracts/access/Ownable.sol\":3073:3081  oldOwner */\n  dup2\n    /* \"@openzeppelin/contracts/access/Ownable.sol\":3052:3092  OwnershipTransferred(oldOwner, newOwner) */\n  0xffffffffffffffffffffffffffffffffffffffff\n  and\n  0x8be0079c531659141344cd1fd0a4f28419497f9722a3daafe3b4186f6b6457e0\n  mload(0x40)\n  mload(0x40)\n  dup1\n  swap2\n  sub\n  swap1\n  log3\n    /* \"@openzeppelin/contracts/access/Ownable.sol\":2975:3099  {... */\n  pop\n    /* \"@openzeppelin/contracts/access/Ownable.sol\":2912:3099  function _transferOwnership(address newOwner) internal virtual {... */\n  pop\n  jump\t// out\n    /* \"@openzeppelin/contracts/token/ERC20/ERC20.sol\":3002:3084  function decimals() public view virtual returns (uint8) {... */\ntag_20:\n    /* \"@openzeppelin/contracts/token/ERC20/ERC20.sol\":3051:3056  uint8 */\n  0x00\n    /* \"@openzeppelin/contracts/token/ERC20/ERC20.sol\":3075:3077  18 */\n  0x12\n    /* \"@openzeppelin/contracts/token/ERC20/ERC20.sol\":3068:3077  return 18 */\n  swap1\n  pop\n    /* \"@openzeppelin/contracts/token/ERC20/ERC20.sol\":3002:3084  function decimals() public view virtual returns (uint8) {... */\n  swap1\n  jump\t// out\n    /* \"@openzeppelin/contracts/token/ERC20/ERC20.sol\":7721:7929  function _mint(address account, uint256 value) internal {... */\ntag_25:\n    /* \"@openzeppelin/contracts/token/ERC20/ERC20.sol\":7810:7811  0 */\n  0x00\n    /* \"@openzeppelin/contracts/token/ERC20/ERC20.sol\":7791:7812  account == address(0) */\n  0xffffffffffffffffffffffffffffffffffffffff\n  and\n    /* \"@openzeppelin/contracts/token/ERC20/ERC20.sol\":7791:7798  account */\n  dup3\n    /* \"@openzeppelin/contracts/token/ERC20/ERC20.sol\":7791:7812  account == address(0) */\n  0xffffffffffffffffffffffffffffffffffffffff\n  and\n  sub\n    /* \"@openzeppelin/contracts/token/ERC20/ERC20.sol\":7787:7878  if (account == address(0)) {... */\n  tag_30\n  jumpi\n    /* \"@openzeppelin/contracts/token/ERC20/ERC20.sol\":7864:7865  0 */\n  0x00\n    /* \"@openzeppelin/contracts/token/ERC20/ERC20.sol\":7835:7867  ERC20InvalidReceiver(address(0)) */\n  mload(0x40)\n  0xec442f0500000000000000000000000000000000000000000000000000000000\n  dup2\n  mstore\n  0x04\n  add\n  tag_31\n  swap2\n  swap1\n  tag_14\n  jump\t// in\ntag_31:\n  mload(0x40)\n  dup1\n  swap2\n  sub\n  swap1\n  revert\n    /* \"@openzeppelin/contracts/token/ERC20/ERC20.sol\":7787:7878  if (account == address(0)) {... */\ntag_30:\n    /* \"@openzeppelin/contracts/token/ERC20/ERC20.sol\":7887:7922  _update(address(0), account, value) */\n  tag_32\n    /* \"@openzeppelin/contracts/token/ERC20/ERC20.sol\":7903:7904  0 */\n  0x00\n    /* \"@openzeppelin/contracts/token/ERC20/ERC20.sol\":7907:7914  account */\n  dup4\n    /* \"@openzeppelin/contracts/token/ERC20/ERC20.sol\":7916:7921  value */\n  dup4\n    /* \"@openzeppelin/contracts/token/ERC20/ERC20.sol\":7887:7894  _update */\n  shl(0x20, tag_33)\n    /* \"@openzeppelin/contracts/token/ERC20/ERC20.sol\":7887:7922  _update(address(0), account, value) */\n  0x20\n  shr\n  jump\t// in\ntag_32:\n    /* \"@openzeppelin/contracts/token/ERC20/ERC20.sol\":7721:7929  function _mint(address account, uint256 value) internal {... */\n  pop\n  pop\n  jump\t// out\n    /* \"@openzeppelin/contracts/token/ERC20/ERC20.sol\":6271:7378  function _update(address from, address to, uint256 value) internal virtual {... */\ntag_33:\n    /* \"@openzeppelin/contracts/token/ERC20/ERC20.sol\":6376:6377  0 */\n  0x00\n    /* \"@openzeppelin/contracts/token/ERC20/ERC20.sol\":6360:6378  from == address(0) */\n  0xffffffffffffffffffffffffffffffffffffffff\n  and\n    /* \"@openzeppelin/contracts/token/ERC20/ERC20.sol\":6360:6364  from */\n  dup4\n    /* \"@openzeppelin/contracts/token/ERC20/ERC20.sol\":6360:6378  from == address(0) */\n  0xffffffffffffffffffffffffffffffffffffffff\n  and\n  sub\n    /* \"@openzeppelin/contracts/token/ERC20/ERC20.sol\":6356:6896  if (from == address(0)) {... */\n  tag_35\n  jumpi\n    /* \"@openzeppelin/contracts/token/ERC20/ERC20.sol\":6512:6517  value */\n  dup1\n    /* \"@openzeppelin/contracts/token/ERC20/ERC20.sol\":6496:6508  _totalSupply */\n  0x02\n  0x00\n    /* \"@openzeppelin/contracts/token/ERC20/ERC20.sol\":6496:6517  _totalSupply += value */\n  dup3\n  dup3\n  sload\n  tag_36\n  swap2\n  swap1\n  tag_37\n  jump\t// in\ntag_36:\n  swap3\n  pop\n  pop\n  dup2\n  swap1\n  sstore\n  pop\n    /* \"@openzeppelin/contracts/token/ERC20/ERC20.sol\":6356:6896  if (from == address(0)) {... */\n  jump(tag_38)\ntag_35:\n    /* \"@openzeppelin/contracts/token/ERC20/ERC20.sol\":6548:6567  uint256 fromBalance */\n  0x00\n    /* \"@openzeppelin/contracts/token/ERC20/ERC20.sol\":6570:6579  _balances */\n  dup1\n    /* \"@openzeppelin/contracts/token/ERC20/ERC20.sol\":6570:6585  _balances[from] */\n  0x00\n    /* \"@openzeppelin/contracts/token/ERC20/ERC20.sol\":6580:6584  from */\n  dup6\n    /* \"@openzeppelin/contracts/token/ERC20/ERC20.sol\":6570:6585  _balances[from] */\n  0xffffffffffffffffffffffffffffffffffffffff\n  and\n  0xffffffffffffffffffffffffffffffffffffffff\n  and\n  dup2\n  mstore\n  0x20\n  add\n  swap1\n  dup2\n  mstore\n  0x20\n  add\n  0x00\n  keccak256\n  sload\n    /* \"@openzeppelin/contracts/token/ERC20/ERC20.sol\":6548:6585  uint256 fromBalance = _balances[from] */\n  swap1\n  pop\n    /* \"@openzeppelin/contracts/token/ERC20/ERC20.sol\":6617:6622  value */\n  dup2\n    /* \"@openzeppelin/contracts/token/ERC20/ERC20.sol\":6603:6614  fromBalance */\n  dup2\n    /* \"@openzeppelin/contracts/token/ERC20/ERC20.sol\":6603:6622  fromBalance < value */\n  lt\n    /* \"@openzeppelin/contracts/token/ERC20/ERC20.sol\":6599:6714  if (fromBalance < value) {... */\n  iszero\n  tag_39\n  jumpi\n    /* \"@openzeppelin/contracts/token/ERC20/ERC20.sol\":6674:6678  from */\n  dup4\n    /* \"@openzeppelin/contracts/token/ERC20/ERC20.sol\":6680:6691  fromBalance */\n  dup2\n    /* \"@openzeppelin/contracts/token/ERC20/ERC20.sol\":6693:6698  value */\n  dup4\n    /* \"@openzeppelin/contracts/token/ERC20/ERC20.sol\":6649:6699  ERC20InsufficientBalance(from, fromBalance, value) */\n  mload(0x40)\n  0xe450d38c00000000000000000000000000000000000000000000000000000000\n  dup2\n  mstore\n  0x04\n  add\n  tag_40\n  swap4\n  swap3\n  swap2\n  swap1\n  tag_41\n  jump\t// in\ntag_40:\n  mload(0x40)\n  dup1\n  swap2\n  sub\n  swap1\n  revert\n    /* \"@openzeppelin/contracts/token/ERC20/ERC20.sol\":6599:6714  if (fromBalance < value) {... */\ntag_39:\n    /* \"@openzeppelin/contracts/token/ERC20/ERC20.sol\":6866:6871  value */\n  dup2\n    /* \"@openzeppelin/contracts/token/ERC20/ERC20.sol\":6852:6863  fromBalance */\n  dup2\n    /* \"@openzeppelin/contracts/token/ERC20/ERC20.sol\":6852:6871  fromBalance - value */\n  sub\n    /* \"@openzeppelin/contracts/token/ERC20/ERC20.sol\":6834:6843  _balances */\n  0x00\n    /* \"@openzeppelin/contracts/token/ERC20/ERC20.sol\":6834:6849  _balances[from] */\n  dup1\n    /* \"@openzeppelin/contracts/token/ERC20/ERC20.sol\":6844:6848  from */\n  dup7\n    /* \"@openzeppelin/contracts/token/ERC20/ERC20.sol\":6834:6849  _balances[from] */\n  0xffffffffffffffffffffffffffffffffffffffff\n  and\n  0xffffffffffffffffffffffffffffffffffffffff\n  and\n  dup2\n  mstore\n  0x20\n  add\n  swap1\n  dup2\n  mstore\n  0x20\n  add\n  0x00\n  keccak256\n    /* \"@openzeppelin/contracts/token/ERC20/ERC20.sol\":6834:6871  _balances[from] = fromBalance - value */\n  dup2\n  swap1\n  sstore\n  pop\n    /* \"@openzeppelin/contracts/token/ERC20/ERC20.sol\":6534:6896  {... */\n  pop\n    /* \"@openzeppelin/contracts/token/ERC20/ERC20.sol\":6356:6896  if (from == address(0)) {... */\ntag_38:\n    /* \"@openzeppelin/contracts/token/ERC20/ERC20.sol\":6924:6925  0 */\n  0x00\n    /* \"@openzeppelin/contracts/token/ERC20/ERC20.sol\":6910:6926  to == address(0) */\n  0xffffffffffffffffffffffffffffffffffffffff\n  and\n    /* \"@openzeppelin/contracts/token/ERC20/ERC20.sol\":6910:6912  to */\n  dup3\n    /* \"@openzeppelin/contracts/token/ERC20/ERC20.sol\":6910:6926  to == address(0) */\n  0xffffffffffffffffffffffffffffffffffffffff\n  and\n  sub\n    /* \"@openzeppelin/contracts/token/ERC20/ERC20.sol\":6906:7331  if (to == address(0)) {... */\n  tag_42\n  jumpi\n    /* \"@openzeppelin/contracts/token/ERC20/ERC20.sol\":7089:7094  value */\n  dup1\n    /* \"@openzeppelin/contracts/token/ERC20/ERC20.sol\":7073:7085  _totalSupply */\n  0x02\n  0x00\n    /* \"@openzeppelin/contracts/token/ERC20/ERC20.sol\":7073:7094  _totalSupply -= value */\n  dup3\n  dup3\n  sload\n  sub\n  swap3\n  pop\n  pop\n  dup2\n  swap1\n  sstore\n  pop\n    /* \"@openzeppelin/contracts/token/ERC20/ERC20.sol\":6906:7331  if (to == address(0)) {... */\n  jump(tag_43)\ntag_42:\n    /* \"@openzeppelin/contracts/token/ERC20/ERC20.sol\":7301:7306  value */\n  dup1\n    /* \"@openzeppelin/contracts/token/ERC20/ERC20.sol\":7284:7293  _balances */\n  0x00\n    /* \"@openzeppelin/contracts/token/ERC20/ERC20.sol\":7284:7297  _balances[to] */\n  dup1\n    /* \"@openzeppelin/contracts/token/ERC20/ERC20.sol\":7294:7296  to */\n  dup5\n    /* \"@openzeppelin/contracts/token/ERC20/ERC20.sol\":7284:7297  _balances[to] */\n  0xffffffffffffffffffffffffffffffffffffffff\n  and\n  0xffffffffffffffffffffffffffffffffffffffff\n  and\n  dup2\n  mstore\n  0x20\n  add\n  swap1\n  dup2\n  mstore\n  0x20\n  add\n  0x00\n  keccak256\n  0x00\n    /* \"@openzeppelin/contracts/token/ERC20/ERC20.sol\":7284:7306  _balances[to] += value */\n  dup3\n  dup3\n  sload\n  add\n  swap3\n  pop\n  pop\n  dup2\n  swap1\n  sstore\n  pop\n    /* \"@openzeppelin/contracts/token/ERC20/ERC20.sol\":6906:7331  if (to == address(0)) {... */\ntag_43:\n    /* \"@openzeppelin/contracts/token/ERC20/ERC20.sol\":7361:7363  to */\n  dup2\n    /* \"@openzeppelin/contracts/token/ERC20/ERC20.sol\":7346:7371  Transfer(from, to, value) */\n  0xffffffffffffffffffffffffffffffffffffffff\n  and\n    /* \"@openzeppelin/contracts/token/ERC20/ERC20.sol\":7355:7359  from */\n  dup4\n    /* \"@openzeppelin/contracts/token/ERC20/ERC20.sol\":7346:7371  Transfer(from, to, value) */\n  0xffffffffffffffffffffffffffffffffffffffff\n  and\n  0xddf252ad1be2c89b69c2b068fc378daa952ba7f163c4a11628f55a4df523b3ef\n    /* \"@openzeppelin/contracts/token/ERC20/ERC20.sol\":7365:7370  value */\n  dup4\n    /* \"@openzeppelin/contracts/token/ERC20/ERC20.sol\":7346:7371  Transfer(from, to, value) */\n  mload(0x40)\n  tag_44\n  swap2\n  swap1\n  tag_45\n  jump\t// in\ntag_44:\n  mload(0x40)\n  dup1\n  swap2\n  sub\n  swap1\n  log3\n    /* \"@openzeppelin/contracts/token/ERC20/ERC20.sol\":6271:7378  function _update(address from, address to, uint256 value) internal virtual {... */\n  pop\n  pop\n  pop\n  jump\t// out\n    /* \"#utility.yul\":88:205   */\ntag_47:\n    /* \"#utility.yul\":197:198   */\n  0x00\n    /* \"#utility.yul\":194:195   */\n  dup1\n    /* \"#utility.yul\":187:199   */\n  revert\n    /* \"#utility.yul\":334:460   */\ntag_49:\n    /* \"#utility.yul\":371:378   */\n  0x00\n    /* \"#utility.yul\":411:453   */\n  0xffffffffffffffffffffffffffffffffffffffff\n    /* \"#utility.yul\":404:409   */\n  dup3\n    /* \"#utility.yul\":400:454   */\n  and\n    /* \"#utility.yul\":389:454   */\n  swap1\n  pop\n    /* \"#utility.yul\":334:460   */\n  swap2\n  swap1\n  pop\n  jump\t// out\n    /* \"#utility.yul\":466:562   */\ntag_50:\n    /* \"#utility.yul\":503:510   */\n  0x00\n    /* \"#utility.yul\":532:556   */\n  tag_86\n    /* \"#utility.yul\":550:555   */\n  dup3\n    /* \"#utility.yul\":532:556   */\n  tag_49\n  jump\t// in\ntag_86:\n    /* \"#utility.yul\":521:556   */\n  swap1\n  pop\n    /* \"#utility.yul\":466:562   */\n  swap2\n  swap1\n  pop\n  jump\t// out\n    /* \"#utility.yul\":568:690   */\ntag_51:\n    /* \"#utility.yul\":641:665   */\n  tag_88\n    /* \"#utility.yul\":659:664   */\n  dup2\n    /* \"#utility.yul\":641:665   */\n  tag_50\n  jump\t// in\ntag_88:\n    /* \"#utility.yul\":634:639   */\n  dup2\n    /* \"#utility.yul\":631:666   */\n  eq\n    /* \"#utility.yul\":621:684   */\n  tag_89\n  jumpi\n    /* \"#utility.yul\":680:681   */\n  0x00\n    /* \"#utility.yul\":677:678   */\n  dup1\n    /* \"#utility.yul\":670:682   */\n  revert\n    /* \"#utility.yul\":621:684   */\ntag_89:\n    /* \"#utility.yul\":568:690   */\n  pop\n  jump\t// out\n    /* \"#utility.yul\":696:839   */\ntag_52:\n    /* \"#utility.yul\":753:758   */\n  0x00\n    /* \"#utility.yul\":784:790   */\n  dup2\n    /* \"#utility.yul\":778:791   */\n  mload\n    /* \"#utility.yul\":769:791   */\n  swap1\n  pop\n    /* \"#utility.yul\":800:833   */\n  tag_91\n    /* \"#utility.yul\":827:832   */\n  dup2\n    /* \"#utility.yul\":800:833   */\n  tag_51\n  jump\t// in\ntag_91:\n    /* \"#utility.yul\":696:839   */\n  swap3\n  swap2\n  pop\n  pop\n  jump\t// out\n    /* \"#utility.yul\":845:1352   */\ntag_3:\n    /* \"#utility.yul\":924:930   */\n  0x00\n    /* \"#utility.yul\":932:938   */\n  dup1\n    /* \"#utility.yul\":981:983   */\n  0x40\n    /* \"#utility.yul\":969:978   */\n  dup4\n    /* \"#utility.yul\":960:967   */\n  dup6\n    /* \"#utility.yul\":956:979   */\n  sub\n    /* \"#utility.yul\":952:984   */\n  slt\n    /* \"#utility.yul\":949:1068   */\n  iszero\n  tag_93\n  jumpi\n    /* \"#utility.yul\":987:1066   */\n  tag_94\n  tag_47\n  jump\t// in\ntag_94:\n    /* \"#utility.yul\":949:1068   */\ntag_93:\n    /* \"#utility.yul\":1107:1108   */\n  0x00\n    /* \"#utility.yul\":1132:1196   */\n  tag_95\n    /* \"#utility.yul\":1188:1195   */\n  dup6\n    /* \"#utility.yul\":1179:1185   */\n  dup3\n    /* \"#utility.yul\":1168:1177   */\n  dup7\n    /* \"#utility.yul\":1164:1186   */\n  add\n    /* \"#utility.yul\":1132:1196   */\n  tag_52\n  jump\t// in\ntag_95:\n    /* \"#utility.yul\":1122:1196   */\n  swap3\n  pop\n    /* \"#utility.yul\":1078:1206   */\n  pop\n    /* \"#utility.yul\":1245:1247   */\n  0x20\n    /* \"#utility.yul\":1271:1335   */\n  tag_96\n    /* \"#utility.yul\":1327:1334   */\n  dup6\n    /* \"#utility.yul\":1318:1324   */\n  dup3\n    /* \"#utility.yul\":1307:1316   */\n  dup7\n    /* \"#utility.yul\":1303:1325   */\n  add\n    /* \"#utility.yul\":1271:1335   */\n  tag_52\n  jump\t// in\ntag_96:\n    /* \"#utility.yul\":1261:1335   */\n  swap2\n  pop\n    /* \"#utility.yul\":1216:1345   */\n  pop\n    /* \"#utility.yul\":845:1352   */\n  swap3\n  pop\n  swap3\n  swap1\n  pop\n  jump\t// out\n    /* \"#utility.yul\":1358:1457   */\ntag_53:\n    /* \"#utility.yul\":1410:1416   */\n  0x00\n    /* \"#utility.yul\":1444:1449   */\n  dup2\n    /* \"#utility.yul\":1438:1450   */\n  mload\n    /* \"#utility.yul\":1428:1450   */\n  swap1\n  pop\n    /* \"#utility.yul\":1358:1457   */\n  swap2\n  swap1\n  pop\n  jump\t// out\n    /* \"#utility.yul\":1463:1643   */\ntag_54:\n    /* \"#utility.yul\":1511:1588   */\n  0x4e487b7100000000000000000000000000000000000000000000000000000000\n    /* \"#utility.yul\":1508:1509   */\n  0x00\n    /* \"#utility.yul\":1501:1589   */\n  mstore\n    /* \"#utility.yul\":1608:1612   */\n  0x41\n    /* \"#utility.yul\":1605:1606   */\n  0x04\n    /* \"#utility.yul\":1598:1613   */\n  mstore\n    /* \"#utility.yul\":1632:1636   */\n  0x24\n    /* \"#utility.yul\":1629:1630   */\n  0x00\n    /* \"#utility.yul\":1622:1637   */\n  revert\n    /* \"#utility.yul\":1649:1829   */\ntag_55:\n    /* \"#utility.yul\":1697:1774   */\n  0x4e487b7100000000000000000000000000000000000000000000000000000000\n    /* \"#utility.yul\":1694:1695   */\n  0x00\n    /* \"#utility.yul\":1687:1775   */\n  mstore\n    /* \"#utility.yul\":1794:1798   */\n  0x22\n    /* \"#utility.yul\":1791:1792   */\n  0x04\n    /* \"#utility.yul\":1784:1799   */\n  mstore\n    /* \"#utility.yul\":1818:1822   */\n  0x24\n    /* \"#utility.yul\":1815:1816   */\n  0x00\n    /* \"#utility.yul\":1808:1823   */\n  revert\n    /* \"#utility.yul\":1835:2155   */\ntag_56:\n    /* \"#utility.yul\":1879:1885   */\n  0x00\n    /* \"#utility.yul\":1916:1917   */\n  0x02\n    /* \"#utility.yul\":1910:1914   */\n  dup3\n    /* \"#utility.yul\":1906:1918   */\n  div\n    /* \"#utility.yul\":1896:1918   */\n  swap1\n  pop\n    /* \"#utility.yul\":1963:1964   */\n  0x01\n    /* \"#utility.yul\":1957:1961   */\n  dup3\n    /* \"#utility.yul\":1953:1965   */\n  and\n    /* \"#utility.yul\":1984:2002   */\n  dup1\n    /* \"#utility.yul\":1974:2055   */\n  tag_101\n  jumpi\n    /* \"#utility.yul\":2040:2044   */\n  0x7f\n    /* \"#utility.yul\":2032:2038   */\n  dup3\n    /* \"#utility.yul\":2028:2045   */\n  and\n    /* \"#utility.yul\":2018:2045   */\n  swap2\n  pop\n    /* \"#utility.yul\":1974:2055   */\ntag_101:\n    /* \"#utility.yul\":2102:2104   */\n  0x20\n    /* \"#utility.yul\":2094:2100   */\n  dup3\n    /* \"#utility.yul\":2091:2105   */\n  lt\n    /* \"#utility.yul\":2071:2089   */\n  dup2\n    /* \"#utility.yul\":2068:2106   */\n  sub\n    /* \"#utility.yul\":2065:2149   */\n  tag_102\n  jumpi\n    /* \"#utility.yul\":2121:2139   */\n  tag_103\n  tag_55\n  jump\t// in\ntag_103:\n    /* \"#utility.yul\":2065:2149   */\ntag_102:\n    /* \"#utility.yul\":1886:2155   */\n  pop\n    /* \"#utility.yul\":1835:2155   */\n  swap2\n  swap1\n  pop\n  jump\t// out\n    /* \"#utility.yul\":2161:2302   */\ntag_57:\n    /* \"#utility.yul\":2210:2214   */\n  0x00\n    /* \"#utility.yul\":2233:2236   */\n  dup2\n    /* \"#utility.yul\":2225:2236   */\n  swap1\n  pop\n    /* \"#utility.yul\":2256:2259   */\n  dup2\n    /* \"#utility.yul\":2253:2254   */\n  0x00\n    /* \"#utility.yul\":2246:2260   */\n  mstore\n    /* \"#utility.yul\":2290:2294   */\n  0x20\n    /* \"#utility.yul\":2287:2288   */\n  0x00\n    /* \"#utility.yul\":2277:2295   */\n  keccak256\n    /* \"#utility.yul\":2269:2295   */\n  swap1\n  pop\n    /* \"#utility.yul\":2161:2302   */\n  swap2\n  swap1\n  pop\n  jump\t// out\n    /* \"#utility.yul\":2308:2401   */\ntag_58:\n    /* \"#utility.yul\":2345:2351   */\n  0x00\n    /* \"#utility.yul\":2392:2394   */\n  0x20\n    /* \"#utility.yul\":2387:2389   */\n  0x1f\n    /* \"#utility.yul\":2380:2385   */\n  dup4\n    /* \"#utility.yul\":2376:2390   */\n  add\n    /* \"#utility.yul\":2372:2395   */\n  div\n    /* \"#utility.yul\":2362:2395   */\n  swap1\n  pop\n    /* \"#utility.yul\":2308:2401   */\n  swap2\n  swap1\n  pop\n  jump\t// out\n    /* \"#utility.yul\":2407:2514   */\ntag_59:\n    /* \"#utility.yul\":2451:2459   */\n  0x00\n    /* \"#utility.yul\":2501:2506   */\n  dup3\n    /* \"#utility.yul\":2495:2499   */\n  dup3\n    /* \"#utility.yul\":2491:2507   */\n  shl\n    /* \"#utility.yul\":2470:2507   */\n  swap1\n  pop\n    /* \"#utility.yul\":2407:2514   */\n  swap3\n  swap2\n  pop\n  pop\n  jump\t// out\n    /* \"#utility.yul\":2520:2913   */\ntag_60:\n    /* \"#utility.yul\":2589:2595   */\n  0x00\n    /* \"#utility.yul\":2639:2640   */\n  0x08\n    /* \"#utility.yul\":2627:2637   */\n  dup4\n    /* \"#utility.yul\":2623:2641   */\n  mul\n    /* \"#utility.yul\":2662:2759   */\n  tag_108\n    /* \"#utility.yul\":2692:2758   */\n  0xffffffffffffffffffffffffffffffffffffffffffffffffffffffffffffffff\n    /* \"#utility.yul\":2681:2690   */\n  dup3\n    /* \"#utility.yul\":2662:2759   */\n  tag_59\n  jump\t// in\ntag_108:\n    /* \"#utility.yul\":2780:2819   */\n  tag_109\n    /* \"#utility.yul\":2810:2818   */\n  dup7\n    /* \"#utility.yul\":2799:2808   */\n  dup4\n    /* \"#utility.yul\":2780:2819   */\n  tag_59\n  jump\t// in\ntag_109:\n    /* \"#utility.yul\":2768:2819   */\n  swap6\n  pop\n    /* \"#utility.yul\":2852:2856   */\n  dup1\n    /* \"#utility.yul\":2848:2857   */\n  not\n    /* \"#utility.yul\":2841:2846   */\n  dup5\n    /* \"#utility.yul\":2837:2858   */\n  and\n    /* \"#utility.yul\":2828:2858   */\n  swap4\n  pop\n    /* \"#utility.yul\":2901:2905   */\n  dup1\n    /* \"#utility.yul\":2891:2899   */\n  dup7\n    /* \"#utility.yul\":2887:2906   */\n  and\n    /* \"#utility.yul\":2880:2885   */\n  dup5\n    /* \"#utility.yul\":2877:2907   */\n  or\n    /* \"#utility.yul\":2867:2907   */\n  swap3\n  pop\n    /* \"#utility.yul\":2596:2913   */\n  pop\n  pop\n    /* \"#utility.yul\":2520:2913   */\n  swap4\n  swap3\n  pop\n  pop\n  pop\n  jump\t// out\n    /* \"#utility.yul\":2919:2996   */\ntag_61:\n    /* \"#utility.yul\":2956:2963   */\n  0x00\n    /* \"#utility.yul\":2985:2990   */\n  dup2\n    /* \"#utility.yul\":2974:2990   */\n  swap1\n  pop\n    /* \"#utility.yul\":2919:2996   */\n  swap2\n  swap1\n  pop\n  jump\t// out\n    /* \"#utility.yul\":3002:3062   */\ntag_62:\n    /* \"#utility.yul\":3030:3033   */\n  0x00\n    /* \"#utility.yul\":3051:3056   */\n  dup2\n    /* \"#utility.yul\":3044:3056   */\n  swap1\n  pop\n    /* \"#utility.yul\":3002:3062   */\n  swap2\n  swap1\n  pop\n  jump\t// out\n    /* \"#utility.yul\":3068:3210   */\ntag_63:\n    /* \"#utility.yul\":3118:3127   */\n  0x00\n    /* \"#utility.yul\":3151:3204   */\n  tag_113\n    /* \"#utility.yul\":3169:3203   */\n  tag_114\n    /* \"#utility.yul\":3178:3202   */\n  tag_115\n    /* \"#utility.yul\":3196:3201   */\n  dup5\n    /* \"#utility.yul\":3178:3202   */\n  tag_61\n  jump\t// in\ntag_115:\n    /* \"#utility.yul\":3169:3203   */\n  tag_62\n  jump\t// in\ntag_114:\n    /* \"#utility.yul\":3151:3204   */\n  tag_61\n  jump\t// in\ntag_113:\n    /* \"#utility.yul\":3138:3204   */\n  swap1\n  pop\n    /* \"#utility.yul\":3068:3210   */\n  swap2\n  swap1\n  pop\n  jump\t// out\n    /* \"#utility.yul\":3216:3291   */\ntag_64:\n    /* \"#utility.yul\":3259:3262   */\n  0x00\n    /* \"#utility.yul\":3280:3285   */\n  dup2\n    /* \"#utility.yul\":3273:3285   */\n  swap1\n  pop\n    /* \"#utility.yul\":3216:3291   */\n  swap2\n  swap1\n  pop\n  jump\t// out\n    /* \"#utility.yul\":3297:3566   */\ntag_65:\n    /* \"#utility.yul\":3407:3446   */\n  tag_118\n    /* \"#utility.yul\":3438:3445   */\n  dup4\n    /* \"#utility.yul\":3407:3446   */\n  tag_63\n  jump\t// in\ntag_118:\n    /* \"#utility.yul\":3468:3559   */\n  tag_119\n    /* \"#utility.yul\":3517:3558   */\n  tag_120\n    /* \"#utility.yul\":3541:3557   */\n  dup3\n    /* \"#utility.yul\":3517:3558   */\n  tag_64\n  jump\t// in\ntag_120:\n    /* \"#utility.yul\":3509:3515   */\n  dup5\n    /* \"#utility.yul\":3502:3506   */\n  dup5\n    /* \"#utility.yul\":3496:3507   */\n  sload\n    /* \"#utility.yul\":3468:3559   */\n  tag_60\n  jump\t// in\ntag_119:\n    /* \"#utility.yul\":3462:3466   */\n  dup3\n    /* \"#utility.yul\":3455:3560   */\n  sstore\n    /* \"#utility.yul\":3373:3566   */\n  pop\n    /* \"#utility.yul\":3297:3566   */\n  pop\n  pop\n  pop\n  jump\t// out\n    /* \"#utility.yul\":3572:3645   */\ntag_66:\n    /* \"#utility.yul\":3617:3620   */\n  0x00\n    /* \"#utility.yul\":3572:3645   */\n  swap1\n  jump\t// out\n    /* \"#utility.yul\":3651:3840   */\ntag_67:\n    /* \"#utility.yul\":3728:3760   */\n  tag_123\n  tag_66\n  jump\t// in\ntag_123:\n    /* \"#utility.yul\":3769:3834   */\n  tag_124\n    /* \"#utility.yul\":3827:3833   */\n  dup2\n    /* \"#utility.yul\":3819:3825   */\n  dup5\n    /* \"#utility.yul\":3813:3817   */\n  dup5\n    /* \"#utility.yul\":3769:3834   */\n  tag_65\n  jump\t// in\ntag_124:\n    /* \"#utility.yul\":3704:3840   */\n  pop\n    /* \"#utility.yul\":3651:3840   */\n  pop\n  pop\n  jump\t// out\n    /* \"#utility.yul\":3846:4032   */\ntag_68:\n    /* \"#utility.yul\":3906:4026   */\ntag_126:\n    /* \"#utility.yul\":3923:3926   */\n  dup2\n    /* \"#utility.yul\":3916:3921   */\n  dup2\n    /* \"#utility.yul\":3913:3927   */\n  lt\n    /* \"#utility.yul\":3906:4026   */\n  iszero\n  tag_128\n  jumpi\n    /* \"#utility.yul\":3977:4016   */\n  tag_129\n    /* \"#utility.yul\":4014:4015   */\n  0x00\n    /* \"#utility.yul\":4007:4012   */\n  dup3\n    /* \"#utility.yul\":3977:4016   */\n  tag_67\n  jump\t// in\ntag_129:\n    /* \"#utility.yul\":3950:3951   */\n  0x01\n    /* \"#utility.yul\":3943:3948   */\n  dup2\n    /* \"#utility.yul\":3939:3952   */\n  add\n    /* \"#utility.yul\":3930:3952   */\n  swap1\n  pop\n    /* \"#utility.yul\":3906:4026   */\n  jump(tag_126)\ntag_128:\n    /* \"#utility.yul\":3846:4032   */\n  pop\n  pop\n  jump\t// out\n    /* \"#utility.yul\":4038:4581   */\ntag_69:\n    /* \"#utility.yul\":4139:4141   */\n  0x1f\n    /* \"#utility.yul\":4134:4137   */\n  dup3\n    /* \"#utility.yul\":4131:4142   */\n  gt\n    /* \"#utility.yul\":4128:4574   */\n  iszero\n  tag_131\n  jumpi\n    /* \"#utility.yul\":4173:4211   */\n  tag_132\n    /* \"#utility.yul\":4205:4210   */\n  dup2\n    /* \"#utility.yul\":4173:4211   */\n  tag_57\n  jump\t// in\ntag_132:\n    /* \"#utility.yul\":4257:4286   */\n  tag_133\n    /* \"#utility.yul\":4275:4285   */\n  dup5\n    /* \"#utility.yul\":4257:4286   */\n  tag_58\n  jump\t// in\ntag_133:\n    /* \"#utility.yul\":4247:4255   */\n  dup2\n    /* \"#utility.yul\":4243:4287   */\n  add\n    /* \"#utility.yul\":4440:4442   */\n  0x20\n    /* \"#utility.yul\":4428:4438   */\n  dup6\n    /* \"#utility.yul\":4425:4443   */\n  lt\n    /* \"#utility.yul\":4422:4471   */\n  iszero\n  tag_134\n  jumpi\n    /* \"#utility.yul\":4461:4469   */\n  dup2\n    /* \"#utility.yul\":4446:4469   */\n  swap1\n  pop\n    /* \"#utility.yul\":4422:4471   */\ntag_134:\n    /* \"#utility.yul\":4484:4564   */\n  tag_135\n    /* \"#utility.yul\":4540:4562   */\n  tag_136\n    /* \"#utility.yul\":4558:4561   */\n  dup6\n    /* \"#utility.yul\":4540:4562   */\n  tag_58\n  jump\t// in\ntag_136:\n    /* \"#utility.yul\":4530:4538   */\n  dup4\n    /* \"#utility.yul\":4526:4563   */\n  add\n    /* \"#utility.yul\":4513:4524   */\n  dup3\n    /* \"#utility.yul\":4484:4564   */\n  tag_68\n  jump\t// in\ntag_135:\n    /* \"#utility.yul\":4143:4574   */\n  pop\n  pop\n    /* \"#utility.yul\":4128:4574   */\ntag_131:\n    /* \"#utility.yul\":4038:4581   */\n  pop\n  pop\n  pop\n  jump\t// out\n    /* \"#utility.yul\":4587:4704   */\ntag_70:\n    /* \"#utility.yul\":4641:4649   */\n  0x00\n    /* \"#utility.yul\":4691:4696   */\n  dup3\n    /* \"#utility.yul\":4685:4689   */\n  dup3\n    /* \"#utility.yul\":4681:4697   */\n  shr\n    /* \"#utility.yul\":4660:4697   */\n  swap1\n  pop\n    /* \"#utility.yul\":4587:4704   */\n  swap3\n  swap2\n  pop\n  pop\n  jump\t// out\n    /* \"#utility.yul\":4710:4879   */\ntag_71:\n    /* \"#utility.yul\":4754:4760   */\n  0x00\n    /* \"#utility.yul\":4787:4838   */\n  tag_139\n    /* \"#utility.yul\":4835:4836   */\n  0x00\n    /* \"#utility.yul\":4831:4837   */\n  not\n    /* \"#utility.yul\":4823:4828   */\n  dup5\n    /* \"#utility.yul\":4820:4821   */\n  0x08\n    /* \"#utility.yul\":4816:4829   */\n  mul\n    /* \"#utility.yul\":4787:4838   */\n  tag_70\n  jump\t// in\ntag_139:\n    /* \"#utility.yul\":4783:4839   */\n  not\n    /* \"#utility.yul\":4868:4872   */\n  dup1\n    /* \"#utility.yul\":4862:4866   */\n  dup4\n    /* \"#utility.yul\":4858:4873   */\n  and\n    /* \"#utility.yul\":4848:4873   */\n  swap2\n  pop\n    /* \"#utility.yul\":4761:4879   */\n  pop\n    /* \"#utility.yul\":4710:4879   */\n  swap3\n  swap2\n  pop\n  pop\n  jump\t// out\n    /* \"#utility.yul\":4884:5179   */\ntag_72:\n    /* \"#utility.yul\":4960:4964   */\n  0x00\n    /* \"#utility.yul\":5106:5135   */\n  tag_141\n    /* \"#utility.yul\":5131:5134   */\n  dup4\n    /* \"#utility.yul\":5125:5129   */\n  dup4\n    /* \"#utility.yul\":5106:5135   */\n  tag_71\n  jump\t// in\ntag_141:\n    /* \"#utility.yul\":5098:5135   */\n  swap2\n  pop\n    /* \"#utility.yul\":5168:5171   */\n  dup3\n    /* \"#utility.yul\":5165:5166   */\n  0x02\n    /* \"#utility.yul\":5161:5172   */\n  mul\n    /* \"#utility.yul\":5155:5159   */\n  dup3\n    /* \"#utility.yul\":5152:5173   */\n  or\n    /* \"#utility.yul\":5144:5173   */\n  swap1\n  pop\n    /* \"#utility.yul\":4884:5179   */\n  swap3\n  swap2\n  pop\n  pop\n  jump\t// out\n    /* \"#utility.yul\":5184:6579   */\ntag_9:\n    /* \"#utility.yul\":5301:5338   */\n  tag_143\n    /* \"#utility.yul\":5334:5337   */\n  dup3\n    /* \"#utility.yul\":5301:5338   */\n  tag_53\n  jump\t// in\ntag_143:\n    /* \"#utility.yul\":5403:5421   */\n  0xffffffffffffffff\n    /* \"#utility.yul\":5395:5401   */\n  dup2\n    /* \"#utility.yul\":5392:5422   */\n  gt\n    /* \"#utility.yul\":5389:5445   */\n  iszero\n  tag_144\n  jumpi\n    /* \"#utility.yul\":5425:5443   */\n  tag_145\n  tag_54\n  jump\t// in\ntag_145:\n    /* \"#utility.yul\":5389:5445   */\ntag_144:\n    /* \"#utility.yul\":5469:5507   */\n  tag_146\n    /* \"#utility.yul\":5501:5505   */\n  dup3\n    /* \"#utility.yul\":5495:5506   */\n  sload\n    /* \"#utility.yul\":5469:5507   */\n  tag_56\n  jump\t// in\ntag_146:\n    /* \"#utility.yul\":5554:5621   */\n  tag_147\n    /* \"#utility.yul\":5614:5620   */\n  dup3\n    /* \"#utility.yul\":5606:5612   */\n  dup3\n    /* \"#utility.yul\":5600:5604   */\n  dup6\n    /* \"#utility.yul\":5554:5621   */\n  tag_69\n  jump\t// in\ntag_147:\n    /* \"#utility.yul\":5648:5649   */\n  0x00\n    /* \"#utility.yul\":5672:5676   */\n  0x20\n    /* \"#utility.yul\":5659:5676   */\n  swap1\n  pop\n    /* \"#utility.yul\":5704:5706   */\n  0x1f\n    /* \"#utility.yul\":5696:5702   */\n  dup4\n    /* \"#utility.yul\":5693:5707   */\n  gt\n    /* \"#utility.yul\":5721:5722   */\n  0x01\n    /* \"#utility.yul\":5716:6334   */\n  dup2\n  eq\n  tag_149\n  jumpi\n    /* \"#utility.yul\":6378:6379   */\n  0x00\n    /* \"#utility.yul\":6395:6401   */\n  dup5\n    /* \"#utility.yul\":6392:6469   */\n  iszero\n  tag_150\n  jumpi\n    /* \"#utility.yul\":6444:6453   */\n  dup3\n    /* \"#utility.yul\":6439:6442   */\n  dup8\n    /* \"#utility.yul\":6435:6454   */\n  add\n    /* \"#utility.yul\":6429:6455   */\n  mload\n    /* \"#utility.yul\":6420:6455   */\n  swap1\n  pop\n    /* \"#utility.yul\":6392:6469   */\ntag_150:\n    /* \"#utility.yul\":6495:6562   */\n  tag_151\n    /* \"#utility.yul\":6555:6561   */\n  dup6\n    /* \"#utility.yul\":6548:6553   */\n  dup3\n    /* \"#utility.yul\":6495:6562   */\n  tag_72\n  jump\t// in\ntag_151:\n    /* \"#utility.yul\":6489:6493   */\n  dup7\n    /* \"#utility.yul\":6482:6563   */\n  sstore\n    /* \"#utility.yul\":6351:6573   */\n  pop\n    /* \"#utility.yul\":5686:6573   */\n  jump(tag_148)\n    /* \"#utility.yul\":5716:6334   */\ntag_149:\n    /* \"#utility.yul\":5768:5772   */\n  0x1f\n    /* \"#utility.yul\":5764:5773   */\n  not\n    /* \"#utility.yul\":5756:5762   */\n  dup5\n    /* \"#utility.yul\":5752:5774   */\n  and\n    /* \"#utility.yul\":5802:5839   */\n  tag_152\n    /* \"#utility.yul\":5834:5838   */\n  dup7\n    /* \"#utility.yul\":5802:5839   */\n  tag_57\n  jump\t// in\ntag_152:\n    /* \"#utility.yul\":5861:5862   */\n  0x00\n    /* \"#utility.yul\":5875:6083   */\ntag_153:\n    /* \"#utility.yul\":5889:5896   */\n  dup3\n    /* \"#utility.yul\":5886:5887   */\n  dup2\n    /* \"#utility.yul\":5883:5897   */\n  lt\n    /* \"#utility.yul\":5875:6083   */\n  iszero\n  tag_155\n  jumpi\n    /* \"#utility.yul\":5968:5977   */\n  dup5\n    /* \"#utility.yul\":5963:5966   */\n  dup10\n    /* \"#utility.yul\":5959:5978   */\n  add\n    /* \"#utility.yul\":5953:5979   */\n  mload\n    /* \"#utility.yul\":5945:5951   */\n  dup3\n    /* \"#utility.yul\":5938:5980   */\n  sstore\n    /* \"#utility.yul\":6019:6020   */\n  0x01\n    /* \"#utility.yul\":6011:6017   */\n  dup3\n    /* \"#utility.yul\":6007:6021   */\n  add\n    /* \"#utility.yul\":5997:6021   */\n  swap2\n  pop\n    /* \"#utility.yul\":6066:6068   */\n  0x20\n    /* \"#utility.yul\":6055:6064   */\n  dup6\n    /* \"#utility.yul\":6051:6069   */\n  add\n    /* \"#utility.yul\":6038:6069   */\n  swap5\n  pop\n    /* \"#utility.yul\":5912:5916   */\n  0x20\n    /* \"#utility.yul\":5909:5910   */\n  dup2\n    /* \"#utility.yul\":5905:5917   */\n  add\n    /* \"#utility.yul\":5900:5917   */\n  swap1\n  pop\n    /* \"#utility.yul\":5875:6083   */\n  jump(tag_153)\ntag_155:\n    /* \"#utility.yul\":6111:6117   */\n  dup7\n    /* \"#utility.yul\":6102:6109   */\n  dup4\n    /* \"#utility.yul\":6099:6118   */\n  lt\n    /* \"#utility.yul\":6096:6275   */\n  iszero\n  tag_156\n  jumpi\n    /* \"#utility.yul\":6169:6178   */\n  dup5\n    /* \"#utility.yul\":6164:6167   */\n  dup10\n    /* \"#utility.yul\":6160:6179   */\n  add\n    /* \"#utility.yul\":6154:6180   */\n  mload\n    /* \"#utility.yul\":6212:6260   */\n  tag_157\n    /* \"#utility.yul\":6254:6258   */\n  0x1f\n    /* \"#utility.yul\":6246:6252   */\n  dup10\n    /* \"#utility.yul\":6242:6259   */\n  and\n    /* \"#utility.yul\":6231:6240   */\n  dup3\n    /* \"#utility.yul\":6212:6260   */\n  tag_71\n  jump\t// in\ntag_157:\n    /* \"#utility.yul\":6204:6210   */\n  dup4\n    /* \"#utility.yul\":6197:6261   */\n  sstore\n    /* \"#utility.yul\":6119:6275   */\n  pop\n    /* \"#utility.yul\":6096:6275   */\ntag_156:\n    /* \"#utility.yul\":6321:6322   */\n  0x01\n    /* \"#utility.yul\":6317:6318   */\n  0x02\n    /* \"#utility.yul\":6309:6315   */\n  dup9\n    /* \"#utility.yul\":6305:6319   */\n  mul\n    /* \"#utility.yul\":6301:6323   */\n  add\n    /* \"#utility.yul\":6295:6299   */\n  dup9\n    /* \"#utility.yul\":6288:6324   */\n  sstore\n    /* \"#utility.yul\":5723:6334   */\n  pop\n  pop\n  pop\n    /* \"#utility.yul\":5686:6573   */\ntag_148:\n  pop\n    /* \"#utility.yul\":5276:6579   */\n  pop\n  pop\n  pop\n    /* \"#utility.yul\":5184:6579   */\n  pop\n  pop\n  jump\t// out\n    /* \"#utility.yul\":6585:6703   */\ntag_73:\n    /* \"#utility.yul\":6672:6696   */\n  tag_159\n    /* \"#utility.yul\":6690:6695   */\n  dup2\n    /* \"#utility.yul\":6672:6696   */\n  tag_50\n  jump\t// in\ntag_159:\n    /* \"#utility.yul\":6667:6670   */\n  dup3\n    /* \"#utility.yul\":6660:6697   */\n  mstore\n    /* \"#utility.yul\":6585:6703   */\n  pop\n  pop\n  jump\t// out\n    /* \"#utility.yul\":6709:6931   */\ntag_14:\n    /* \"#utility.yul\":6802:6806   */\n  0x00\n    /* \"#utility.yul\":6840:6842   */\n  0x20\n    /* \"#utility.yul\":6829:6838   */\n  dup3\n    /* \"#utility.yul\":6825:6843   */\n  add\n    /* \"#utility.yul\":6817:6843   */\n  swap1\n  pop\n    /* \"#utility.yul\":6853:6924   */\n  tag_161\n    /* \"#utility.yul\":6921:6922   */\n  0x00\n    /* \"#utility.yul\":6910:6919   */\n  dup4\n    /* \"#utility.yul\":6906:6923   */\n  add\n    /* \"#utility.yul\":6897:6903   */\n  dup5\n    /* \"#utility.yul\":6853:6924   */\n  tag_73\n  jump\t// in\ntag_161:\n    /* \"#utility.yul\":6709:6931   */\n  swap3\n  swap2\n  pop\n  pop\n  jump\t// out\n    /* \"#utility.yul\":6937:7117   */\ntag_74:\n    /* \"#utility.yul\":6985:7062   */\n  0x4e487b7100000000000000000000000000000000000000000000000000000000\n    /* \"#utility.yul\":6982:6983   */\n  0x00\n    /* \"#utility.yul\":6975:7063   */\n  mstore\n    /* \"#utility.yul\":7082:7086   */\n  0x11\n    /* \"#utility.yul\":7079:7080   */\n  0x04\n    /* \"#utility.yul\":7072:7087   */\n  mstore\n    /* \"#utility.yul\":7106:7110   */\n  0x24\n    /* \"#utility.yul\":7103:7104   */\n  0x00\n    /* \"#utility.yul\":7096:7111   */\n  revert\n    /* \"#utility.yul\":7123:7225   */\ntag_75:\n    /* \"#utility.yul\":7165:7173   */\n  0x00\n    /* \"#utility.yul\":7212:7217   */\n  dup2\n    /* \"#utility.yul\":7209:7210   */\n  0x01\n    /* \"#utility.yul\":7205:7218   */\n  shr\n    /* \"#utility.yul\":7184:7218   */\n  swap1\n  pop\n    /* \"#utility.yul\":7123:7225   */\n  swap2\n  swap1\n  pop\n  jump\t// out\n    /* \"#utility.yul\":7231:8079   */\ntag_76:\n    /* \"#utility.yul\":7292:7297   */\n  0x00\n    /* \"#utility.yul\":7299:7303   */\n  dup1\n    /* \"#utility.yul\":7323:7329   */\n  dup3\n    /* \"#utility.yul\":7314:7329   */\n  swap2\n  pop\n    /* \"#utility.yul\":7347:7352   */\n  dup4\n    /* \"#utility.yul\":7338:7352   */\n  swap1\n  pop\n    /* \"#utility.yul\":7361:8073   */\ntag_165:\n    /* \"#utility.yul\":7382:7383   */\n  0x01\n    /* \"#utility.yul\":7372:7380   */\n  dup6\n    /* \"#utility.yul\":7369:7384   */\n  gt\n    /* \"#utility.yul\":7361:8073   */\n  iszero\n  tag_167\n  jumpi\n    /* \"#utility.yul\":7477:7481   */\n  dup1\n    /* \"#utility.yul\":7472:7475   */\n  dup7\n    /* \"#utility.yul\":7468:7482   */\n  div\n    /* \"#utility.yul\":7462:7466   */\n  dup2\n    /* \"#utility.yul\":7459:7483   */\n  gt\n    /* \"#utility.yul\":7456:7506   */\n  iszero\n  tag_168\n  jumpi\n    /* \"#utility.yul\":7486:7504   */\n  tag_169\n  tag_74\n  jump\t// in\ntag_169:\n    /* \"#utility.yul\":7456:7506   */\ntag_168:\n    /* \"#utility.yul\":7536:7537   */\n  0x01\n    /* \"#utility.yul\":7526:7534   */\n  dup6\n    /* \"#utility.yul\":7522:7538   */\n  and\n    /* \"#utility.yul\":7519:7970   */\n  iszero\n  tag_170\n  jumpi\n    /* \"#utility.yul\":7951:7955   */\n  dup1\n    /* \"#utility.yul\":7944:7949   */\n  dup3\n    /* \"#utility.yul\":7940:7956   */\n  mul\n    /* \"#utility.yul\":7931:7956   */\n  swap2\n  pop\n    /* \"#utility.yul\":7519:7970   */\ntag_170:\n    /* \"#utility.yul\":8001:8005   */\n  dup1\n    /* \"#utility.yul\":7995:7999   */\n  dup2\n    /* \"#utility.yul\":7991:8006   */\n  mul\n    /* \"#utility.yul\":7983:8006   */\n  swap1\n  pop\n    /* \"#utility.yul\":8031:8063   */\n  tag_171\n    /* \"#utility.yul\":8054:8062   */\n  dup6\n    /* \"#utility.yul\":8031:8063   */\n  tag_75\n  jump\t// in\ntag_171:\n    /* \"#utility.yul\":8019:8063   */\n  swap5\n  pop\n    /* \"#utility.yul\":7361:8073   */\n  jump(tag_165)\ntag_167:\n    /* \"#utility.yul\":7231:8079   */\n  swap5\n  pop\n  swap5\n  swap3\n  pop\n  pop\n  pop\n  jump\t// out\n    /* \"#utility.yul\":8085:9158   */\ntag_77:\n    /* \"#utility.yul\":8139:8144   */\n  0x00\n    /* \"#utility.yul\":8330:8338   */\n  dup3\n    /* \"#utility.yul\":8320:8360   */\n  tag_173\n  jumpi\n    /* \"#utility.yul\":8351:8352   */\n  0x01\n    /* \"#utility.yul\":8342:8352   */\n  swap1\n  pop\n    /* \"#utility.yul\":8353:8358   */\n  jump(tag_172)\n    /* \"#utility.yul\":8320:8360   */\ntag_173:\n    /* \"#utility.yul\":8379:8383   */\n  dup2\n    /* \"#utility.yul\":8369:8405   */\n  tag_174\n  jumpi\n    /* \"#utility.yul\":8396:8397   */\n  0x00\n    /* \"#utility.yul\":8387:8397   */\n  swap1\n  pop\n    /* \"#utility.yul\":8398:8403   */\n  jump(tag_172)\n    /* \"#utility.yul\":8369:8405   */\ntag_174:\n    /* \"#utility.yul\":8465:8469   */\n  dup2\n    /* \"#utility.yul\":8513:8514   */\n  0x01\n    /* \"#utility.yul\":8508:8535   */\n  dup2\n  eq\n  tag_176\n  jumpi\n    /* \"#utility.yul\":8549:8550   */\n  0x02\n    /* \"#utility.yul\":8544:8735   */\n  dup2\n  eq\n  tag_177\n  jumpi\n    /* \"#utility.yul\":8458:8735   */\n  jump(tag_175)\n    /* \"#utility.yul\":8508:8535   */\ntag_176:\n    /* \"#utility.yul\":8526:8527   */\n  0x01\n    /* \"#utility.yul\":8517:8527   */\n  swap2\n  pop\n    /* \"#utility.yul\":8528:8533   */\n  pop\n  jump(tag_172)\n    /* \"#utility.yul\":8544:8735   */\ntag_177:\n    /* \"#utility.yul\":8589:8592   */\n  0xff\n    /* \"#utility.yul\":8579:8587   */\n  dup5\n    /* \"#utility.yul\":8576:8593   */\n  gt\n    /* \"#utility.yul\":8573:8616   */\n  iszero\n  tag_178\n  jumpi\n    /* \"#utility.yul\":8596:8614   */\n  tag_179\n  tag_74\n  jump\t// in\ntag_179:\n    /* \"#utility.yul\":8573:8616   */\ntag_178:\n    /* \"#utility.yul\":8645:8653   */\n  dup4\n    /* \"#utility.yul\":8642:8643   */\n  0x02\n    /* \"#utility.yul\":8638:8654   */\n  exp\n    /* \"#utility.yul\":8629:8654   */\n  swap2\n  pop\n    /* \"#utility.yul\":8680:8683   */\n  dup5\n    /* \"#utility.yul\":8673:8678   */\n  dup3\n    /* \"#utility.yul\":8670:8684   */\n  gt\n    /* \"#utility.yul\":8667:8707   */\n  iszero\n  tag_180\n  jumpi\n    /* \"#utility.yul\":8687:8705   */\n  tag_181\n  tag_74\n  jump\t// in\ntag_181:\n    /* \"#utility.yul\":8667:8707   */\ntag_180:\n    /* \"#utility.yul\":8720:8725   */\n  pop\n  jump(tag_172)\n    /* \"#utility.yul\":8458:8735   */\ntag_175:\n  pop\n    /* \"#utility.yul\":8844:8846   */\n  0x20\n    /* \"#utility.yul\":8834:8842   */\n  dup4\n    /* \"#utility.yul\":8831:8847   */\n  lt\n    /* \"#utility.yul\":8825:8828   */\n  0x0133\n    /* \"#utility.yul\":8819:8823   */\n  dup4\n    /* \"#utility.yul\":8816:8829   */\n  lt\n    /* \"#utility.yul\":8812:8848   */\n  and\n    /* \"#utility.yul\":8794:8796   */\n  0x4e\n    /* \"#utility.yul\":8784:8792   */\n  dup5\n    /* \"#utility.yul\":8781:8797   */\n  lt\n    /* \"#utility.yul\":8776:8778   */\n  0x0b\n    /* \"#utility.yul\":8770:8774   */\n  dup5\n    /* \"#utility.yul\":8767:8779   */\n  lt\n    /* \"#utility.yul\":8763:8798   */\n  and\n    /* \"#utility.yul\":8747:8858   */\n  or\n    /* \"#utility.yul\":8744:8990   */\n  iszero\n  tag_182\n  jumpi\n    /* \"#utility.yul\":8900:8908   */\n  dup3\n    /* \"#utility.yul\":8894:8898   */\n  dup3\n    /* \"#utility.yul\":8890:8909   */\n  exp\n    /* \"#utility.yul\":8881:8909   */\n  swap1\n  pop\n    /* \"#utility.yul\":8935:8938   */\n  dup4\n    /* \"#utility.yul\":8928:8933   */\n  dup2\n    /* \"#utility.yul\":8925:8939   */\n  gt\n    /* \"#utility.yul\":8922:8962   */\n  iszero\n  tag_183\n  jumpi\n    /* \"#utility.yul\":8942:8960   */\n  tag_184\n  tag_74\n  jump\t// in\ntag_184:\n    /* \"#utility.yul\":8922:8962   */\ntag_183:\n    /* \"#utility.yul\":8975:8980   */\n  jump(tag_172)\n    /* \"#utility.yul\":8744:8990   */\ntag_182:\n    /* \"#utility.yul\":9015:9057   */\n  tag_185\n    /* \"#utility.yul\":9053:9056   */\n  dup5\n    /* \"#utility.yul\":9043:9051   */\n  dup5\n    /* \"#utility.yul\":9037:9041   */\n  dup5\n    /* \"#utility.yul\":9034:9035   */\n  0x01\n    /* \"#utility.yul\":9015:9057   */\n  tag_76\n  jump\t// in\ntag_185:\n    /* \"#utility.yul\":9000:9057   */\n  swap3\n  pop\n  swap1\n  pop\n    /* \"#utility.yul\":9089:9093   */\n  dup2\n    /* \"#utility.yul\":9084:9087   */\n  dup5\n    /* \"#utility.yul\":9080:9094   */\n  div\n    /* \"#utility.yul\":9073:9078   */\n  dup2\n    /* \"#utility.yul\":9070:9095   */\n  gt\n    /* \"#utility.yul\":9067:9118   */\n  iszero\n  tag_186\n  jumpi\n    /* \"#utility.yul\":9098:9116   */\n  tag_187\n  tag_74\n  jump\t// in\ntag_187:\n    /* \"#utility.yul\":9067:9118   */\ntag_186:\n    /* \"#utility.yul\":9147:9151   */\n  dup2\n    /* \"#utility.yul\":9140:9145   */\n  dup2\n    /* \"#utility.yul\":9136:9152   */\n  mul\n    /* \"#utility.yul\":9127:9152   */\n  swap1\n  pop\n    /* \"#utility.yul\":8085:9158   */\ntag_172:\n  swap4\n  swap3\n  pop\n  pop\n  pop\n  jump\t// out\n    /* \"#utility.yul\":9164:9250   */\ntag_78:\n    /* \"#utility.yul\":9199:9206   */\n  0x00\n    /* \"#utility.yul\":9239:9243   */\n  0xff\n    /* \"#utility.yul\":9232:9237   */\n  dup3\n    /* \"#utility.yul\":9228:9244   */\n  and\n    /* \"#utility.yul\":9217:9244   */\n  swap1\n  pop\n    /* \"#utility.yul\":9164:9250   */\n  swap2\n  swap1\n  pop\n  jump\t// out\n    /* \"#utility.yul\":9256:9537   */\ntag_22:\n    /* \"#utility.yul\":9314:9319   */\n  0x00\n    /* \"#utility.yul\":9338:9361   */\n  tag_190\n    /* \"#utility.yul\":9356:9360   */\n  dup3\n    /* \"#utility.yul\":9338:9361   */\n  tag_61\n  jump\t// in\ntag_190:\n    /* \"#utility.yul\":9330:9361   */\n  swap2\n  pop\n    /* \"#utility.yul\":9382:9407   */\n  tag_191\n    /* \"#utility.yul\":9398:9406   */\n  dup4\n    /* \"#utility.yul\":9382:9407   */\n  tag_78\n  jump\t// in\ntag_191:\n    /* \"#utility.yul\":9370:9407   */\n  swap3\n  pop\n    /* \"#utility.yul\":9426:9530   */\n  tag_192\n    /* \"#utility.yul\":9463:9529   */\n  0xffffffffffffffffffffffffffffffffffffffffffffffffffffffffffffffff\n    /* \"#utility.yul\":9453:9461   */\n  dup5\n    /* \"#utility.yul\":9447:9451   */\n  dup5\n    /* \"#utility.yul\":9426:9530   */\n  tag_77\n  jump\t// in\ntag_192:\n    /* \"#utility.yul\":9417:9530   */\n  swap1\n  pop\n    /* \"#utility.yul\":9256:9537   */\n  swap3\n  swap2\n  pop\n  pop\n  jump\t// out\n    /* \"#utility.yul\":9543:9953   */\ntag_24:\n    /* \"#utility.yul\":9583:9590   */\n  0x00\n    /* \"#utility.yul\":9606:9626   */\n  tag_194\n    /* \"#utility.yul\":9624:9625   */\n  dup3\n    /* \"#utility.yul\":9606:9626   */\n  tag_61\n  jump\t// in\ntag_194:\n    /* \"#utility.yul\":9601:9626   */\n  swap2\n  pop\n    /* \"#utility.yul\":9640:9660   */\n  tag_195\n    /* \"#utility.yul\":9658:9659   */\n  dup4\n    /* \"#utility.yul\":9640:9660   */\n  tag_61\n  jump\t// in\ntag_195:\n    /* \"#utility.yul\":9635:9660   */\n  swap3\n  pop\n    /* \"#utility.yul\":9695:9696   */\n  dup3\n    /* \"#utility.yul\":9692:9693   */\n  dup3\n    /* \"#utility.yul\":9688:9697   */\n  mul\n    /* \"#utility.yul\":9717:9747   */\n  tag_196\n    /* \"#utility.yul\":9735:9746   */\n  dup2\n    /* \"#utility.yul\":9717:9747   */\n  tag_61\n  jump\t// in\ntag_196:\n    /* \"#utility.yul\":9706:9747   */\n  swap2\n  pop\n    /* \"#utility.yul\":9896:9897   */\n  dup3\n    /* \"#utility.yul\":9887:9894   */\n  dup3\n    /* \"#utility.yul\":9883:9898   */\n  div\n    /* \"#utility.yul\":9880:9881   */\n  dup5\n    /* \"#utility.yul\":9877:9899   */\n  eq\n    /* \"#utility.yul\":9857:9858   */\n  dup4\n    /* \"#utility.yul\":9850:9859   */\n  iszero\n    /* \"#utility.yul\":9830:9913   */\n  or\n    /* \"#utility.yul\":9807:9946   */\n  tag_197\n  jumpi\n    /* \"#utility.yul\":9926:9944   */\n  tag_198\n  tag_74\n  jump\t// in\ntag_198:\n    /* \"#utility.yul\":9807:9946   */\ntag_197:\n    /* \"#utility.yul\":9591:9953   */\n  pop\n    /* \"#utility.yul\":9543:9953   */\n  swap3\n  swap2\n  pop\n  pop\n  jump\t// out\n    /* \"#utility.yul\":9959:10150   */\ntag_37:\n    /* \"#utility.yul\":9999:10002   */\n  0x00\n    /* \"#utility.yul\":10018:10038   */\n  tag_200\n    /* \"#utility.yul\":10036:10037   */\n  dup3\n    /* \"#utility.yul\":10018:10038   */\n  tag_61\n  jump\t// in\ntag_200:\n    /* \"#utility.yul\":10013:10038   */\n  swap2\n  pop\n    /* \"#utility.yul\":10052:10072   */\n  tag_201\n    /* \"#utility.yul\":10070:10071   */\n  dup4\n    /* \"#utility.yul\":10052:10072   */\n  tag_61\n  jump\t// in\ntag_201:\n    /* \"#utility.yul\":10047:10072   */\n  swap3\n  pop\n    /* \"#utility.yul\":10095:10096   */\n  dup3\n    /* \"#utility.yul\":10092:10093   */\n  dup3\n    /* \"#utility.yul\":10088:10097   */\n  add\n    /* \"#utility.yul\":10081:10097   */\n  swap1\n  pop\n    /* \"#utility.yul\":10116:10119   */\n  dup1\n    /* \"#utility.yul\":10113:10114   */\n  dup3\n    /* \"#utility.yul\":10110:10120   */\n  gt\n    /* \"#utility.yul\":10107:10143   */\n  iszero\n  tag_202\n  jumpi\n    /* \"#utility.yul\":10123:10141   */\n  tag_203\n  tag_74\n  jump\t// in\ntag_203:\n    /* \"#utility.yul\":10107:10143   */\ntag_202:\n    /* \"#utility.yul\":9959:10150   */\n  swap3\n  swap2\n  pop\n  pop\n  jump\t// out\n    /* \"#utility.yul\":10156:10274   */\ntag_79:\n    /* \"#utility.yul\":10243:10267   */\n  tag_205\n    /* \"#utility.yul\":10261:10266   */\n  dup2\n    /* \"#utility.yul\":10243:10267   */\n  tag_61\n  jump\t// in\ntag_205:\n    /* \"#utility.yul\":10238:10241   */\n  dup3\n    /* \"#utility.yul\":10231:10268   */\n  mstore\n    /* \"#utility.yul\":10156:10274   */\n  pop\n  pop\n  jump\t// out\n    /* \"#utility.yul\":10280:10722   */\ntag_41:\n    /* \"#utility.yul\":10429:10433   */\n  0x00\n    /* \"#utility.yul\":10467:10469   */\n  0x60\n    /* \"#utility.yul\":10456:10465   */\n  dup3\n    /* \"#utility.yul\":10452:10470   */\n  add\n    /* \"#utility.yul\":10444:10470   */\n  swap1\n  pop\n    /* \"#utility.yul\":10480:10551   */\n  tag_207\n    /* \"#utility.yul\":10548:10549   */\n  0x00\n    /* \"#utility.yul\":10537:10546   */\n  dup4\n    /* \"#utility.yul\":10533:10550   */\n  add\n    /* \"#utility.yul\":10524:10530   */\n  dup7\n    /* \"#utility.yul\":10480:10551   */\n  tag_73\n  jump\t// in\ntag_207:\n    /* \"#utility.yul\":10561:10633   */\n  tag_208\n    /* \"#utility.yul\":10629:10631   */\n  0x20\n    /* \"#utility.yul\":10618:10627   */\n  dup4\n    /* \"#utility.yul\":10614:10632   */\n  add\n    /* \"#utility.yul\":10605:10611   */\n  dup6\n    /* \"#utility.yul\":10561:10633   */\n  tag_79\n  jump\t// in\ntag_208:\n    /* \"#utility.yul\":10643:10715   */\n  tag_209\n    /* \"#utility.yul\":10711:10713   */\n  0x40\n    /* \"#utility.yul\":10700:10709   */\n  dup4\n    /* \"#utility.yul\":10696:10714   */\n  add\n    /* \"#utility.yul\":10687:10693   */\n  dup5\n    /* \"#utility.yul\":10643:10715   */\n  tag_79\n  jump\t// in\ntag_209:\n    /* \"#utility.yul\":10280:10722   */\n  swap5\n  swap4\n  pop\n  pop\n  pop\n  pop\n  jump\t// out\n    /* \"#utility.yul\":10728:10950   */\ntag_45:\n    /* \"#utility.yul\":10821:10825   */\n  0x00\n    /* \"#utility.yul\":10859:10861   */\n  0x20\n    /* \"#utility.yul\":10848:10857   */\n  dup3\n    /* \"#utility.yul\":10844:10862   */\n  add\n    /* \"#utility.yul\":10836:10862   */\n  swap1\n  pop\n    /* \"#utility.yul\":10872:10943   */\n  tag_211\n    /* \"#utility.yul\":10940:10941   */\n  0x00\n    /* \"#utility.yul\":10929:10938   */\n  dup4\n    /* \"#utility.yul\":10925:10942   */\n  add\n    /* \"#utility.yul\":10916:10922   */\n  dup5\n    /* \"#utility.yul\":10872:10943   */\n  tag_79\n  jump\t// in\ntag_211:\n    /* \"#utility.yul\":10728:10950   */\n  swap3\n  swap2\n  pop\n  pop\n  jump\t// out\n    /* \"contracts/YoppenTokenModified.sol\":174:1065  contract YoppenTokenModified is ERC20, Ownable {... */\ntag_26:\n  dataSize(sub_0)\n  dup1\n  dataOffset(sub_0)\n  0x00\n  codecopy\n  0x00\n  return\nstop\n\nsub_0: assembly {\n        /* \"contracts/YoppenTokenModified.sol\":174:1065  contract YoppenTokenModified is ERC20, Ownable {... */\n      mstore(0x40, 0x80)\n      callvalue\n      dup1\n      iszero\n      tag_1\n      jumpi\n      0x00\n      dup1\n      revert\n    tag_1:\n      pop\n      jumpi(tag_2, lt(calldatasize, 0x04))\n      shr(0xe0, calldataload(0x00))\n      dup1\n      0x715018a6\n      gt\n      tag_17\n      jumpi\n      dup1\n      0xa9059cbb\n      gt\n      tag_18\n      jumpi\n      dup1\n      0xa9059cbb\n      eq\n      tag_13\n      jumpi\n      dup1\n      0xc5f956af\n      eq\n      tag_14\n      jumpi\n      dup1\n      0xdd62ed3e\n      eq\n      tag_15\n      jumpi\n      dup1\n      0xf2fde38b\n      eq\n      tag_16\n      jumpi\n      jump(tag_2)\n    tag_18:\n      dup1\n      0x715018a6\n      eq\n      tag_10\n      jumpi\n      dup1\n      0x8da5cb5b\n      eq\n      tag_11\n      jumpi\n      dup1\n      0x95d89b41\n      eq\n      tag_12\n      jumpi\n      jump(tag_2)\n    tag_17:\n      dup1\n      0x23b872dd\n      gt\n      tag_19\n      jumpi\n      dup1\n      0x23b872dd\n      eq\n      tag_6\n      jumpi\n      dup1\n      0x313ce567\n      eq\n      tag_7\n      jumpi\n      dup1\n      0x5ea1d6f8\n      eq\n      tag_8\n      jumpi\n      dup1\n      0x70a08231\n      eq\n      tag_9\n      jumpi\n      jump(tag_2)\n    tag_19:\n      dup1\n      0x06fdde03\n      eq\n      tag_3\n      jumpi\n      dup1\n      0x095ea7b3\n      eq\n      tag_4\n      jumpi\n      dup1\n      0x18160ddd\n      eq\n      tag_5\n      jumpi\n    tag_2:\n      0x00\n      dup1\n      revert\n        /* \"@openzeppelin/contracts/token/ERC20/ERC20.sol\":2074:2163  function name() public view virtual returns (string memory) {... */\n    tag_3:\n      tag_20\n      tag_21\n      jump\t// in\n    tag_20:\n      mload(0x40)\n      tag_22\n      swap2\n      swap1\n      tag_23\n      jump\t// in\n    tag_22:\n      mload(0x40)\n      dup1\n      swap2\n      sub\n      swap1\n      return\n        /* \"@openzeppelin/contracts/token/ERC20/ERC20.sol\":4293:4479  function approve(address spender, uint256 value) public virtual returns (bool) {... */\n    tag_4:\n      tag_24\n      0x04\n      dup1\n      calldatasize\n      sub\n      dup2\n      add\n      swap1\n      tag_25\n      swap2\n      swap1\n      tag_26\n      jump\t// in\n    tag_25:\n      tag_27\n      jump\t// in\n    tag_24:\n      mload(0x40)\n      tag_28\n      swap2\n      swap1\n      tag_29\n      jump\t// in\n    tag_28:\n      mload(0x40)\n      dup1\n      swap2\n      sub\n      swap1\n      return\n        /* \"@openzeppelin/contracts/token/ERC20/ERC20.sol\":3144:3241  function totalSupply() public view virtual returns (uint256) {... */\n    tag_5:\n      tag_30\n      tag_31\n      jump\t// in\n    tag_30:\n      mload(0x40)\n      tag_32\n      swap2\n      swap1\n      tag_33\n      jump\t// in\n    tag_32:\n      mload(0x40)\n      dup1\n      swap2\n      sub\n      swap1\n      return\n        /* \"@openzeppelin/contracts/token/ERC20/ERC20.sol\":5039:5283  function transferFrom(address from, address to, uint256 value) public virtual returns (bool) {... */\n    tag_6:\n      tag_34\n      0x04\n      dup1\n      calldatasize\n      sub\n      dup2\n      add\n      swap1\n      tag_35\n      swap2\n      swap1\n      tag_36\n      jump\t// in\n    tag_35:\n      tag_37\n      jump\t// in\n    tag_34:\n      mload(0x40)\n      tag_38\n      swap2\n      swap1\n      tag_29\n      jump\t// in\n    tag_38:\n      mload(0x40)\n      dup1\n      swap2\n      sub\n      swap1\n      return\n        /* \"@openzeppelin/contracts/token/ERC20/ERC20.sol\":3002:3084  function decimals() public view virtual returns (uint8) {... */\n    tag_7:\n      tag_39\n      tag_40\n      jump\t// in\n    tag_39:\n      mload(0x40)\n      tag_41\n      swap2\n      swap1\n      tag_42\n      jump\t// in\n    tag_41:\n      mload(0x40)\n      dup1\n      swap2\n      sub\n      swap1\n      return\n        /* \"contracts/YoppenTokenModified.sol\":228:263  uint256 public commissionRate = 100 */\n    tag_8:\n      tag_43\n      tag_44\n      jump\t// in\n    tag_43:\n      mload(0x40)\n      tag_45\n      swap2\n      swap1\n      tag_33\n      jump\t// in\n    tag_45:\n      mload(0x40)\n      dup1\n      swap2\n      sub\n      swap1\n      return\n        /* \"@openzeppelin/contracts/token/ERC20/ERC20.sol\":3299:3415  function balanceOf(address account) public view virtual returns (uint256) {... */\n    tag_9:\n      tag_46\n      0x04\n      dup1\n      calldatasize\n      sub\n      dup2\n      add\n      swap1\n      tag_47\n      swap2\n      swap1\n      tag_48\n      jump\t// in\n    tag_47:\n      tag_49\n      jump\t// in\n    tag_46:\n      mload(0x40)\n      tag_50\n      swap2\n      swap1\n      tag_33\n      jump\t// in\n    tag_50:\n      mload(0x40)\n      dup1\n      swap2\n      sub\n      swap1\n      return\n        /* \"@openzeppelin/contracts/access/Ownable.sol\":2293:2394  function renounceOwnership() public virtual onlyOwner {... */\n    tag_10:\n      tag_51\n      tag_52\n      jump\t// in\n    tag_51:\n      stop\n        /* \"@openzeppelin/contracts/access/Ownable.sol\":1638:1723  function owner() public view virtual returns (address) {... */\n    tag_11:\n      tag_53\n      tag_54\n      jump\t// in\n    tag_53:\n      mload(0x40)\n      tag_55\n      swap2\n      swap1\n      tag_56\n      jump\t// in\n    tag_55:\n      mload(0x40)\n      dup1\n      swap2\n      sub\n      swap1\n      return\n        /* \"@openzeppelin/contracts/token/ERC20/ERC20.sol\":2276:2369  function symbol() public view virtual returns (string memory) {... */\n    tag_12:\n      tag_57\n      tag_58\n      jump\t// in\n    tag_57:\n      mload(0x40)\n      tag_59\n      swap2\n      swap1\n      tag_23\n      jump\t// in\n    tag_59:\n      mload(0x40)\n      dup1\n      swap2\n      sub\n      swap1\n      return\n        /* \"contracts/YoppenTokenModified.sol\":594:1062  function transfer(address recipient, uint256 amount) public override returns (bool) {... */\n    tag_13:\n      tag_60\n      0x04\n      dup1\n      calldatasize\n      sub\n      dup2\n      add\n      swap1\n      tag_61\n      swap2\n      swap1\n      tag_26\n      jump\t// in\n    tag_61:\n      tag_62\n      jump\t// in\n    tag_60:\n      mload(0x40)\n      tag_63\n      swap2\n      swap1\n      tag_29\n      jump\t// in\n    tag_63:\n      mload(0x40)\n      dup1\n      swap2\n      sub\n      swap1\n      return\n        /* \"contracts/YoppenTokenModified.sol\":329:359  address public treasuryAddress */\n    tag_14:\n      tag_64\n      tag_65\n      jump\t// in\n    tag_64:\n      mload(0x40)\n      tag_66\n      swap2\n      swap1\n      tag_56\n      jump\t// in\n    tag_66:\n      mload(0x40)\n      dup1\n      swap2\n      sub\n      swap1\n      return\n        /* \"@openzeppelin/contracts/token/ERC20/ERC20.sol\":3846:3986  function allowance(address owner, address spender) public view virtual returns (uint256) {... */\n    tag_15:\n      tag_67\n      0x04\n      dup1\n      calldatasize\n      sub\n      dup2\n      add\n      swap1\n      tag_68\n      swap2\n      swap1\n      tag_69\n      jump\t// in\n    tag_68:\n      tag_70\n      jump\t// in\n    tag_67:\n      mload(0x40)\n      tag_71\n      swap2\n      swap1\n      tag_33\n      jump\t// in\n    tag_71:\n      mload(0x40)\n      dup1\n      swap2\n      sub\n      swap1\n      return\n        /* \"@openzeppelin/contracts/access/Ownable.sol\":2543:2758  function transferOwnership(address newOwner) public virtual onlyOwner {... */\n    tag_16:\n      tag_72\n      0x04\n      dup1\n      calldatasize\n      sub\n      dup2\n      add\n      swap1\n      tag_73\n      swap2\n      swap1\n      tag_48\n      jump\t// in\n    tag_73:\n      tag_74\n      jump\t// in\n    tag_72:\n      stop\n        /* \"@openzeppelin/contracts/token/ERC20/ERC20.sol\":2074:2163  function name() public view virtual returns (string memory) {... */\n    tag_21:\n        /* \"@openzeppelin/contracts/token/ERC20/ERC20.sol\":2119:2132  string memory */\n      0x60\n        /* \"@openzeppelin/contracts/token/ERC20/ERC20.sol\":2151:2156  _name */\n      0x03\n        /* \"@openzeppelin/contracts/token/ERC20/ERC20.sol\":2144:2156  return _name */\n      dup1\n      sload\n      tag_76\n      swap1\n      tag_77\n      jump\t// in\n    tag_76:\n      dup1\n      0x1f\n      add\n      0x20\n      dup1\n      swap2\n      div\n      mul\n      0x20\n      add\n      mload(0x40)\n      swap1\n      dup2\n      add\n      0x40\n      mstore\n      dup1\n      swap3\n      swap2\n      swap1\n      dup2\n      dup2\n      mstore\n      0x20\n      add\n      dup3\n      dup1\n      sload\n      tag_78\n      swap1\n      tag_77\n      jump\t// in\n    tag_78:\n      dup1\n      iszero\n      tag_79\n      jumpi\n      dup1\n      0x1f\n      lt\n      tag_80\n      jumpi\n      0x0100\n      dup1\n      dup4\n      sload\n      div\n      mul\n      dup4\n      mstore\n      swap2\n      0x20\n      add\n      swap2\n      jump(tag_79)\n    tag_80:\n      dup3\n      add\n      swap2\n      swap1\n      0x00\n      mstore\n      keccak256(0x00, 0x20)\n      swap1\n    tag_81:\n      dup2\n      sload\n      dup2\n      mstore\n      swap1\n      0x01\n      add\n      swap1\n      0x20\n      add\n      dup1\n      dup4\n      gt\n      tag_81\n      jumpi\n      dup3\n      swap1\n      sub\n      0x1f\n      and\n      dup3\n      add\n      swap2\n    tag_79:\n      pop\n      pop\n      pop\n      pop\n      pop\n      swap1\n      pop\n        /* \"@openzeppelin/contracts/token/ERC20/ERC20.sol\":2074:2163  function name() public view virtual returns (string memory) {... */\n      swap1\n      jump\t// out\n        /* \"@openzeppelin/contracts/token/ERC20/ERC20.sol\":4293:4479  function approve(address spender, uint256 value) public virtual returns (bool) {... */\n    tag_27:\n        /* \"@openzeppelin/contracts/token/ERC20/ERC20.sol\":4366:4370  bool */\n      0x00\n        /* \"@openzeppelin/contracts/token/ERC20/ERC20.sol\":4382:4395  address owner */\n      dup1\n        /* \"@openzeppelin/contracts/token/ERC20/ERC20.sol\":4398:4410  _msgSender() */\n      tag_83\n        /* \"@openzeppelin/contracts/token/ERC20/ERC20.sol\":4398:4408  _msgSender */\n      tag_84\n        /* \"@openzeppelin/contracts/token/ERC20/ERC20.sol\":4398:4410  _msgSender() */\n      jump\t// in\n    tag_83:\n        /* \"@openzeppelin/contracts/token/ERC20/ERC20.sol\":4382:4410  address owner = _msgSender() */\n      swap1\n      pop\n        /* \"@openzeppelin/contracts/token/ERC20/ERC20.sol\":4420:4451  _approve(owner, spender, value) */\n      tag_85\n        /* \"@openzeppelin/contracts/token/ERC20/ERC20.sol\":4429:4434  owner */\n      dup2\n        /* \"@openzeppelin/contracts/token/ERC20/ERC20.sol\":4436:4443  spender */\n      dup6\n        /* \"@openzeppelin/contracts/token/ERC20/ERC20.sol\":4445:4450  value */\n      dup6\n        /* \"@openzeppelin/contracts/token/ERC20/ERC20.sol\":4420:4428  _approve */\n      tag_86\n        /* \"@openzeppelin/contracts/token/ERC20/ERC20.sol\":4420:4451  _approve(owner, spender, value) */\n      jump\t// in\n    tag_85:\n        /* \"@openzeppelin/contracts/token/ERC20/ERC20.sol\":4468:4472  true */\n      0x01\n        /* \"@openzeppelin/contracts/token/ERC20/ERC20.sol\":4461:4472  return true */\n      swap2\n      pop\n      pop\n        /* \"@openzeppelin/contracts/token/ERC20/ERC20.sol\":4293:4479  function approve(address spender, uint256 value) public virtual returns (bool) {... */\n      swap3\n      swap2\n      pop\n      pop\n      jump\t// out\n        /* \"@openzeppelin/contracts/token/ERC20/ERC20.sol\":3144:3241  function totalSupply() public view virtual returns (uint256) {... */\n    tag_31:\n        /* \"@openzeppelin/contracts/token/ERC20/ERC20.sol\":3196:3203  uint256 */\n      0x00\n        /* \"@openzeppelin/contracts/token/ERC20/ERC20.sol\":3222:3234  _totalSupply */\n      sload(0x02)\n        /* \"@openzeppelin/contracts/token/ERC20/ERC20.sol\":3215:3234  return _totalSupply */\n      swap1\n      pop\n        /* \"@openzeppelin/contracts/token/ERC20/ERC20.sol\":3144:3241  function totalSupply() public view virtual returns (uint256) {... */\n      swap1\n      jump\t// out\n        /* \"@openzeppelin/contracts/token/ERC20/ERC20.sol\":5039:5283  function transferFrom(address from, address to, uint256 value) public virtual returns (bool) {... */\n    tag_37:\n        /* \"@openzeppelin/contracts/token/ERC20/ERC20.sol\":5126:5130  bool */\n      0x00\n        /* \"@openzeppelin/contracts/token/ERC20/ERC20.sol\":5142:5157  address spender */\n      dup1\n        /* \"@openzeppelin/contracts/token/ERC20/ERC20.sol\":5160:5172  _msgSender() */\n      tag_89\n        /* \"@openzeppelin/contracts/token/ERC20/ERC20.sol\":5160:5170  _msgSender */\n      tag_84\n        /* \"@openzeppelin/contracts/token/ERC20/ERC20.sol\":5160:5172  _msgSender() */\n      jump\t// in\n    tag_89:\n        /* \"@openzeppelin/contracts/token/ERC20/ERC20.sol\":5142:5172  address spender = _msgSender() */\n      swap1\n      pop\n        /* \"@openzeppelin/contracts/token/ERC20/ERC20.sol\":5182:5219  _spendAllowance(from, spender, value) */\n      tag_90\n        /* \"@openzeppelin/contracts/token/ERC20/ERC20.sol\":5198:5202  from */\n      dup6\n        /* \"@openzeppelin/contracts/token/ERC20/ERC20.sol\":5204:5211  spender */\n      dup3\n        /* \"@openzeppelin/contracts/token/ERC20/ERC20.sol\":5213:5218  value */\n      dup6\n        /* \"@openzeppelin/contracts/token/ERC20/ERC20.sol\":5182:5197  _spendAllowance */\n      tag_91\n        /* \"@openzeppelin/contracts/token/ERC20/ERC20.sol\":5182:5219  _spendAllowance(from, spender, value) */\n      jump\t// in\n    tag_90:\n        /* \"@openzeppelin/contracts/token/ERC20/ERC20.sol\":5229:5255  _transfer(from, to, value) */\n      tag_92\n        /* \"@openzeppelin/contracts/token/ERC20/ERC20.sol\":5239:5243  from */\n      dup6\n        /* \"@openzeppelin/contracts/token/ERC20/ERC20.sol\":5245:5247  to */\n      dup6\n        /* \"@openzeppelin/contracts/token/ERC20/ERC20.sol\":5249:5254  value */\n      dup6\n        /* \"@openzeppelin/contracts/token/ERC20/ERC20.sol\":5229:5238  _transfer */\n      tag_93\n        /* \"@openzeppelin/contracts/token/ERC20/ERC20.sol\":5229:5255  _transfer(from, to, value) */\n      jump\t// in\n    tag_92:\n        /* \"@openzeppelin/contracts/token/ERC20/ERC20.sol\":5272:5276  true */\n      0x01\n        /* \"@openzeppelin/contracts/token/ERC20/ERC20.sol\":5265:5276  return true */\n      swap2\n      pop\n      pop\n        /* \"@openzeppelin/contracts/token/ERC20/ERC20.sol\":5039:5283  function transferFrom(address from, address to, uint256 value) public virtual returns (bool) {... */\n      swap4\n      swap3\n      pop\n      pop\n      pop\n      jump\t// out\n        /* \"@openzeppelin/contracts/token/ERC20/ERC20.sol\":3002:3084  function decimals() public view virtual returns (uint8) {... */\n    tag_40:\n        /* \"@openzeppelin/contracts/token/ERC20/ERC20.sol\":3051:3056  uint8 */\n      0x00\n        /* \"@openzeppelin/contracts/token/ERC20/ERC20.sol\":3075:3077  18 */\n      0x12\n        /* \"@openzeppelin/contracts/token/ERC20/ERC20.sol\":3068:3077  return 18 */\n      swap1\n      pop\n        /* \"@openzeppelin/contracts/token/ERC20/ERC20.sol\":3002:3084  function decimals() public view virtual returns (uint8) {... */\n      swap1\n      jump\t// out\n        /* \"contracts/YoppenTokenModified.sol\":228:263  uint256 public commissionRate = 100 */\n    tag_44:\n      sload(0x06)\n      dup2\n      jump\t// out\n        /* \"@openzeppelin/contracts/token/ERC20/ERC20.sol\":3299:3415  function balanceOf(address account) public view virtual returns (uint256) {... */\n    tag_49:\n        /* \"@openzeppelin/contracts/token/ERC20/ERC20.sol\":3364:3371  uint256 */\n      0x00\n        /* \"@openzeppelin/contracts/token/ERC20/ERC20.sol\":3390:3399  _balances */\n      dup1\n        /* \"@openzeppelin/contracts/token/ERC20/ERC20.sol\":3390:3408  _balances[account] */\n      0x00\n        /* \"@openzeppelin/contracts/token/ERC20/ERC20.sol\":3400:3407  account */\n      dup4\n        /* \"@openzeppelin/contracts/token/ERC20/ERC20.sol\":3390:3408  _balances[account] */\n      0xffffffffffffffffffffffffffffffffffffffff\n      and\n      0xffffffffffffffffffffffffffffffffffffffff\n      and\n      dup2\n      mstore\n      0x20\n      add\n      swap1\n      dup2\n      mstore\n      0x20\n      add\n      0x00\n      keccak256\n      sload\n        /* \"@openzeppelin/contracts/token/ERC20/ERC20.sol\":3383:3408  return _balances[account] */\n      swap1\n      pop\n        /* \"@openzeppelin/contracts/token/ERC20/ERC20.sol\":3299:3415  function balanceOf(address account) public view virtual returns (uint256) {... */\n      swap2\n      swap1\n      pop\n      jump\t// out\n        /* \"@openzeppelin/contracts/access/Ownable.sol\":2293:2394  function renounceOwnership() public virtual onlyOwner {... */\n    tag_52:\n        /* \"@openzeppelin/contracts/access/Ownable.sol\":1531:1544  _checkOwner() */\n      tag_97\n        /* \"@openzeppelin/contracts/access/Ownable.sol\":1531:1542  _checkOwner */\n      tag_98\n        /* \"@openzeppelin/contracts/access/Ownable.sol\":1531:1544  _checkOwner() */\n      jump\t// in\n    tag_97:\n        /* \"@openzeppelin/contracts/access/Ownable.sol\":2357:2387  _transferOwnership(address(0)) */\n      tag_100\n        /* \"@openzeppelin/contracts/access/Ownable.sol\":2384:2385  0 */\n      0x00\n        /* \"@openzeppelin/contracts/access/Ownable.sol\":2357:2375  _transferOwnership */\n      tag_101\n        /* \"@openzeppelin/contracts/access/Ownable.sol\":2357:2387  _transferOwnership(address(0)) */\n      jump\t// in\n    tag_100:\n        /* \"@openzeppelin/contracts/access/Ownable.sol\":2293:2394  function renounceOwnership() public virtual onlyOwner {... */\n      jump\t// out\n        /* \"@openzeppelin/contracts/access/Ownable.sol\":1638:1723  function owner() public view virtual returns (address) {... */\n    tag_54:\n        /* \"@openzeppelin/contracts/access/Ownable.sol\":1684:1691  address */\n      0x00\n        /* \"@openzeppelin/contracts/access/Ownable.sol\":1710:1716  _owner */\n      0x05\n      0x00\n      swap1\n      sload\n      swap1\n      0x0100\n      exp\n      swap1\n      div\n      0xffffffffffffffffffffffffffffffffffffffff\n      and\n        /* \"@openzeppelin/contracts/access/Ownable.sol\":1703:1716  return _owner */\n      swap1\n      pop\n        /* \"@openzeppelin/contracts/access/Ownable.sol\":1638:1723  function owner() public view virtual returns (address) {... */\n      swap1\n      jump\t// out\n        /* \"@openzeppelin/contracts/token/ERC20/ERC20.sol\":2276:2369  function symbol() public view virtual returns (string memory) {... */\n    tag_58:\n        /* \"@openzeppelin/contracts/token/ERC20/ERC20.sol\":2323:2336  string memory */\n      0x60\n        /* \"@openzeppelin/contracts/token/ERC20/ERC20.sol\":2355:2362  _symbol */\n      0x04\n        /* \"@openzeppelin/contracts/token/ERC20/ERC20.sol\":2348:2362  return _symbol */\n      dup1\n      sload\n      tag_104\n      swap1\n      tag_77\n      jump\t// in\n    tag_104:\n      dup1\n      0x1f\n      add\n      0x20\n      dup1\n      swap2\n      div\n      mul\n      0x20\n      add\n      mload(0x40)\n      swap1\n      dup2\n      add\n      0x40\n      mstore\n      dup1\n      swap3\n      swap2\n      swap1\n      dup2\n      dup2\n      mstore\n      0x20\n      add\n      dup3\n      dup1\n      sload\n      tag_105\n      swap1\n      tag_77\n      jump\t// in\n    tag_105:\n      dup1\n      iszero\n      tag_106\n      jumpi\n      dup1\n      0x1f\n      lt\n      tag_107\n      jumpi\n      0x0100\n      dup1\n      dup4\n      sload\n      div\n      mul\n      dup4\n      mstore\n      swap2\n      0x20\n      add\n      swap2\n      jump(tag_106)\n    tag_107:\n      dup3\n      add\n      swap2\n      swap1\n      0x00\n      mstore\n      keccak256(0x00, 0x20)\n      swap1\n    tag_108:\n      dup2\n      sload\n      dup2\n      mstore\n      swap1\n      0x01\n      add\n      swap1\n      0x20\n      add\n      dup1\n      dup4\n      gt\n      tag_108\n      jumpi\n      dup3\n      swap1\n      sub\n      0x1f\n      and\n      dup3\n      add\n      swap2\n    tag_106:\n      pop\n      pop\n      pop\n      pop\n      pop\n      swap1\n      pop\n        /* \"@openzeppelin/contracts/token/ERC20/ERC20.sol\":2276:2369  function symbol() public view virtual returns (string memory) {... */\n      swap1\n      jump\t// out\n        /* \"contracts/YoppenTokenModified.sol\":594:1062  function transfer(address recipient, uint256 amount) public override returns (bool) {... */\n    tag_62:\n        /* \"contracts/YoppenTokenModified.sol\":672:676  bool */\n      0x00\n        /* \"contracts/YoppenTokenModified.sol\":689:707  uint256 commission */\n      dup1\n        /* \"contracts/YoppenTokenModified.sol\":738:743  10000 */\n      0x2710\n        /* \"contracts/YoppenTokenModified.sol\":720:734  commissionRate */\n      sload(0x06)\n        /* \"contracts/YoppenTokenModified.sol\":711:717  amount */\n      dup5\n        /* \"contracts/YoppenTokenModified.sol\":711:734  amount * commissionRate */\n      tag_110\n      swap2\n      swap1\n      tag_111\n      jump\t// in\n    tag_110:\n        /* \"contracts/YoppenTokenModified.sol\":710:743  (amount * commissionRate) / 10000 */\n      tag_112\n      swap2\n      swap1\n      tag_113\n      jump\t// in\n    tag_112:\n        /* \"contracts/YoppenTokenModified.sol\":689:743  uint256 commission = (amount * commissionRate) / 10000 */\n      swap1\n      pop\n        /* \"contracts/YoppenTokenModified.sol\":754:783  uint256 amountAfterCommission */\n      0x00\n        /* \"contracts/YoppenTokenModified.sol\":795:805  commission */\n      dup2\n        /* \"contracts/YoppenTokenModified.sol\":786:792  amount */\n      dup5\n        /* \"contracts/YoppenTokenModified.sol\":786:805  amount - commission */\n      tag_114\n      swap2\n      swap1\n      tag_115\n      jump\t// in\n    tag_114:\n        /* \"contracts/YoppenTokenModified.sol\":754:805  uint256 amountAfterCommission = amount - commission */\n      swap1\n      pop\n        /* \"contracts/YoppenTokenModified.sol\":860:870  commission */\n      dup2\n        /* \"contracts/YoppenTokenModified.sol\":836:857  amountAfterCommission */\n      dup2\n        /* \"contracts/YoppenTokenModified.sol\":836:870  amountAfterCommission + commission */\n      tag_116\n      swap2\n      swap1\n      tag_117\n      jump\t// in\n    tag_116:\n        /* \"contracts/YoppenTokenModified.sol\":826:832  amount */\n      dup5\n        /* \"contracts/YoppenTokenModified.sol\":826:870  amount == amountAfterCommission + commission */\n      eq\n        /* \"contracts/YoppenTokenModified.sol\":818:899  require(amount == amountAfterCommission + commission, \"Transfer amount mismatch\") */\n      tag_118\n      jumpi\n      mload(0x40)\n      0x08c379a000000000000000000000000000000000000000000000000000000000\n      dup2\n      mstore\n      0x04\n      add\n      tag_119\n      swap1\n      tag_120\n      jump\t// in\n    tag_119:\n      mload(0x40)\n      dup1\n      swap2\n      sub\n      swap1\n      revert\n    tag_118:\n        /* \"contracts/YoppenTokenModified.sol\":912:964  _transfer(_msgSender(), treasuryAddress, commission) */\n      tag_121\n        /* \"contracts/YoppenTokenModified.sol\":922:934  _msgSender() */\n      tag_122\n        /* \"contracts/YoppenTokenModified.sol\":922:932  _msgSender */\n      tag_84\n        /* \"contracts/YoppenTokenModified.sol\":922:934  _msgSender() */\n      jump\t// in\n    tag_122:\n        /* \"contracts/YoppenTokenModified.sol\":936:951  treasuryAddress */\n      0x07\n      0x00\n      swap1\n      sload\n      swap1\n      0x0100\n      exp\n      swap1\n      div\n      0xffffffffffffffffffffffffffffffffffffffff\n      and\n        /* \"contracts/YoppenTokenModified.sol\":953:963  commission */\n      dup5\n        /* \"contracts/YoppenTokenModified.sol\":912:921  _transfer */\n      tag_93\n        /* \"contracts/YoppenTokenModified.sol\":912:964  _transfer(_msgSender(), treasuryAddress, commission) */\n      jump\t// in\n    tag_121:\n        /* \"contracts/YoppenTokenModified.sol\":975:1032  _transfer(_msgSender(), recipient, amountAfterCommission) */\n      tag_123\n        /* \"contracts/YoppenTokenModified.sol\":985:997  _msgSender() */\n      tag_124\n        /* \"contracts/YoppenTokenModified.sol\":985:995  _msgSender */\n      tag_84\n        /* \"contracts/YoppenTokenModified.sol\":985:997  _msgSender() */\n      jump\t// in\n    tag_124:\n        /* \"contracts/YoppenTokenModified.sol\":999:1008  recipient */\n      dup7\n        /* \"contracts/YoppenTokenModified.sol\":1010:1031  amountAfterCommission */\n      dup4\n        /* \"contracts/YoppenTokenModified.sol\":975:984  _transfer */\n      tag_93\n        /* \"contracts/YoppenTokenModified.sol\":975:1032  _transfer(_msgSender(), recipient, amountAfterCommission) */\n      jump\t// in\n    tag_123:\n        /* \"contracts/YoppenTokenModified.sol\":1050:1054  true */\n      0x01\n        /* \"contracts/YoppenTokenModified.sol\":1043:1054  return true */\n      swap3\n      pop\n      pop\n      pop\n        /* \"contracts/YoppenTokenModified.sol\":594:1062  function transfer(address recipient, uint256 amount) public override returns (bool) {... */\n      swap3\n      swap2\n      pop\n      pop\n      jump\t// out\n        /* \"contracts/YoppenTokenModified.sol\":329:359  address public treasuryAddress */\n    tag_65:\n      0x07\n      0x00\n      swap1\n      sload\n      swap1\n      0x0100\n      exp\n      swap1\n      div\n      0xffffffffffffffffffffffffffffffffffffffff\n      and\n      dup2\n      jump\t// out\n        /* \"@openzeppelin/contracts/token/ERC20/ERC20.sol\":3846:3986  function allowance(address owner, address spender) public view virtual returns (uint256) {... */\n    tag_70:\n        /* \"@openzeppelin/contracts/token/ERC20/ERC20.sol\":3926:3933  uint256 */\n      0x00\n        /* \"@openzeppelin/contracts/token/ERC20/ERC20.sol\":3952:3963  _allowances */\n      0x01\n        /* \"@openzeppelin/contracts/token/ERC20/ERC20.sol\":3952:3970  _allowances[owner] */\n      0x00\n        /* \"@openzeppelin/contracts/token/ERC20/ERC20.sol\":3964:3969  owner */\n      dup5\n        /* \"@openzeppelin/contracts/token/ERC20/ERC20.sol\":3952:3970  _allowances[owner] */\n      0xffffffffffffffffffffffffffffffffffffffff\n      and\n      0xffffffffffffffffffffffffffffffffffffffff\n      and\n      dup2\n      mstore\n      0x20\n      add\n      swap1\n      dup2\n      mstore\n      0x20\n      add\n      0x00\n      keccak256\n        /* \"@openzeppelin/contracts/token/ERC20/ERC20.sol\":3952:3979  _allowances[owner][spender] */\n      0x00\n        /* \"@openzeppelin/contracts/token/ERC20/ERC20.sol\":3971:3978  spender */\n      dup4\n        /* \"@openzeppelin/contracts/token/ERC20/ERC20.sol\":3952:3979  _allowances[owner][spender] */\n      0xffffffffffffffffffffffffffffffffffffffff\n      and\n      0xffffffffffffffffffffffffffffffffffffffff\n      and\n      dup2\n      mstore\n      0x20\n      add\n      swap1\n      dup2\n      mstore\n      0x20\n      add\n      0x00\n      keccak256\n      sload\n        /* \"@openzeppelin/contracts/token/ERC20/ERC20.sol\":3945:3979  return _allowances[owner][spender] */\n      swap1\n      pop\n        /* \"@openzeppelin/contracts/token/ERC20/ERC20.sol\":3846:3986  function allowance(address owner, address spender) public view virtual returns (uint256) {... */\n      swap3\n      swap2\n      pop\n      pop\n      jump\t// out\n        /* \"@openzeppelin/contracts/access/Ownable.sol\":2543:2758  function transferOwnership(address newOwner) public virtual onlyOwner {... */\n    tag_74:\n        /* \"@openzeppelin/contracts/access/Ownable.sol\":1531:1544  _checkOwner() */\n      tag_127\n        /* \"@openzeppelin/contracts/access/Ownable.sol\":1531:1542  _checkOwner */\n      tag_98\n        /* \"@openzeppelin/contracts/access/Ownable.sol\":1531:1544  _checkOwner() */\n      jump\t// in\n    tag_127:\n        /* \"@openzeppelin/contracts/access/Ownable.sol\":2647:2648  0 */\n      0x00\n        /* \"@openzeppelin/contracts/access/Ownable.sol\":2627:2649  newOwner == address(0) */\n      0xffffffffffffffffffffffffffffffffffffffff\n      and\n        /* \"@openzeppelin/contracts/access/Ownable.sol\":2627:2635  newOwner */\n      dup2\n        /* \"@openzeppelin/contracts/access/Ownable.sol\":2627:2649  newOwner == address(0) */\n      0xffffffffffffffffffffffffffffffffffffffff\n      and\n      sub\n        /* \"@openzeppelin/contracts/access/Ownable.sol\":2623:2714  if (newOwner == address(0)) {... */\n      tag_129\n      jumpi\n        /* \"@openzeppelin/contracts/access/Ownable.sol\":2700:2701  0 */\n      0x00\n        /* \"@openzeppelin/contracts/access/Ownable.sol\":2672:2703  OwnableInvalidOwner(address(0)) */\n      mload(0x40)\n      0x1e4fbdf700000000000000000000000000000000000000000000000000000000\n      dup2\n      mstore\n      0x04\n      add\n      tag_130\n      swap2\n      swap1\n      tag_56\n      jump\t// in\n    tag_130:\n      mload(0x40)\n      dup1\n      swap2\n      sub\n      swap1\n      revert\n        /* \"@openzeppelin/contracts/access/Ownable.sol\":2623:2714  if (newOwner == address(0)) {... */\n    tag_129:\n        /* \"@openzeppelin/contracts/access/Ownable.sol\":2723:2751  _transferOwnership(newOwner) */\n      tag_131\n        /* \"@openzeppelin/contracts/access/Ownable.sol\":2742:2750  newOwner */\n      dup2\n        /* \"@openzeppelin/contracts/access/Ownable.sol\":2723:2741  _transferOwnership */\n      tag_101\n        /* \"@openzeppelin/contracts/access/Ownable.sol\":2723:2751  _transferOwnership(newOwner) */\n      jump\t// in\n    tag_131:\n        /* \"@openzeppelin/contracts/access/Ownable.sol\":2543:2758  function transferOwnership(address newOwner) public virtual onlyOwner {... */\n      pop\n      jump\t// out\n        /* \"@openzeppelin/contracts/utils/Context.sol\":656:752  function _msgSender() internal view virtual returns (address) {... */\n    tag_84:\n        /* \"@openzeppelin/contracts/utils/Context.sol\":709:716  address */\n      0x00\n        /* \"@openzeppelin/contracts/utils/Context.sol\":735:745  msg.sender */\n      caller\n        /* \"@openzeppelin/contracts/utils/Context.sol\":728:745  return msg.sender */\n      swap1\n      pop\n        /* \"@openzeppelin/contracts/utils/Context.sol\":656:752  function _msgSender() internal view virtual returns (address) {... */\n      swap1\n      jump\t// out\n        /* \"@openzeppelin/contracts/token/ERC20/ERC20.sol\":8989:9117  function _approve(address owner, address spender, uint256 value) internal {... */\n    tag_86:\n        /* \"@openzeppelin/contracts/token/ERC20/ERC20.sol\":9073:9110  _approve(owner, spender, value, true) */\n      tag_134\n        /* \"@openzeppelin/contracts/token/ERC20/ERC20.sol\":9082:9087  owner */\n      dup4\n        /* \"@openzeppelin/contracts/token/ERC20/ERC20.sol\":9089:9096  spender */\n      dup4\n        /* \"@openzeppelin/contracts/token/ERC20/ERC20.sol\":9098:9103  value */\n      dup4\n        /* \"@openzeppelin/contracts/token/ERC20/ERC20.sol\":9105:9109  true */\n      0x01\n        /* \"@openzeppelin/contracts/token/ERC20/ERC20.sol\":9073:9081  _approve */\n      tag_135\n        /* \"@openzeppelin/contracts/token/ERC20/ERC20.sol\":9073:9110  _approve(owner, spender, value, true) */\n      jump\t// in\n    tag_134:\n        /* \"@openzeppelin/contracts/token/ERC20/ERC20.sol\":8989:9117  function _approve(address owner, address spender, uint256 value) internal {... */\n      pop\n      pop\n      pop\n      jump\t// out\n        /* \"@openzeppelin/contracts/token/ERC20/ERC20.sol\":10663:11140  function _spendAllowance(address owner, address spender, uint256 value) internal virtual {... */\n    tag_91:\n        /* \"@openzeppelin/contracts/token/ERC20/ERC20.sol\":10762:10786  uint256 currentAllowance */\n      0x00\n        /* \"@openzeppelin/contracts/token/ERC20/ERC20.sol\":10789:10814  allowance(owner, spender) */\n      tag_137\n        /* \"@openzeppelin/contracts/token/ERC20/ERC20.sol\":10799:10804  owner */\n      dup5\n        /* \"@openzeppelin/contracts/token/ERC20/ERC20.sol\":10806:10813  spender */\n      dup5\n        /* \"@openzeppelin/contracts/token/ERC20/ERC20.sol\":10789:10798  allowance */\n      tag_70\n        /* \"@openzeppelin/contracts/token/ERC20/ERC20.sol\":10789:10814  allowance(owner, spender) */\n      jump\t// in\n    tag_137:\n        /* \"@openzeppelin/contracts/token/ERC20/ERC20.sol\":10762:10814  uint256 currentAllowance = allowance(owner, spender) */\n      swap1\n      pop\n        /* \"@openzeppelin/contracts/token/ERC20/ERC20.sol\":10848:10865  type(uint256).max */\n      0xffffffffffffffffffffffffffffffffffffffffffffffffffffffffffffffff\n        /* \"@openzeppelin/contracts/token/ERC20/ERC20.sol\":10828:10844  currentAllowance */\n      dup2\n        /* \"@openzeppelin/contracts/token/ERC20/ERC20.sol\":10828:10865  currentAllowance != type(uint256).max */\n      eq\n        /* \"@openzeppelin/contracts/token/ERC20/ERC20.sol\":10824:11134  if (currentAllowance != type(uint256).max) {... */\n      tag_138\n      jumpi\n        /* \"@openzeppelin/contracts/token/ERC20/ERC20.sol\":10904:10909  value */\n      dup2\n        /* \"@openzeppelin/contracts/token/ERC20/ERC20.sol\":10885:10901  currentAllowance */\n      dup2\n        /* \"@openzeppelin/contracts/token/ERC20/ERC20.sol\":10885:10909  currentAllowance < value */\n      lt\n        /* \"@openzeppelin/contracts/token/ERC20/ERC20.sol\":10881:11011  if (currentAllowance < value) {... */\n      iszero\n      tag_139\n      jumpi\n        /* \"@openzeppelin/contracts/token/ERC20/ERC20.sol\":10963:10970  spender */\n      dup3\n        /* \"@openzeppelin/contracts/token/ERC20/ERC20.sol\":10972:10988  currentAllowance */\n      dup2\n        /* \"@openzeppelin/contracts/token/ERC20/ERC20.sol\":10990:10995  value */\n      dup4\n        /* \"@openzeppelin/contracts/token/ERC20/ERC20.sol\":10936:10996  ERC20InsufficientAllowance(spender, currentAllowance, value) */\n      mload(0x40)\n      0xfb8f41b200000000000000000000000000000000000000000000000000000000\n      dup2\n      mstore\n      0x04\n      add\n      tag_140\n      swap4\n      swap3\n      swap2\n      swap1\n      tag_141\n      jump\t// in\n    tag_140:\n      mload(0x40)\n      dup1\n      swap2\n      sub\n      swap1\n      revert\n        /* \"@openzeppelin/contracts/token/ERC20/ERC20.sol\":10881:11011  if (currentAllowance < value) {... */\n    tag_139:\n        /* \"@openzeppelin/contracts/token/ERC20/ERC20.sol\":11052:11109  _approve(owner, spender, currentAllowance - value, false) */\n      tag_142\n        /* \"@openzeppelin/contracts/token/ERC20/ERC20.sol\":11061:11066  owner */\n      dup5\n        /* \"@openzeppelin/contracts/token/ERC20/ERC20.sol\":11068:11075  spender */\n      dup5\n        /* \"@openzeppelin/contracts/token/ERC20/ERC20.sol\":11096:11101  value */\n      dup5\n        /* \"@openzeppelin/contracts/token/ERC20/ERC20.sol\":11077:11093  currentAllowance */\n      dup5\n        /* \"@openzeppelin/contracts/token/ERC20/ERC20.sol\":11077:11101  currentAllowance - value */\n      sub\n        /* \"@openzeppelin/contracts/token/ERC20/ERC20.sol\":11103:11108  false */\n      0x00\n        /* \"@openzeppelin/contracts/token/ERC20/ERC20.sol\":11052:11060  _approve */\n      tag_135\n        /* \"@openzeppelin/contracts/token/ERC20/ERC20.sol\":11052:11109  _approve(owner, spender, currentAllowance - value, false) */\n      jump\t// in\n    tag_142:\n        /* \"@openzeppelin/contracts/token/ERC20/ERC20.sol\":10824:11134  if (currentAllowance != type(uint256).max) {... */\n    tag_138:\n        /* \"@openzeppelin/contracts/token/ERC20/ERC20.sol\":10752:11140  {... */\n      pop\n        /* \"@openzeppelin/contracts/token/ERC20/ERC20.sol\":10663:11140  function _spendAllowance(address owner, address spender, uint256 value) internal virtual {... */\n      pop\n      pop\n      pop\n      jump\t// out\n        /* \"@openzeppelin/contracts/token/ERC20/ERC20.sol\":5656:5956  function _transfer(address from, address to, uint256 value) internal {... */\n    tag_93:\n        /* \"@openzeppelin/contracts/token/ERC20/ERC20.sol\":5755:5756  0 */\n      0x00\n        /* \"@openzeppelin/contracts/token/ERC20/ERC20.sol\":5739:5757  from == address(0) */\n      0xffffffffffffffffffffffffffffffffffffffff\n      and\n        /* \"@openzeppelin/contracts/token/ERC20/ERC20.sol\":5739:5743  from */\n      dup4\n        /* \"@openzeppelin/contracts/token/ERC20/ERC20.sol\":5739:5757  from == address(0) */\n      0xffffffffffffffffffffffffffffffffffffffff\n      and\n      sub\n        /* \"@openzeppelin/contracts/token/ERC20/ERC20.sol\":5735:5821  if (from == address(0)) {... */\n      tag_144\n      jumpi\n        /* \"@openzeppelin/contracts/token/ERC20/ERC20.sol\":5807:5808  0 */\n      0x00\n        /* \"@openzeppelin/contracts/token/ERC20/ERC20.sol\":5780:5810  ERC20InvalidSender(address(0)) */\n      mload(0x40)\n      0x96c6fd1e00000000000000000000000000000000000000000000000000000000\n      dup2\n      mstore\n      0x04\n      add\n      tag_145\n      swap2\n      swap1\n      tag_56\n      jump\t// in\n    tag_145:\n      mload(0x40)\n      dup1\n      swap2\n      sub\n      swap1\n      revert\n        /* \"@openzeppelin/contracts/token/ERC20/ERC20.sol\":5735:5821  if (from == address(0)) {... */\n    tag_144:\n        /* \"@openzeppelin/contracts/token/ERC20/ERC20.sol\":5848:5849  0 */\n      0x00\n        /* \"@openzeppelin/contracts/token/ERC20/ERC20.sol\":5834:5850  to == address(0) */\n      0xffffffffffffffffffffffffffffffffffffffff\n      and\n        /* \"@openzeppelin/contracts/token/ERC20/ERC20.sol\":5834:5836  to */\n      dup3\n        /* \"@openzeppelin/contracts/token/ERC20/ERC20.sol\":5834:5850  to == address(0) */\n      0xffffffffffffffffffffffffffffffffffffffff\n      and\n      sub\n        /* \"@openzeppelin/contracts/token/ERC20/ERC20.sol\":5830:5916  if (to == address(0)) {... */\n      tag_146\n      jumpi\n        /* \"@openzeppelin/contracts/token/ERC20/ERC20.sol\":5902:5903  0 */\n      0x00\n        /* \"@openzeppelin/contracts/token/ERC20/ERC20.sol\":5873:5905  ERC20InvalidReceiver(address(0)) */\n      mload(0x40)\n      0xec442f0500000000000000000000000000000000000000000000000000000000\n      dup2\n      mstore\n      0x04\n      add\n      tag_147\n      swap2\n      swap1\n      tag_56\n      jump\t// in\n    tag_147:\n      mload(0x40)\n      dup1\n      swap2\n      sub\n      swap1\n      revert\n        /* \"@openzeppelin/contracts/token/ERC20/ERC20.sol\":5830:5916  if (to == address(0)) {... */\n    tag_146:\n        /* \"@openzeppelin/contracts/token/ERC20/ERC20.sol\":5925:5949  _update(from, to, value) */\n      tag_148\n        /* \"@openzeppelin/contracts/token/ERC20/ERC20.sol\":5933:5937  from */\n      dup4\n        /* \"@openzeppelin/contracts/token/ERC20/ERC20.sol\":5939:5941  to */\n      dup4\n        /* \"@openzeppelin/contracts/token/ERC20/ERC20.sol\":5943:5948  value */\n      dup4\n        /* \"@openzeppelin/contracts/token/ERC20/ERC20.sol\":5925:5932  _update */\n      tag_149\n        /* \"@openzeppelin/contracts/token/ERC20/ERC20.sol\":5925:5949  _update(from, to, value) */\n      jump\t// in\n    tag_148:\n        /* \"@openzeppelin/contracts/token/ERC20/ERC20.sol\":5656:5956  function _transfer(address from, address to, uint256 value) internal {... */\n      pop\n      pop\n      pop\n      jump\t// out\n        /* \"@openzeppelin/contracts/access/Ownable.sol\":1796:1958  function _checkOwner() internal view virtual {... */\n    tag_98:\n        /* \"@openzeppelin/contracts/access/Ownable.sol\":1866:1878  _msgSender() */\n      tag_151\n        /* \"@openzeppelin/contracts/access/Ownable.sol\":1866:1876  _msgSender */\n      tag_84\n        /* \"@openzeppelin/contracts/access/Ownable.sol\":1866:1878  _msgSender() */\n      jump\t// in\n    tag_151:\n        /* \"@openzeppelin/contracts/access/Ownable.sol\":1855:1878  owner() != _msgSender() */\n      0xffffffffffffffffffffffffffffffffffffffff\n      and\n        /* \"@openzeppelin/contracts/access/Ownable.sol\":1855:1862  owner() */\n      tag_152\n        /* \"@openzeppelin/contracts/access/Ownable.sol\":1855:1860  owner */\n      tag_54\n        /* \"@openzeppelin/contracts/access/Ownable.sol\":1855:1862  owner() */\n      jump\t// in\n    tag_152:\n        /* \"@openzeppelin/contracts/access/Ownable.sol\":1855:1878  owner() != _msgSender() */\n      0xffffffffffffffffffffffffffffffffffffffff\n      and\n      eq\n        /* \"@openzeppelin/contracts/access/Ownable.sol\":1851:1952  if (owner() != _msgSender()) {... */\n      tag_153\n      jumpi\n        /* \"@openzeppelin/contracts/access/Ownable.sol\":1928:1940  _msgSender() */\n      tag_154\n        /* \"@openzeppelin/contracts/access/Ownable.sol\":1928:1938  _msgSender */\n      tag_84\n        /* \"@openzeppelin/contracts/access/Ownable.sol\":1928:1940  _msgSender() */\n      jump\t// in\n    tag_154:\n        /* \"@openzeppelin/contracts/access/Ownable.sol\":1901:1941  OwnableUnauthorizedAccount(_msgSender()) */\n      mload(0x40)\n      0x118cdaa700000000000000000000000000000000000000000000000000000000\n      dup2\n      mstore\n      0x04\n      add\n      tag_155\n      swap2\n      swap1\n      tag_56\n      jump\t// in\n    tag_155:\n      mload(0x40)\n      dup1\n      swap2\n      sub\n      swap1\n      revert\n        /* \"@openzeppelin/contracts/access/Ownable.sol\":1851:1952  if (owner() != _msgSender()) {... */\n    tag_153:\n        /* \"@openzeppelin/contracts/access/Ownable.sol\":1796:1958  function _checkOwner() internal view virtual {... */\n      jump\t// out\n        /* \"@openzeppelin/contracts/access/Ownable.sol\":2912:3099  function _transferOwnership(address newOwner) internal virtual {... */\n    tag_101:\n        /* \"@openzeppelin/contracts/access/Ownable.sol\":2985:3001  address oldOwner */\n      0x00\n        /* \"@openzeppelin/contracts/access/Ownable.sol\":3004:3010  _owner */\n      0x05\n      0x00\n      swap1\n      sload\n      swap1\n      0x0100\n      exp\n      swap1\n      div\n      0xffffffffffffffffffffffffffffffffffffffff\n      and\n        /* \"@openzeppelin/contracts/access/Ownable.sol\":2985:3010  address oldOwner = _owner */\n      swap1\n      pop\n        /* \"@openzeppelin/contracts/access/Ownable.sol\":3029:3037  newOwner */\n      dup2\n        /* \"@openzeppelin/contracts/access/Ownable.sol\":3020:3026  _owner */\n      0x05\n      0x00\n        /* \"@openzeppelin/contracts/access/Ownable.sol\":3020:3037  _owner = newOwner */\n      0x0100\n      exp\n      dup2\n      sload\n      dup2\n      0xffffffffffffffffffffffffffffffffffffffff\n      mul\n      not\n      and\n      swap1\n      dup4\n      0xffffffffffffffffffffffffffffffffffffffff\n      and\n      mul\n      or\n      swap1\n      sstore\n      pop\n        /* \"@openzeppelin/contracts/access/Ownable.sol\":3083:3091  newOwner */\n      dup2\n        /* \"@openzeppelin/contracts/access/Ownable.sol\":3052:3092  OwnershipTransferred(oldOwner, newOwner) */\n      0xffffffffffffffffffffffffffffffffffffffff\n      and\n        /* \"@openzeppelin/contracts/access/Ownable.sol\":3073:3081  oldOwner */\n      dup2\n        /* \"@openzeppelin/contracts/access/Ownable.sol\":3052:3092  OwnershipTransferred(oldOwner, newOwner) */\n      0xffffffffffffffffffffffffffffffffffffffff\n      and\n      0x8be0079c531659141344cd1fd0a4f28419497f9722a3daafe3b4186f6b6457e0\n      mload(0x40)\n      mload(0x40)\n      dup1\n      swap2\n      sub\n      swap1\n      log3\n        /* \"@openzeppelin/contracts/access/Ownable.sol\":2975:3099  {... */\n      pop\n        /* \"@openzeppelin/contracts/access/Ownable.sol\":2912:3099  function _transferOwnership(address newOwner) internal virtual {... */\n      pop\n      jump\t// out\n        /* \"@openzeppelin/contracts/token/ERC20/ERC20.sol\":9949:10381  function _approve(address owner, address spender, uint256 value, bool emitEvent) internal virtual {... */\n    tag_135:\n        /* \"@openzeppelin/contracts/token/ERC20/ERC20.sol\":10078:10079  0 */\n      0x00\n        /* \"@openzeppelin/contracts/token/ERC20/ERC20.sol\":10061:10080  owner == address(0) */\n      0xffffffffffffffffffffffffffffffffffffffff\n      and\n        /* \"@openzeppelin/contracts/token/ERC20/ERC20.sol\":10061:10066  owner */\n      dup5\n        /* \"@openzeppelin/contracts/token/ERC20/ERC20.sol\":10061:10080  owner == address(0) */\n      0xffffffffffffffffffffffffffffffffffffffff\n      and\n      sub\n        /* \"@openzeppelin/contracts/token/ERC20/ERC20.sol\":10057:10146  if (owner == address(0)) {... */\n      tag_158\n      jumpi\n        /* \"@openzeppelin/contracts/token/ERC20/ERC20.sol\":10132:10133  0 */\n      0x00\n        /* \"@openzeppelin/contracts/token/ERC20/ERC20.sol\":10103:10135  ERC20InvalidApprover(address(0)) */\n      mload(0x40)\n      0xe602df0500000000000000000000000000000000000000000000000000000000\n      dup2\n      mstore\n      0x04\n      add\n      tag_159\n      swap2\n      swap1\n      tag_56\n      jump\t// in\n    tag_159:\n      mload(0x40)\n      dup1\n      swap2\n      sub\n      swap1\n      revert\n        /* \"@openzeppelin/contracts/token/ERC20/ERC20.sol\":10057:10146  if (owner == address(0)) {... */\n    tag_158:\n        /* \"@openzeppelin/contracts/token/ERC20/ERC20.sol\":10178:10179  0 */\n      0x00\n        /* \"@openzeppelin/contracts/token/ERC20/ERC20.sol\":10159:10180  spender == address(0) */\n      0xffffffffffffffffffffffffffffffffffffffff\n      and\n        /* \"@openzeppelin/contracts/token/ERC20/ERC20.sol\":10159:10166  spender */\n      dup4\n        /* \"@openzeppelin/contracts/token/ERC20/ERC20.sol\":10159:10180  spender == address(0) */\n      0xffffffffffffffffffffffffffffffffffffffff\n      and\n      sub\n        /* \"@openzeppelin/contracts/token/ERC20/ERC20.sol\":10155:10245  if (spender == address(0)) {... */\n      tag_160\n      jumpi\n        /* \"@openzeppelin/contracts/token/ERC20/ERC20.sol\":10231:10232  0 */\n      0x00\n        /* \"@openzeppelin/contracts/token/ERC20/ERC20.sol\":10203:10234  ERC20InvalidSpender(address(0)) */\n      mload(0x40)\n      0x94280d6200000000000000000000000000000000000000000000000000000000\n      dup2\n      mstore\n      0x04\n      add\n      tag_161\n      swap2\n      swap1\n      tag_56\n      jump\t// in\n    tag_161:\n      mload(0x40)\n      dup1\n      swap2\n      sub\n      swap1\n      revert\n        /* \"@openzeppelin/contracts/token/ERC20/ERC20.sol\":10155:10245  if (spender == address(0)) {... */\n    tag_160:\n        /* \"@openzeppelin/contracts/token/ERC20/ERC20.sol\":10284:10289  value */\n      dup2\n        /* \"@openzeppelin/contracts/token/ERC20/ERC20.sol\":10254:10265  _allowances */\n      0x01\n        /* \"@openzeppelin/contracts/token/ERC20/ERC20.sol\":10254:10272  _allowances[owner] */\n      0x00\n        /* \"@openzeppelin/contracts/token/ERC20/ERC20.sol\":10266:10271  owner */\n      dup7\n        /* \"@openzeppelin/contracts/token/ERC20/ERC20.sol\":10254:10272  _allowances[owner] */\n      0xffffffffffffffffffffffffffffffffffffffff\n      and\n      0xffffffffffffffffffffffffffffffffffffffff\n      and\n      dup2\n      mstore\n      0x20\n      add\n      swap1\n      dup2\n      mstore\n      0x20\n      add\n      0x00\n      keccak256\n        /* \"@openzeppelin/contracts/token/ERC20/ERC20.sol\":10254:10281  _allowances[owner][spender] */\n      0x00\n        /* \"@openzeppelin/contracts/token/ERC20/ERC20.sol\":10273:10280  spender */\n      dup6\n        /* \"@openzeppelin/contracts/token/ERC20/ERC20.sol\":10254:10281  _allowances[owner][spender] */\n      0xffffffffffffffffffffffffffffffffffffffff\n      and\n      0xffffffffffffffffffffffffffffffffffffffff\n      and\n      dup2\n      mstore\n      0x20\n      add\n      swap1\n      dup2\n      mstore\n      0x20\n      add\n      0x00\n      keccak256\n        /* \"@openzeppelin/contracts/token/ERC20/ERC20.sol\":10254:10289  _allowances[owner][spender] = value */\n      dup2\n      swap1\n      sstore\n      pop\n        /* \"@openzeppelin/contracts/token/ERC20/ERC20.sol\":10303:10312  emitEvent */\n      dup1\n        /* \"@openzeppelin/contracts/token/ERC20/ERC20.sol\":10299:10375  if (emitEvent) {... */\n      iszero\n      tag_162\n      jumpi\n        /* \"@openzeppelin/contracts/token/ERC20/ERC20.sol\":10349:10356  spender */\n      dup3\n        /* \"@openzeppelin/contracts/token/ERC20/ERC20.sol\":10333:10364  Approval(owner, spender, value) */\n      0xffffffffffffffffffffffffffffffffffffffff\n      and\n        /* \"@openzeppelin/contracts/token/ERC20/ERC20.sol\":10342:10347  owner */\n      dup5\n        /* \"@openzeppelin/contracts/token/ERC20/ERC20.sol\":10333:10364  Approval(owner, spender, value) */\n      0xffffffffffffffffffffffffffffffffffffffff\n      and\n      0x8c5be1e5ebec7d5bd14f71427d1e84f3dd0314c0f7b2291e5b200ac8c7c3b925\n        /* \"@openzeppelin/contracts/token/ERC20/ERC20.sol\":10358:10363  value */\n      dup5\n        /* \"@openzeppelin/contracts/token/ERC20/ERC20.sol\":10333:10364  Approval(owner, spender, value) */\n      mload(0x40)\n      tag_163\n      swap2\n      swap1\n      tag_33\n      jump\t// in\n    tag_163:\n      mload(0x40)\n      dup1\n      swap2\n      sub\n      swap1\n      log3\n        /* \"@openzeppelin/contracts/token/ERC20/ERC20.sol\":10299:10375  if (emitEvent) {... */\n    tag_162:\n        /* \"@openzeppelin/contracts/token/ERC20/ERC20.sol\":9949:10381  function _approve(address owner, address spender, uint256 value, bool emitEvent) internal virtual {... */\n      pop\n      pop\n      pop\n      pop\n      jump\t// out\n        /* \"@openzeppelin/contracts/token/ERC20/ERC20.sol\":6271:7378  function _update(address from, address to, uint256 value) internal virtual {... */\n    tag_149:\n        /* \"@openzeppelin/contracts/token/ERC20/ERC20.sol\":6376:6377  0 */\n      0x00\n        /* \"@openzeppelin/contracts/token/ERC20/ERC20.sol\":6360:6378  from == address(0) */\n      0xffffffffffffffffffffffffffffffffffffffff\n      and\n        /* \"@openzeppelin/contracts/token/ERC20/ERC20.sol\":6360:6364  from */\n      dup4\n        /* \"@openzeppelin/contracts/token/ERC20/ERC20.sol\":6360:6378  from == address(0) */\n      0xffffffffffffffffffffffffffffffffffffffff\n      and\n      sub\n        /* \"@openzeppelin/contracts/token/ERC20/ERC20.sol\":6356:6896  if (from == address(0)) {... */\n      tag_165\n      jumpi\n        /* \"@openzeppelin/contracts/token/ERC20/ERC20.sol\":6512:6517  value */\n      dup1\n        /* \"@openzeppelin/contracts/token/ERC20/ERC20.sol\":6496:6508  _totalSupply */\n      0x02\n      0x00\n        /* \"@openzeppelin/contracts/token/ERC20/ERC20.sol\":6496:6517  _totalSupply += value */\n      dup3\n      dup3\n      sload\n      tag_166\n      swap2\n      swap1\n      tag_117\n      jump\t// in\n    tag_166:\n      swap3\n      pop\n      pop\n      dup2\n      swap1\n      sstore\n      pop\n        /* \"@openzeppelin/contracts/token/ERC20/ERC20.sol\":6356:6896  if (from == address(0)) {... */\n      jump(tag_167)\n    tag_165:\n        /* \"@openzeppelin/contracts/token/ERC20/ERC20.sol\":6548:6567  uint256 fromBalance */\n      0x00\n        /* \"@openzeppelin/contracts/token/ERC20/ERC20.sol\":6570:6579  _balances */\n      dup1\n        /* \"@openzeppelin/contracts/token/ERC20/ERC20.sol\":6570:6585  _balances[from] */\n      0x00\n        /* \"@openzeppelin/contracts/token/ERC20/ERC20.sol\":6580:6584  from */\n      dup6\n        /* \"@openzeppelin/contracts/token/ERC20/ERC20.sol\":6570:6585  _balances[from] */\n      0xffffffffffffffffffffffffffffffffffffffff\n      and\n      0xffffffffffffffffffffffffffffffffffffffff\n      and\n      dup2\n      mstore\n      0x20\n      add\n      swap1\n      dup2\n      mstore\n      0x20\n      add\n      0x00\n      keccak256\n      sload\n        /* \"@openzeppelin/contracts/token/ERC20/ERC20.sol\":6548:6585  uint256 fromBalance = _balances[from] */\n      swap1\n      pop\n        /* \"@openzeppelin/contracts/token/ERC20/ERC20.sol\":6617:6622  value */\n      dup2\n        /* \"@openzeppelin/contracts/token/ERC20/ERC20.sol\":6603:6614  fromBalance */\n      dup2\n        /* \"@openzeppelin/contracts/token/ERC20/ERC20.sol\":6603:6622  fromBalance < value */\n      lt\n        /* \"@openzeppelin/contracts/token/ERC20/ERC20.sol\":6599:6714  if (fromBalance < value) {... */\n      iszero\n      tag_168\n      jumpi\n        /* \"@openzeppelin/contracts/token/ERC20/ERC20.sol\":6674:6678  from */\n      dup4\n        /* \"@openzeppelin/contracts/token/ERC20/ERC20.sol\":6680:6691  fromBalance */\n      dup2\n        /* \"@openzeppelin/contracts/token/ERC20/ERC20.sol\":6693:6698  value */\n      dup4\n        /* \"@openzeppelin/contracts/token/ERC20/ERC20.sol\":6649:6699  ERC20InsufficientBalance(from, fromBalance, value) */\n      mload(0x40)\n      0xe450d38c00000000000000000000000000000000000000000000000000000000\n      dup2\n      mstore\n      0x04\n      add\n      tag_169\n      swap4\n      swap3\n      swap2\n      swap1\n      tag_141\n      jump\t// in\n    tag_169:\n      mload(0x40)\n      dup1\n      swap2\n      sub\n      swap1\n      revert\n        /* \"@openzeppelin/contracts/token/ERC20/ERC20.sol\":6599:6714  if (fromBalance < value) {... */\n    tag_168:\n        /* \"@openzeppelin/contracts/token/ERC20/ERC20.sol\":6866:6871  value */\n      dup2\n        /* \"@openzeppelin/contracts/token/ERC20/ERC20.sol\":6852:6863  fromBalance */\n      dup2\n        /* \"@openzeppelin/contracts/token/ERC20/ERC20.sol\":6852:6871  fromBalance - value */\n      sub\n        /* \"@openzeppelin/contracts/token/ERC20/ERC20.sol\":6834:6843  _balances */\n      0x00\n        /* \"@openzeppelin/contracts/token/ERC20/ERC20.sol\":6834:6849  _balances[from] */\n      dup1\n        /* \"@openzeppelin/contracts/token/ERC20/ERC20.sol\":6844:6848  from */\n      dup7\n        /* \"@openzeppelin/contracts/token/ERC20/ERC20.sol\":6834:6849  _balances[from] */\n      0xffffffffffffffffffffffffffffffffffffffff\n      and\n      0xffffffffffffffffffffffffffffffffffffffff\n      and\n      dup2\n      mstore\n      0x20\n      add\n      swap1\n      dup2\n      mstore\n      0x20\n      add\n      0x00\n      keccak256\n        /* \"@openzeppelin/contracts/token/ERC20/ERC20.sol\":6834:6871  _balances[from] = fromBalance - value */\n      dup2\n      swap1\n      sstore\n      pop\n        /* \"@openzeppelin/contracts/token/ERC20/ERC20.sol\":6534:6896  {... */\n      pop\n        /* \"@openzeppelin/contracts/token/ERC20/ERC20.sol\":6356:6896  if (from == address(0)) {... */\n    tag_167:\n        /* \"@openzeppelin/contracts/token/ERC20/ERC20.sol\":6924:6925  0 */\n      0x00\n        /* \"@openzeppelin/contracts/token/ERC20/ERC20.sol\":6910:6926  to == address(0) */\n      0xffffffffffffffffffffffffffffffffffffffff\n      and\n        /* \"@openzeppelin/contracts/token/ERC20/ERC20.sol\":6910:6912  to */\n      dup3\n        /* \"@openzeppelin/contracts/token/ERC20/ERC20.sol\":6910:6926  to == address(0) */\n      0xffffffffffffffffffffffffffffffffffffffff\n      and\n      sub\n        /* \"@openzeppelin/contracts/token/ERC20/ERC20.sol\":6906:7331  if (to == address(0)) {... */\n      tag_170\n      jumpi\n        /* \"@openzeppelin/contracts/token/ERC20/ERC20.sol\":7089:7094  value */\n      dup1\n        /* \"@openzeppelin/contracts/token/ERC20/ERC20.sol\":7073:7085  _totalSupply */\n      0x02\n      0x00\n        /* \"@openzeppelin/contracts/token/ERC20/ERC20.sol\":7073:7094  _totalSupply -= value */\n      dup3\n      dup3\n      sload\n      sub\n      swap3\n      pop\n      pop\n      dup2\n      swap1\n      sstore\n      pop\n        /* \"@openzeppelin/contracts/token/ERC20/ERC20.sol\":6906:7331  if (to == address(0)) {... */\n      jump(tag_171)\n    tag_170:\n        /* \"@openzeppelin/contracts/token/ERC20/ERC20.sol\":7301:7306  value */\n      dup1\n        /* \"@openzeppelin/contracts/token/ERC20/ERC20.sol\":7284:7293  _balances */\n      0x00\n        /* \"@openzeppelin/contracts/token/ERC20/ERC20.sol\":7284:7297  _balances[to] */\n      dup1\n        /* \"@openzeppelin/contracts/token/ERC20/ERC20.sol\":7294:7296  to */\n      dup5\n        /* \"@openzeppelin/contracts/token/ERC20/ERC20.sol\":7284:7297  _balances[to] */\n      0xffffffffffffffffffffffffffffffffffffffff\n      and\n      0xffffffffffffffffffffffffffffffffffffffff\n      and\n      dup2\n      mstore\n      0x20\n      add\n      swap1\n      dup2\n      mstore\n      0x20\n      add\n      0x00\n      keccak256\n      0x00\n        /* \"@openzeppelin/contracts/token/ERC20/ERC20.sol\":7284:7306  _balances[to] += value */\n      dup3\n      dup3\n      sload\n      add\n      swap3\n      pop\n      pop\n      dup2\n      swap1\n      sstore\n      pop\n        /* \"@openzeppelin/contracts/token/ERC20/ERC20.sol\":6906:7331  if (to == address(0)) {... */\n    tag_171:\n        /* \"@openzeppelin/contracts/token/ERC20/ERC20.sol\":7361:7363  to */\n      dup2\n        /* \"@openzeppelin/contracts/token/ERC20/ERC20.sol\":7346:7371  Transfer(from, to, value) */\n      0xffffffffffffffffffffffffffffffffffffffff\n      and\n        /* \"@openzeppelin/contracts/token/ERC20/ERC20.sol\":7355:7359  from */\n      dup4\n        /* \"@openzeppelin/contracts/token/ERC20/ERC20.sol\":7346:7371  Transfer(from, to, value) */\n      0xffffffffffffffffffffffffffffffffffffffff\n      and\n      0xddf252ad1be2c89b69c2b068fc378daa952ba7f163c4a11628f55a4df523b3ef\n        /* \"@openzeppelin/contracts/token/ERC20/ERC20.sol\":7365:7370  value */\n      dup4\n        /* \"@openzeppelin/contracts/token/ERC20/ERC20.sol\":7346:7371  Transfer(from, to, value) */\n      mload(0x40)\n      tag_172\n      swap2\n      swap1\n      tag_33\n      jump\t// in\n    tag_172:\n      mload(0x40)\n      dup1\n      swap2\n      sub\n      swap1\n      log3\n        /* \"@openzeppelin/contracts/token/ERC20/ERC20.sol\":6271:7378  function _update(address from, address to, uint256 value) internal virtual {... */\n      pop\n      pop\n      pop\n      jump\t// out\n        /* \"#utility.yul\":7:106   */\n    tag_173:\n        /* \"#utility.yul\":59:65   */\n      0x00\n        /* \"#utility.yul\":93:98   */\n      dup2\n        /* \"#utility.yul\":87:99   */\n      mload\n        /* \"#utility.yul\":77:99   */\n      swap1\n      pop\n        /* \"#utility.yul\":7:106   */\n      swap2\n      swap1\n      pop\n      jump\t// out\n        /* \"#utility.yul\":112:281   */\n    tag_174:\n        /* \"#utility.yul\":196:207   */\n      0x00\n        /* \"#utility.yul\":230:236   */\n      dup3\n        /* \"#utility.yul\":225:228   */\n      dup3\n        /* \"#utility.yul\":218:237   */\n      mstore\n        /* \"#utility.yul\":270:274   */\n      0x20\n        /* \"#utility.yul\":265:268   */\n      dup3\n        /* \"#utility.yul\":261:275   */\n      add\n        /* \"#utility.yul\":246:275   */\n      swap1\n      pop\n        /* \"#utility.yul\":112:281   */\n      swap3\n      swap2\n      pop\n      pop\n      jump\t// out\n        /* \"#utility.yul\":287:426   */\n    tag_175:\n        /* \"#utility.yul\":376:382   */\n      dup3\n        /* \"#utility.yul\":371:374   */\n      dup2\n        /* \"#utility.yul\":366:369   */\n      dup4\n        /* \"#utility.yul\":360:383   */\n      mcopy\n        /* \"#utility.yul\":417:418   */\n      0x00\n        /* \"#utility.yul\":408:414   */\n      dup4\n        /* \"#utility.yul\":403:406   */\n      dup4\n        /* \"#utility.yul\":399:415   */\n      add\n        /* \"#utility.yul\":392:419   */\n      mstore\n        /* \"#utility.yul\":287:426   */\n      pop\n      pop\n      pop\n      jump\t// out\n        /* \"#utility.yul\":432:534   */\n    tag_176:\n        /* \"#utility.yul\":473:479   */\n      0x00\n        /* \"#utility.yul\":524:526   */\n      0x1f\n        /* \"#utility.yul\":520:527   */\n      not\n        /* \"#utility.yul\":515:517   */\n      0x1f\n        /* \"#utility.yul\":508:513   */\n      dup4\n        /* \"#utility.yul\":504:518   */\n      add\n        /* \"#utility.yul\":500:528   */\n      and\n        /* \"#utility.yul\":490:528   */\n      swap1\n      pop\n        /* \"#utility.yul\":432:534   */\n      swap2\n      swap1\n      pop\n      jump\t// out\n        /* \"#utility.yul\":540:917   */\n    tag_177:\n        /* \"#utility.yul\":628:631   */\n      0x00\n        /* \"#utility.yul\":656:695   */\n      tag_205\n        /* \"#utility.yul\":689:694   */\n      dup3\n        /* \"#utility.yul\":656:695   */\n      tag_173\n      jump\t// in\n    tag_205:\n        /* \"#utility.yul\":711:782   */\n      tag_206\n        /* \"#utility.yul\":775:781   */\n      dup2\n        /* \"#utility.yul\":770:773   */\n      dup6\n        /* \"#utility.yul\":711:782   */\n      tag_174\n      jump\t// in\n    tag_206:\n        /* \"#utility.yul\":704:782   */\n      swap4\n      pop\n        /* \"#utility.yul\":791:856   */\n      tag_207\n        /* \"#utility.yul\":849:855   */\n      dup2\n        /* \"#utility.yul\":844:847   */\n      dup6\n        /* \"#utility.yul\":837:841   */\n      0x20\n        /* \"#utility.yul\":830:835   */\n      dup7\n        /* \"#utility.yul\":826:842   */\n      add\n        /* \"#utility.yul\":791:856   */\n      tag_175\n      jump\t// in\n    tag_207:\n        /* \"#utility.yul\":881:910   */\n      tag_208\n        /* \"#utility.yul\":903:909   */\n      dup2\n        /* \"#utility.yul\":881:910   */\n      tag_176\n      jump\t// in\n    tag_208:\n        /* \"#utility.yul\":876:879   */\n      dup5\n        /* \"#utility.yul\":872:911   */\n      add\n        /* \"#utility.yul\":865:911   */\n      swap2\n      pop\n        /* \"#utility.yul\":632:917   */\n      pop\n        /* \"#utility.yul\":540:917   */\n      swap3\n      swap2\n      pop\n      pop\n      jump\t// out\n        /* \"#utility.yul\":923:1236   */\n    tag_23:\n        /* \"#utility.yul\":1036:1040   */\n      0x00\n        /* \"#utility.yul\":1074:1076   */\n      0x20\n        /* \"#utility.yul\":1063:1072   */\n      dup3\n        /* \"#utility.yul\":1059:1077   */\n      add\n        /* \"#utility.yul\":1051:1077   */\n      swap1\n      pop\n        /* \"#utility.yul\":1123:1132   */\n      dup2\n        /* \"#utility.yul\":1117:1121   */\n      dup2\n        /* \"#utility.yul\":1113:1133   */\n      sub\n        /* \"#utility.yul\":1109:1110   */\n      0x00\n        /* \"#utility.yul\":1098:1107   */\n      dup4\n        /* \"#utility.yul\":1094:1111   */\n      add\n        /* \"#utility.yul\":1087:1134   */\n      mstore\n        /* \"#utility.yul\":1151:1229   */\n      tag_210\n        /* \"#utility.yul\":1224:1228   */\n      dup2\n        /* \"#utility.yul\":1215:1221   */\n      dup5\n        /* \"#utility.yul\":1151:1229   */\n      tag_177\n      jump\t// in\n    tag_210:\n        /* \"#utility.yul\":1143:1229   */\n      swap1\n      pop\n        /* \"#utility.yul\":923:1236   */\n      swap3\n      swap2\n      pop\n      pop\n      jump\t// out\n        /* \"#utility.yul\":1323:1440   */\n    tag_179:\n        /* \"#utility.yul\":1432:1433   */\n      0x00\n        /* \"#utility.yul\":1429:1430   */\n      dup1\n        /* \"#utility.yul\":1422:1434   */\n      revert\n        /* \"#utility.yul\":1569:1695   */\n    tag_181:\n        /* \"#utility.yul\":1606:1613   */\n      0x00\n        /* \"#utility.yul\":1646:1688   */\n      0xffffffffffffffffffffffffffffffffffffffff\n        /* \"#utility.yul\":1639:1644   */\n      dup3\n        /* \"#utility.yul\":1635:1689   */\n      and\n        /* \"#utility.yul\":1624:1689   */\n      swap1\n      pop\n        /* \"#utility.yul\":1569:1695   */\n      swap2\n      swap1\n      pop\n      jump\t// out\n        /* \"#utility.yul\":1701:1797   */\n    tag_182:\n        /* \"#utility.yul\":1738:1745   */\n      0x00\n        /* \"#utility.yul\":1767:1791   */\n      tag_216\n        /* \"#utility.yul\":1785:1790   */\n      dup3\n        /* \"#utility.yul\":1767:1791   */\n      tag_181\n      jump\t// in\n    tag_216:\n        /* \"#utility.yul\":1756:1791   */\n      swap1\n      pop\n        /* \"#utility.yul\":1701:1797   */\n      swap2\n      swap1\n      pop\n      jump\t// out\n        /* \"#utility.yul\":1803:1925   */\n    tag_183:\n        /* \"#utility.yul\":1876:1900   */\n      tag_218\n        /* \"#utility.yul\":1894:1899   */\n      dup2\n        /* \"#utility.yul\":1876:1900   */\n      tag_182\n      jump\t// in\n    tag_218:\n        /* \"#utility.yul\":1869:1874   */\n      dup2\n        /* \"#utility.yul\":1866:1901   */\n      eq\n        /* \"#utility.yul\":1856:1919   */\n      tag_219\n      jumpi\n        /* \"#utility.yul\":1915:1916   */\n      0x00\n        /* \"#utility.yul\":1912:1913   */\n      dup1\n        /* \"#utility.yul\":1905:1917   */\n      revert\n        /* \"#utility.yul\":1856:1919   */\n    tag_219:\n        /* \"#utility.yul\":1803:1925   */\n      pop\n      jump\t// out\n        /* \"#utility.yul\":1931:2070   */\n    tag_184:\n        /* \"#utility.yul\":1977:1982   */\n      0x00\n        /* \"#utility.yul\":2015:2021   */\n      dup2\n        /* \"#utility.yul\":2002:2022   */\n      calldataload\n        /* \"#utility.yul\":1993:2022   */\n      swap1\n      pop\n        /* \"#utility.yul\":2031:2064   */\n      tag_221\n        /* \"#utility.yul\":2058:2063   */\n      dup2\n        /* \"#utility.yul\":2031:2064   */\n      tag_183\n      jump\t// in\n    tag_221:\n        /* \"#utility.yul\":1931:2070   */\n      swap3\n      swap2\n      pop\n      pop\n      jump\t// out\n        /* \"#utility.yul\":2076:2153   */\n    tag_185:\n        /* \"#utility.yul\":2113:2120   */\n      0x00\n        /* \"#utility.yul\":2142:2147   */\n      dup2\n        /* \"#utility.yul\":2131:2147   */\n      swap1\n      pop\n        /* \"#utility.yul\":2076:2153   */\n      swap2\n      swap1\n      pop\n      jump\t// out\n        /* \"#utility.yul\":2159:2281   */\n    tag_186:\n        /* \"#utility.yul\":2232:2256   */\n      tag_224\n        /* \"#utility.yul\":2250:2255   */\n      dup2\n        /* \"#utility.yul\":2232:2256   */\n      tag_185\n      jump\t// in\n    tag_224:\n        /* \"#utility.yul\":2225:2230   */\n      dup2\n        /* \"#utility.yul\":2222:2257   */\n      eq\n        /* \"#utility.yul\":2212:2275   */\n      tag_225\n      jumpi\n        /* \"#utility.yul\":2271:2272   */\n      0x00\n        /* \"#utility.yul\":2268:2269   */\n      dup1\n        /* \"#utility.yul\":2261:2273   */\n      revert\n        /* \"#utility.yul\":2212:2275   */\n    tag_225:\n        /* \"#utility.yul\":2159:2281   */\n      pop\n      jump\t// out\n        /* \"#utility.yul\":2287:2426   */\n    tag_187:\n        /* \"#utility.yul\":2333:2338   */\n      0x00\n        /* \"#utility.yul\":2371:2377   */\n      dup2\n        /* \"#utility.yul\":2358:2378   */\n      calldataload\n        /* \"#utility.yul\":2349:2378   */\n      swap1\n      pop\n        /* \"#utility.yul\":2387:2420   */\n      tag_227\n        /* \"#utility.yul\":2414:2419   */\n      dup2\n        /* \"#utility.yul\":2387:2420   */\n      tag_186\n      jump\t// in\n    tag_227:\n        /* \"#utility.yul\":2287:2426   */\n      swap3\n      swap2\n      pop\n      pop\n      jump\t// out\n        /* \"#utility.yul\":2432:2906   */\n    tag_26:\n        /* \"#utility.yul\":2500:2506   */\n      0x00\n        /* \"#utility.yul\":2508:2514   */\n      dup1\n        /* \"#utility.yul\":2557:2559   */\n      0x40\n        /* \"#utility.yul\":2545:2554   */\n      dup4\n        /* \"#utility.yul\":2536:2543   */\n      dup6\n        /* \"#utility.yul\":2532:2555   */\n      sub\n        /* \"#utility.yul\":2528:2560   */\n      slt\n        /* \"#utility.yul\":2525:2644   */\n      iszero\n      tag_229\n      jumpi\n        /* \"#utility.yul\":2563:2642   */\n      tag_230\n      tag_179\n      jump\t// in\n    tag_230:\n        /* \"#utility.yul\":2525:2644   */\n    tag_229:\n        /* \"#utility.yul\":2683:2684   */\n      0x00\n        /* \"#utility.yul\":2708:2761   */\n      tag_231\n        /* \"#utility.yul\":2753:2760   */\n      dup6\n        /* \"#utility.yul\":2744:2750   */\n      dup3\n        /* \"#utility.yul\":2733:2742   */\n      dup7\n        /* \"#utility.yul\":2729:2751   */\n      add\n        /* \"#utility.yul\":2708:2761   */\n      tag_184\n      jump\t// in\n    tag_231:\n        /* \"#utility.yul\":2698:2761   */\n      swap3\n      pop\n        /* \"#utility.yul\":2654:2771   */\n      pop\n        /* \"#utility.yul\":2810:2812   */\n      0x20\n        /* \"#utility.yul\":2836:2889   */\n      tag_232\n        /* \"#utility.yul\":2881:2888   */\n      dup6\n        /* \"#utility.yul\":2872:2878   */\n      dup3\n        /* \"#utility.yul\":2861:2870   */\n      dup7\n        /* \"#utility.yul\":2857:2879   */\n      add\n        /* \"#utility.yul\":2836:2889   */\n      tag_187\n      jump\t// in\n    tag_232:\n        /* \"#utility.yul\":2826:2889   */\n      swap2\n      pop\n        /* \"#utility.yul\":2781:2899   */\n      pop\n        /* \"#utility.yul\":2432:2906   */\n      swap3\n      pop\n      swap3\n      swap1\n      pop\n      jump\t// out\n        /* \"#utility.yul\":2912:3002   */\n    tag_188:\n        /* \"#utility.yul\":2946:2953   */\n      0x00\n        /* \"#utility.yul\":2989:2994   */\n      dup2\n        /* \"#utility.yul\":2982:2995   */\n      iszero\n        /* \"#utility.yul\":2975:2996   */\n      iszero\n        /* \"#utility.yul\":2964:2996   */\n      swap1\n      pop\n        /* \"#utility.yul\":2912:3002   */\n      swap2\n      swap1\n      pop\n      jump\t// out\n        /* \"#utility.yul\":3008:3117   */\n    tag_189:\n        /* \"#utility.yul\":3089:3110   */\n      tag_235\n        /* \"#utility.yul\":3104:3109   */\n      dup2\n        /* \"#utility.yul\":3089:3110   */\n      tag_188\n      jump\t// in\n    tag_235:\n        /* \"#utility.yul\":3084:3087   */\n      dup3\n        /* \"#utility.yul\":3077:3111   */\n      mstore\n        /* \"#utility.yul\":3008:3117   */\n      pop\n      pop\n      jump\t// out\n        /* \"#utility.yul\":3123:3333   */\n    tag_29:\n        /* \"#utility.yul\":3210:3214   */\n      0x00\n        /* \"#utility.yul\":3248:3250   */\n      0x20\n        /* \"#utility.yul\":3237:3246   */\n      dup3\n        /* \"#utility.yul\":3233:3251   */\n      add\n        /* \"#utility.yul\":3225:3251   */\n      swap1\n      pop\n        /* \"#utility.yul\":3261:3326   */\n      tag_237\n        /* \"#utility.yul\":3323:3324   */\n      0x00\n        /* \"#utility.yul\":3312:3321   */\n      dup4\n        /* \"#utility.yul\":3308:3325   */\n      add\n        /* \"#utility.yul\":3299:3305   */\n      dup5\n        /* \"#utility.yul\":3261:3326   */\n      tag_189\n      jump\t// in\n    tag_237:\n        /* \"#utility.yul\":3123:3333   */\n      swap3\n      swap2\n      pop\n      pop\n      jump\t// out\n        /* \"#utility.yul\":3339:3457   */\n    tag_190:\n        /* \"#utility.yul\":3426:3450   */\n      tag_239\n        /* \"#utility.yul\":3444:3449   */\n      dup2\n        /* \"#utility.yul\":3426:3450   */\n      tag_185\n      jump\t// in\n    tag_239:\n        /* \"#utility.yul\":3421:3424   */\n      dup3\n        /* \"#utility.yul\":3414:3451   */\n      mstore\n        /* \"#utility.yul\":3339:3457   */\n      pop\n      pop\n      jump\t// out\n        /* \"#utility.yul\":3463:3685   */\n    tag_33:\n        /* \"#utility.yul\":3556:3560   */\n      0x00\n        /* \"#utility.yul\":3594:3596   */\n      0x20\n        /* \"#utility.yul\":3583:3592   */\n      dup3\n        /* \"#utility.yul\":3579:3597   */\n      add\n        /* \"#utility.yul\":3571:3597   */\n      swap1\n      pop\n        /* \"#utility.yul\":3607:3678   */\n      tag_241\n        /* \"#utility.yul\":3675:3676   */\n      0x00\n        /* \"#utility.yul\":3664:3673   */\n      dup4\n        /* \"#utility.yul\":3660:3677   */\n      add\n        /* \"#utility.yul\":3651:3657   */\n      dup5\n        /* \"#utility.yul\":3607:3678   */\n      tag_190\n      jump\t// in\n    tag_241:\n        /* \"#utility.yul\":3463:3685   */\n      swap3\n      swap2\n      pop\n      pop\n      jump\t// out\n        /* \"#utility.yul\":3691:4310   */\n    tag_36:\n        /* \"#utility.yul\":3768:3774   */\n      0x00\n        /* \"#utility.yul\":3776:3782   */\n      dup1\n        /* \"#utility.yul\":3784:3790   */\n      0x00\n        /* \"#utility.yul\":3833:3835   */\n      0x60\n        /* \"#utility.yul\":3821:3830   */\n      dup5\n        /* \"#utility.yul\":3812:3819   */\n      dup7\n        /* \"#utility.yul\":3808:3831   */\n      sub\n        /* \"#utility.yul\":3804:3836   */\n      slt\n        /* \"#utility.yul\":3801:3920   */\n      iszero\n      tag_243\n      jumpi\n        /* \"#utility.yul\":3839:3918   */\n      tag_244\n      tag_179\n      jump\t// in\n    tag_244:\n        /* \"#utility.yul\":3801:3920   */\n    tag_243:\n        /* \"#utility.yul\":3959:3960   */\n      0x00\n        /* \"#utility.yul\":3984:4037   */\n      tag_245\n        /* \"#utility.yul\":4029:4036   */\n      dup7\n        /* \"#utility.yul\":4020:4026   */\n      dup3\n        /* \"#utility.yul\":4009:4018   */\n      dup8\n        /* \"#utility.yul\":4005:4027   */\n      add\n        /* \"#utility.yul\":3984:4037   */\n      tag_184\n      jump\t// in\n    tag_245:\n        /* \"#utility.yul\":3974:4037   */\n      swap4\n      pop\n        /* \"#utility.yul\":3930:4047   */\n      pop\n        /* \"#utility.yul\":4086:4088   */\n      0x20\n        /* \"#utility.yul\":4112:4165   */\n      tag_246\n        /* \"#utility.yul\":4157:4164   */\n      dup7\n        /* \"#utility.yul\":4148:4154   */\n      dup3\n        /* \"#utility.yul\":4137:4146   */\n      dup8\n        /* \"#utility.yul\":4133:4155   */\n      add\n        /* \"#utility.yul\":4112:4165   */\n      tag_184\n      jump\t// in\n    tag_246:\n        /* \"#utility.yul\":4102:4165   */\n      swap3\n      pop\n        /* \"#utility.yul\":4057:4175   */\n      pop\n        /* \"#utility.yul\":4214:4216   */\n      0x40\n        /* \"#utility.yul\":4240:4293   */\n      tag_247\n        /* \"#utility.yul\":4285:4292   */\n      dup7\n        /* \"#utility.yul\":4276:4282   */\n      dup3\n        /* \"#utility.yul\":4265:4274   */\n      dup8\n        /* \"#utility.yul\":4261:4283   */\n      add\n        /* \"#utility.yul\":4240:4293   */\n      tag_187\n      jump\t// in\n    tag_247:\n        /* \"#utility.yul\":4230:4293   */\n      swap2\n      pop\n        /* \"#utility.yul\":4185:4303   */\n      pop\n        /* \"#utility.yul\":3691:4310   */\n      swap3\n      pop\n      swap3\n      pop\n      swap3\n      jump\t// out\n        /* \"#utility.yul\":4316:4402   */\n    tag_191:\n        /* \"#utility.yul\":4351:4358   */\n      0x00\n        /* \"#utility.yul\":4391:4395   */\n      0xff\n        /* \"#utility.yul\":4384:4389   */\n      dup3\n        /* \"#utility.yul\":4380:4396   */\n      and\n        /* \"#utility.yul\":4369:4396   */\n      swap1\n      pop\n        /* \"#utility.yul\":4316:4402   */\n      swap2\n      swap1\n      pop\n      jump\t// out\n        /* \"#utility.yul\":4408:4520   */\n    tag_192:\n        /* \"#utility.yul\":4491:4513   */\n      tag_250\n        /* \"#utility.yul\":4507:4512   */\n      dup2\n        /* \"#utility.yul\":4491:4513   */\n      tag_191\n      jump\t// in\n    tag_250:\n        /* \"#utility.yul\":4486:4489   */\n      dup3\n        /* \"#utility.yul\":4479:4514   */\n      mstore\n        /* \"#utility.yul\":4408:4520   */\n      pop\n      pop\n      jump\t// out\n        /* \"#utility.yul\":4526:4740   */\n    tag_42:\n        /* \"#utility.yul\":4615:4619   */\n      0x00\n        /* \"#utility.yul\":4653:4655   */\n      0x20\n        /* \"#utility.yul\":4642:4651   */\n      dup3\n        /* \"#utility.yul\":4638:4656   */\n      add\n        /* \"#utility.yul\":4630:4656   */\n      swap1\n      pop\n        /* \"#utility.yul\":4666:4733   */\n      tag_252\n        /* \"#utility.yul\":4730:4731   */\n      0x00\n        /* \"#utility.yul\":4719:4728   */\n      dup4\n        /* \"#utility.yul\":4715:4732   */\n      add\n        /* \"#utility.yul\":4706:4712   */\n      dup5\n        /* \"#utility.yul\":4666:4733   */\n      tag_192\n      jump\t// in\n    tag_252:\n        /* \"#utility.yul\":4526:4740   */\n      swap3\n      swap2\n      pop\n      pop\n      jump\t// out\n        /* \"#utility.yul\":4746:5075   */\n    tag_48:\n        /* \"#utility.yul\":4805:4811   */\n      0x00\n        /* \"#utility.yul\":4854:4856   */\n      0x20\n        /* \"#utility.yul\":4842:4851   */\n      dup3\n        /* \"#utility.yul\":4833:4840   */\n      dup5\n        /* \"#utility.yul\":4829:4852   */\n      sub\n        /* \"#utility.yul\":4825:4857   */\n      slt\n        /* \"#utility.yul\":4822:4941   */\n      iszero\n      tag_254\n      jumpi\n        /* \"#utility.yul\":4860:4939   */\n      tag_255\n      tag_179\n      jump\t// in\n    tag_255:\n        /* \"#utility.yul\":4822:4941   */\n    tag_254:\n        /* \"#utility.yul\":4980:4981   */\n      0x00\n        /* \"#utility.yul\":5005:5058   */\n      tag_256\n        /* \"#utility.yul\":5050:5057   */\n      dup5\n        /* \"#utility.yul\":5041:5047   */\n      dup3\n        /* \"#utility.yul\":5030:5039   */\n      dup6\n        /* \"#utility.yul\":5026:5048   */\n      add\n        /* \"#utility.yul\":5005:5058   */\n      tag_184\n      jump\t// in\n    tag_256:\n        /* \"#utility.yul\":4995:5058   */\n      swap2\n      pop\n        /* \"#utility.yul\":4951:5068   */\n      pop\n        /* \"#utility.yul\":4746:5075   */\n      swap3\n      swap2\n      pop\n      pop\n      jump\t// out\n        /* \"#utility.yul\":5081:5199   */\n    tag_193:\n        /* \"#utility.yul\":5168:5192   */\n      tag_258\n        /* \"#utility.yul\":5186:5191   */\n      dup2\n        /* \"#utility.yul\":5168:5192   */\n      tag_182\n      jump\t// in\n    tag_258:\n        /* \"#utility.yul\":5163:5166   */\n      dup3\n        /* \"#utility.yul\":5156:5193   */\n      mstore\n        /* \"#utility.yul\":5081:5199   */\n      pop\n      pop\n      jump\t// out\n        /* \"#utility.yul\":5205:5427   */\n    tag_56:\n        /* \"#utility.yul\":5298:5302   */\n      0x00\n        /* \"#utility.yul\":5336:5338   */\n      0x20\n        /* \"#utility.yul\":5325:5334   */\n      dup3\n        /* \"#utility.yul\":5321:5339   */\n      add\n        /* \"#utility.yul\":5313:5339   */\n      swap1\n      pop\n        /* \"#utility.yul\":5349:5420   */\n      tag_260\n        /* \"#utility.yul\":5417:5418   */\n      0x00\n        /* \"#utility.yul\":5406:5415   */\n      dup4\n        /* \"#utility.yul\":5402:5419   */\n      add\n        /* \"#utility.yul\":5393:5399   */\n      dup5\n        /* \"#utility.yul\":5349:5420   */\n      tag_193\n      jump\t// in\n    tag_260:\n        /* \"#utility.yul\":5205:5427   */\n      swap3\n      swap2\n      pop\n      pop\n      jump\t// out\n        /* \"#utility.yul\":5433:5907   */\n    tag_69:\n        /* \"#utility.yul\":5501:5507   */\n      0x00\n        /* \"#utility.yul\":5509:5515   */\n      dup1\n        /* \"#utility.yul\":5558:5560   */\n      0x40\n        /* \"#utility.yul\":5546:5555   */\n      dup4\n        /* \"#utility.yul\":5537:5544   */\n      dup6\n        /* \"#utility.yul\":5533:5556   */\n      sub\n        /* \"#utility.yul\":5529:5561   */\n      slt\n        /* \"#utility.yul\":5526:5645   */\n      iszero\n      tag_262\n      jumpi\n        /* \"#utility.yul\":5564:5643   */\n      tag_263\n      tag_179\n      jump\t// in\n    tag_263:\n        /* \"#utility.yul\":5526:5645   */\n    tag_262:\n        /* \"#utility.yul\":5684:5685   */\n      0x00\n        /* \"#utility.yul\":5709:5762   */\n      tag_264\n        /* \"#utility.yul\":5754:5761   */\n      dup6\n        /* \"#utility.yul\":5745:5751   */\n      dup3\n        /* \"#utility.yul\":5734:5743   */\n      dup7\n        /* \"#utility.yul\":5730:5752   */\n      add\n        /* \"#utility.yul\":5709:5762   */\n      tag_184\n      jump\t// in\n    tag_264:\n        /* \"#utility.yul\":5699:5762   */\n      swap3\n      pop\n        /* \"#utility.yul\":5655:5772   */\n      pop\n        /* \"#utility.yul\":5811:5813   */\n      0x20\n        /* \"#utility.yul\":5837:5890   */\n      tag_265\n        /* \"#utility.yul\":5882:5889   */\n      dup6\n        /* \"#utility.yul\":5873:5879   */\n      dup3\n        /* \"#utility.yul\":5862:5871   */\n      dup7\n        /* \"#utility.yul\":5858:5880   */\n      add\n        /* \"#utility.yul\":5837:5890   */\n      tag_184\n      jump\t// in\n    tag_265:\n        /* \"#utility.yul\":5827:5890   */\n      swap2\n      pop\n        /* \"#utility.yul\":5782:5900   */\n      pop\n        /* \"#utility.yul\":5433:5907   */\n      swap3\n      pop\n      swap3\n      swap1\n      pop\n      jump\t// out\n        /* \"#utility.yul\":5913:6093   */\n    tag_194:\n        /* \"#utility.yul\":5961:6038   */\n      0x4e487b7100000000000000000000000000000000000000000000000000000000\n        /* \"#utility.yul\":5958:5959   */\n      0x00\n        /* \"#utility.yul\":5951:6039   */\n      mstore\n        /* \"#utility.yul\":6058:6062   */\n      0x22\n        /* \"#utility.yul\":6055:6056   */\n      0x04\n        /* \"#utility.yul\":6048:6063   */\n      mstore\n        /* \"#utility.yul\":6082:6086   */\n      0x24\n        /* \"#utility.yul\":6079:6080   */\n      0x00\n        /* \"#utility.yul\":6072:6087   */\n      revert\n        /* \"#utility.yul\":6099:6419   */\n    tag_77:\n        /* \"#utility.yul\":6143:6149   */\n      0x00\n        /* \"#utility.yul\":6180:6181   */\n      0x02\n        /* \"#utility.yul\":6174:6178   */\n      dup3\n        /* \"#utility.yul\":6170:6182   */\n      div\n        /* \"#utility.yul\":6160:6182   */\n      swap1\n      pop\n        /* \"#utility.yul\":6227:6228   */\n      0x01\n        /* \"#utility.yul\":6221:6225   */\n      dup3\n        /* \"#utility.yul\":6217:6229   */\n      and\n        /* \"#utility.yul\":6248:6266   */\n      dup1\n        /* \"#utility.yul\":6238:6319   */\n      tag_268\n      jumpi\n        /* \"#utility.yul\":6304:6308   */\n      0x7f\n        /* \"#utility.yul\":6296:6302   */\n      dup3\n        /* \"#utility.yul\":6292:6309   */\n      and\n        /* \"#utility.yul\":6282:6309   */\n      swap2\n      pop\n        /* \"#utility.yul\":6238:6319   */\n    tag_268:\n        /* \"#utility.yul\":6366:6368   */\n      0x20\n        /* \"#utility.yul\":6358:6364   */\n      dup3\n        /* \"#utility.yul\":6355:6369   */\n      lt\n        /* \"#utility.yul\":6335:6353   */\n      dup2\n        /* \"#utility.yul\":6332:6370   */\n      sub\n        /* \"#utility.yul\":6329:6413   */\n      tag_269\n      jumpi\n        /* \"#utility.yul\":6385:6403   */\n      tag_270\n      tag_194\n      jump\t// in\n    tag_270:\n        /* \"#utility.yul\":6329:6413   */\n    tag_269:\n        /* \"#utility.yul\":6150:6419   */\n      pop\n        /* \"#utility.yul\":6099:6419   */\n      swap2\n      swap1\n      pop\n      jump\t// out\n        /* \"#utility.yul\":6425:6605   */\n    tag_195:\n        /* \"#utility.yul\":6473:6550   */\n      0x4e487b7100000000000000000000000000000000000000000000000000000000\n        /* \"#utility.yul\":6470:6471   */\n      0x00\n        /* \"#utility.yul\":6463:6551   */\n      mstore\n        /* \"#utility.yul\":6570:6574   */\n      0x11\n        /* \"#utility.yul\":6567:6568   */\n      0x04\n        /* \"#utility.yul\":6560:6575   */\n      mstore\n        /* \"#utility.yul\":6594:6598   */\n      0x24\n        /* \"#utility.yul\":6591:6592   */\n      0x00\n        /* \"#utility.yul\":6584:6599   */\n      revert\n        /* \"#utility.yul\":6611:7021   */\n    tag_111:\n        /* \"#utility.yul\":6651:6658   */\n      0x00\n        /* \"#utility.yul\":6674:6694   */\n      tag_273\n        /* \"#utility.yul\":6692:6693   */\n      dup3\n        /* \"#utility.yul\":6674:6694   */\n      tag_185\n      jump\t// in\n    tag_273:\n        /* \"#utility.yul\":6669:6694   */\n      swap2\n      pop\n        /* \"#utility.yul\":6708:6728   */\n      tag_274\n        /* \"#utility.yul\":6726:6727   */\n      dup4\n        /* \"#utility.yul\":6708:6728   */\n      tag_185\n      jump\t// in\n    tag_274:\n        /* \"#utility.yul\":6703:6728   */\n      swap3\n      pop\n        /* \"#utility.yul\":6763:6764   */\n      dup3\n        /* \"#utility.yul\":6760:6761   */\n      dup3\n        /* \"#utility.yul\":6756:6765   */\n      mul\n        /* \"#utility.yul\":6785:6815   */\n      tag_275\n        /* \"#utility.yul\":6803:6814   */\n      dup2\n        /* \"#utility.yul\":6785:6815   */\n      tag_185\n      jump\t// in\n    tag_275:\n        /* \"#utility.yul\":6774:6815   */\n      swap2\n      pop\n        /* \"#utility.yul\":6964:6965   */\n      dup3\n        /* \"#utility.yul\":6955:6962   */\n      dup3\n        /* \"#utility.yul\":6951:6966   */\n      div\n        /* \"#utility.yul\":6948:6949   */\n      dup5\n        /* \"#utility.yul\":6945:6967   */\n      eq\n        /* \"#utility.yul\":6925:6926   */\n      dup4\n        /* \"#utility.yul\":6918:6927   */\n      iszero\n        /* \"#utility.yul\":6898:6981   */\n      or\n        /* \"#utility.yul\":6875:7014   */\n      tag_276\n      jumpi\n        /* \"#utility.yul\":6994:7012   */\n      tag_277\n      tag_195\n      jump\t// in\n    tag_277:\n        /* \"#utility.yul\":6875:7014   */\n    tag_276:\n        /* \"#utility.yul\":6659:7021   */\n      pop\n        /* \"#utility.yul\":6611:7021   */\n      swap3\n      swap2\n      pop\n      pop\n      jump\t// out\n        /* \"#utility.yul\":7027:7207   */\n    tag_196:\n        /* \"#utility.yul\":7075:7152   */\n      0x4e487b7100000000000000000000000000000000000000000000000000000000\n        /* \"#utility.yul\":7072:7073   */\n      0x00\n        /* \"#utility.yul\":7065:7153   */\n      mstore\n        /* \"#utility.yul\":7172:7176   */\n      0x12\n        /* \"#utility.yul\":7169:7170   */\n      0x04\n        /* \"#utility.yul\":7162:7177   */\n      mstore\n        /* \"#utility.yul\":7196:7200   */\n      0x24\n        /* \"#utility.yul\":7193:7194   */\n      0x00\n        /* \"#utility.yul\":7186:7201   */\n      revert\n        /* \"#utility.yul\":7213:7398   */\n    tag_113:\n        /* \"#utility.yul\":7253:7254   */\n      0x00\n        /* \"#utility.yul\":7270:7290   */\n      tag_280\n        /* \"#utility.yul\":7288:7289   */\n      dup3\n        /* \"#utility.yul\":7270:7290   */\n      tag_185\n      jump\t// in\n    tag_280:\n        /* \"#utility.yul\":7265:7290   */\n      swap2\n      pop\n        /* \"#utility.yul\":7304:7324   */\n      tag_281\n        /* \"#utility.yul\":7322:7323   */\n      dup4\n        /* \"#utility.yul\":7304:7324   */\n      tag_185\n      jump\t// in\n    tag_281:\n        /* \"#utility.yul\":7299:7324   */\n      swap3\n      pop\n        /* \"#utility.yul\":7343:7344   */\n      dup3\n        /* \"#utility.yul\":7333:7368   */\n      tag_282\n      jumpi\n        /* \"#utility.yul\":7348:7366   */\n      tag_283\n      tag_196\n      jump\t// in\n    tag_283:\n        /* \"#utility.yul\":7333:7368   */\n    tag_282:\n        /* \"#utility.yul\":7390:7391   */\n      dup3\n        /* \"#utility.yul\":7387:7388   */\n      dup3\n        /* \"#utility.yul\":7383:7392   */\n      div\n        /* \"#utility.yul\":7378:7392   */\n      swap1\n      pop\n        /* \"#utility.yul\":7213:7398   */\n      swap3\n      swap2\n      pop\n      pop\n      jump\t// out\n        /* \"#utility.yul\":7404:7598   */\n    tag_115:\n        /* \"#utility.yul\":7444:7448   */\n      0x00\n        /* \"#utility.yul\":7464:7484   */\n      tag_285\n        /* \"#utility.yul\":7482:7483   */\n      dup3\n        /* \"#utility.yul\":7464:7484   */\n      tag_185\n      jump\t// in\n    tag_285:\n        /* \"#utility.yul\":7459:7484   */\n      swap2\n      pop\n        /* \"#utility.yul\":7498:7518   */\n      tag_286\n        /* \"#utility.yul\":7516:7517   */\n      dup4\n        /* \"#utility.yul\":7498:7518   */\n      tag_185\n      jump\t// in\n    tag_286:\n        /* \"#utility.yul\":7493:7518   */\n      swap3\n      pop\n        /* \"#utility.yul\":7542:7543   */\n      dup3\n        /* \"#utility.yul\":7539:7540   */\n      dup3\n        /* \"#utility.yul\":7535:7544   */\n      sub\n        /* \"#utility.yul\":7527:7544   */\n      swap1\n      pop\n        /* \"#utility.yul\":7566:7567   */\n      dup2\n        /* \"#utility.yul\":7560:7564   */\n      dup2\n        /* \"#utility.yul\":7557:7568   */\n      gt\n        /* \"#utility.yul\":7554:7591   */\n      iszero\n      tag_287\n      jumpi\n        /* \"#utility.yul\":7571:7589   */\n      tag_288\n      tag_195\n      jump\t// in\n    tag_288:\n        /* \"#utility.yul\":7554:7591   */\n    tag_287:\n        /* \"#utility.yul\":7404:7598   */\n      swap3\n      swap2\n      pop\n      pop\n      jump\t// out\n        /* \"#utility.yul\":7604:7795   */\n    tag_117:\n        /* \"#utility.yul\":7644:7647   */\n      0x00\n        /* \"#utility.yul\":7663:7683   */\n      tag_290\n        /* \"#utility.yul\":7681:7682   */\n      dup3\n        /* \"#utility.yul\":7663:7683   */\n      tag_185\n      jump\t// in\n    tag_290:\n        /* \"#utility.yul\":7658:7683   */\n      swap2\n      pop\n        /* \"#utility.yul\":7697:7717   */\n      tag_291\n        /* \"#utility.yul\":7715:7716   */\n      dup4\n        /* \"#utility.yul\":7697:7717   */\n      tag_185\n      jump\t// in\n    tag_291:\n        /* \"#utility.yul\":7692:7717   */\n      swap3\n      pop\n        /* \"#utility.yul\":7740:7741   */\n      dup3\n        /* \"#utility.yul\":7737:7738   */\n      dup3\n        /* \"#utility.yul\":7733:7742   */\n      add\n        /* \"#utility.yul\":7726:7742   */\n      swap1\n      pop\n        /* \"#utility.yul\":7761:7764   */\n      dup1\n        /* \"#utility.yul\":7758:7759   */\n      dup3\n        /* \"#utility.yul\":7755:7765   */\n      gt\n        /* \"#utility.yul\":7752:7788   */\n      iszero\n      tag_292\n      jumpi\n        /* \"#utility.yul\":7768:7786   */\n      tag_293\n      tag_195\n      jump\t// in\n    tag_293:\n        /* \"#utility.yul\":7752:7788   */\n    tag_292:\n        /* \"#utility.yul\":7604:7795   */\n      swap3\n      swap2\n      pop\n      pop\n      jump\t// out\n        /* \"#utility.yul\":7801:7975   */\n    tag_197:\n        /* \"#utility.yul\":7941:7967   */\n      0x5472616e7366657220616d6f756e74206d69736d617463680000000000000000\n        /* \"#utility.yul\":7937:7938   */\n      0x00\n        /* \"#utility.yul\":7929:7935   */\n      dup3\n        /* \"#utility.yul\":7925:7939   */\n      add\n        /* \"#utility.yul\":7918:7968   */\n      mstore\n        /* \"#utility.yul\":7801:7975   */\n      pop\n      jump\t// out\n        /* \"#utility.yul\":7981:8347   */\n    tag_198:\n        /* \"#utility.yul\":8123:8126   */\n      0x00\n        /* \"#utility.yul\":8144:8211   */\n      tag_296\n        /* \"#utility.yul\":8208:8210   */\n      0x18\n        /* \"#utility.yul\":8203:8206   */\n      dup4\n        /* \"#utility.yul\":8144:8211   */\n      tag_174\n      jump\t// in\n    tag_296:\n        /* \"#utility.yul\":8137:8211   */\n      swap2\n      pop\n        /* \"#utility.yul\":8220:8313   */\n      tag_297\n        /* \"#utility.yul\":8309:8312   */\n      dup3\n        /* \"#utility.yul\":8220:8313   */\n      tag_197\n      jump\t// in\n    tag_297:\n        /* \"#utility.yul\":8338:8340   */\n      0x20\n        /* \"#utility.yul\":8333:8336   */\n      dup3\n        /* \"#utility.yul\":8329:8341   */\n      add\n        /* \"#utility.yul\":8322:8341   */\n      swap1\n      pop\n        /* \"#utility.yul\":7981:8347   */\n      swap2\n      swap1\n      pop\n      jump\t// out\n        /* \"#utility.yul\":8353:8772   */\n    tag_120:\n        /* \"#utility.yul\":8519:8523   */\n      0x00\n        /* \"#utility.yul\":8557:8559   */\n      0x20\n        /* \"#utility.yul\":8546:8555   */\n      dup3\n        /* \"#utility.yul\":8542:8560   */\n      add\n        /* \"#utility.yul\":8534:8560   */\n      swap1\n      pop\n        /* \"#utility.yul\":8606:8615   */\n      dup2\n        /* \"#utility.yul\":8600:8604   */\n      dup2\n        /* \"#utility.yul\":8596:8616   */\n      sub\n        /* \"#utility.yul\":8592:8593   */\n      0x00\n        /* \"#utility.yul\":8581:8590   */\n      dup4\n        /* \"#utility.yul\":8577:8594   */\n      add\n        /* \"#utility.yul\":8570:8617   */\n      mstore\n        /* \"#utility.yul\":8634:8765   */\n      tag_299\n        /* \"#utility.yul\":8760:8764   */\n      dup2\n        /* \"#utility.yul\":8634:8765   */\n      tag_198\n      jump\t// in\n    tag_299:\n        /* \"#utility.yul\":8626:8765   */\n      swap1\n      pop\n        /* \"#utility.yul\":8353:8772   */\n      swap2\n      swap1\n      pop\n      jump\t// out\n        /* \"#utility.yul\":8778:9220   */\n    tag_141:\n        /* \"#utility.yul\":8927:8931   */\n      0x00\n        /* \"#utility.yul\":8965:8967   */\n      0x60\n        /* \"#utility.yul\":8954:8963   */\n      dup3\n        /* \"#utility.yul\":8950:8968   */\n      add\n        /* \"#utility.yul\":8942:8968   */\n      swap1\n      pop\n        /* \"#utility.yul\":8978:9049   */\n      tag_301\n        /* \"#utility.yul\":9046:9047   */\n      0x00\n        /* \"#utility.yul\":9035:9044   */\n      dup4\n        /* \"#utility.yul\":9031:9048   */\n      add\n        /* \"#utility.yul\":9022:9028   */\n      dup7\n        /* \"#utility.yul\":8978:9049   */\n      tag_193\n      jump\t// in\n    tag_301:\n        /* \"#utility.yul\":9059:9131   */\n      tag_302\n        /* \"#utility.yul\":9127:9129   */\n      0x20\n        /* \"#utility.yul\":9116:9125   */\n      dup4\n        /* \"#utility.yul\":9112:9130   */\n      add\n        /* \"#utility.yul\":9103:9109   */\n      dup6\n        /* \"#utility.yul\":9059:9131   */\n      tag_190\n      jump\t// in\n    tag_302:\n        /* \"#utility.yul\":9141:9213   */\n      tag_303\n        /* \"#utility.yul\":9209:9211   */\n      0x40\n        /* \"#utility.yul\":9198:9207   */\n      dup4\n        /* \"#utility.yul\":9194:9212   */\n      add\n        /* \"#utility.yul\":9185:9191   */\n      dup5\n        /* \"#utility.yul\":9141:9213   */\n      tag_190\n      jump\t// in\n    tag_303:\n        /* \"#utility.yul\":8778:9220   */\n      swap5\n      swap4\n      pop\n      pop\n      pop\n      pop\n      jump\t// out\n\n    auxdata: 0xa26469706673582212209c9f543877471a81ce9ac52445cff31695aa76711c947e0f48086fdd1aa9dbfd64736f6c63430008190033\n}\n",
				"bytecode": {
					"linkReferences": {},
					"object": "60806040526064600655348015610014575f80fd5b50604051611e59380380611e598339818101604052810190610036919061058b565b816040518060400160405280600681526020017f596f7070656e00000000000000000000000000000000000000000000000000008152506040518060400160405280600381526020017f59504e000000000000000000000000000000000000000000000000000000000081525081600390816100b29190610803565b5080600490816100c29190610803565b5050505f73ffffffffffffffffffffffffffffffffffffffff168173ffffffffffffffffffffffffffffffffffffffff1603610135575f6040517f1e4fbdf700000000000000000000000000000000000000000000000000000000815260040161012c91906108e1565b60405180910390fd5b610144816101c460201b60201c565b5061017d8261015761028760201b60201c565b600a6101639190610a62565b6305f5e1006101729190610aac565b61028f60201b60201c565b8060075f6101000a81548173ffffffffffffffffffffffffffffffffffffffff021916908373ffffffffffffffffffffffffffffffffffffffff1602179055505050610b7d565b5f60055f9054906101000a900473ffffffffffffffffffffffffffffffffffffffff1690508160055f6101000a81548173ffffffffffffffffffffffffffffffffffffffff021916908373ffffffffffffffffffffffffffffffffffffffff1602179055508173ffffffffffffffffffffffffffffffffffffffff168173ffffffffffffffffffffffffffffffffffffffff167f8be0079c531659141344cd1fd0a4f28419497f9722a3daafe3b4186f6b6457e060405160405180910390a35050565b5f6012905090565b5f73ffffffffffffffffffffffffffffffffffffffff168273ffffffffffffffffffffffffffffffffffffffff16036102ff575f6040517fec442f050000000000000000000000000000000000000000000000000000000081526004016102f691906108e1565b60405180910390fd5b6103105f838361031460201b60201c565b5050565b5f73ffffffffffffffffffffffffffffffffffffffff168373ffffffffffffffffffffffffffffffffffffffff1603610364578060025f8282546103589190610aed565b92505081905550610432565b5f805f8573ffffffffffffffffffffffffffffffffffffffff1673ffffffffffffffffffffffffffffffffffffffff1681526020019081526020015f20549050818110156103ed578381836040517fe450d38c0000000000000000000000000000000000000000000000000000000081526004016103e493929190610b2f565b60405180910390fd5b8181035f808673ffffffffffffffffffffffffffffffffffffffff1673ffffffffffffffffffffffffffffffffffffffff1681526020019081526020015f2081905550505b5f73ffffffffffffffffffffffffffffffffffffffff168273ffffffffffffffffffffffffffffffffffffffff1603610479578060025f82825403925050819055506104c3565b805f808473ffffffffffffffffffffffffffffffffffffffff1673ffffffffffffffffffffffffffffffffffffffff1681526020019081526020015f205f82825401925050819055505b8173ffffffffffffffffffffffffffffffffffffffff168373ffffffffffffffffffffffffffffffffffffffff167fddf252ad1be2c89b69c2b068fc378daa952ba7f163c4a11628f55a4df523b3ef836040516105209190610b64565b60405180910390a3505050565b5f80fd5b5f73ffffffffffffffffffffffffffffffffffffffff82169050919050565b5f61055a82610531565b9050919050565b61056a81610550565b8114610574575f80fd5b50565b5f8151905061058581610561565b92915050565b5f80604083850312156105a1576105a061052d565b5b5f6105ae85828601610577565b92505060206105bf85828601610577565b9150509250929050565b5f81519050919050565b7f4e487b71000000000000000000000000000000000000000000000000000000005f52604160045260245ffd5b7f4e487b71000000000000000000000000000000000000000000000000000000005f52602260045260245ffd5b5f600282049050600182168061064457607f821691505b60208210810361065757610656610600565b5b50919050565b5f819050815f5260205f209050919050565b5f6020601f8301049050919050565b5f82821b905092915050565b5f600883026106b97fffffffffffffffffffffffffffffffffffffffffffffffffffffffffffffffff8261067e565b6106c3868361067e565b95508019841693508086168417925050509392505050565b5f819050919050565b5f819050919050565b5f6107076107026106fd846106db565b6106e4565b6106db565b9050919050565b5f819050919050565b610720836106ed565b61073461072c8261070e565b84845461068a565b825550505050565b5f90565b61074861073c565b610753818484610717565b505050565b5b818110156107765761076b5f82610740565b600181019050610759565b5050565b601f8211156107bb5761078c8161065d565b6107958461066f565b810160208510156107a4578190505b6107b86107b08561066f565b830182610758565b50505b505050565b5f82821c905092915050565b5f6107db5f19846008026107c0565b1980831691505092915050565b5f6107f383836107cc565b9150826002028217905092915050565b61080c826105c9565b67ffffffffffffffff811115610825576108246105d3565b5b61082f825461062d565b61083a82828561077a565b5f60209050601f83116001811461086b575f8415610859578287015190505b61086385826107e8565b8655506108ca565b601f1984166108798661065d565b5f5b828110156108a05784890151825560018201915060208501945060208101905061087b565b868310156108bd57848901516108b9601f8916826107cc565b8355505b6001600288020188555050505b505050505050565b6108db81610550565b82525050565b5f6020820190506108f45f8301846108d2565b92915050565b7f4e487b71000000000000000000000000000000000000000000000000000000005f52601160045260245ffd5b5f8160011c9050919050565b5f808291508390505b600185111561097c57808604811115610958576109576108fa565b5b60018516156109675780820291505b808102905061097585610927565b945061093c565b94509492505050565b5f826109945760019050610a4f565b816109a1575f9050610a4f565b81600181146109b757600281146109c1576109f0565b6001915050610a4f565b60ff8411156109d3576109d26108fa565b5b8360020a9150848211156109ea576109e96108fa565b5b50610a4f565b5060208310610133831016604e8410600b8410161715610a255782820a905083811115610a2057610a1f6108fa565b5b610a4f565b610a328484846001610933565b92509050818404811115610a4957610a486108fa565b5b81810290505b9392505050565b5f60ff82169050919050565b5f610a6c826106db565b9150610a7783610a56565b9250610aa47fffffffffffffffffffffffffffffffffffffffffffffffffffffffffffffffff8484610985565b905092915050565b5f610ab6826106db565b9150610ac1836106db565b9250828202610acf816106db565b91508282048414831517610ae657610ae56108fa565b5b5092915050565b5f610af7826106db565b9150610b02836106db565b9250828201905080821115610b1a57610b196108fa565b5b92915050565b610b29816106db565b82525050565b5f606082019050610b425f8301866108d2565b610b4f6020830185610b20565b610b5c6040830184610b20565b949350505050565b5f602082019050610b775f830184610b20565b92915050565b6112cf80610b8a5f395ff3fe608060405234801561000f575f80fd5b50600436106100e8575f3560e01c8063715018a61161008a578063a9059cbb11610064578063a9059cbb1461023a578063c5f956af1461026a578063dd62ed3e14610288578063f2fde38b146102b8576100e8565b8063715018a6146101f45780638da5cb5b146101fe57806395d89b411461021c576100e8565b806323b872dd116100c657806323b872dd14610158578063313ce567146101885780635ea1d6f8146101a657806370a08231146101c4576100e8565b806306fdde03146100ec578063095ea7b31461010a57806318160ddd1461013a575b5f80fd5b6100f46102d4565b6040516101019190610e0f565b60405180910390f35b610124600480360381019061011f9190610ec0565b610364565b6040516101319190610f18565b60405180910390f35b610142610386565b60405161014f9190610f40565b60405180910390f35b610172600480360381019061016d9190610f59565b61038f565b60405161017f9190610f18565b60405180910390f35b6101906103bd565b60405161019d9190610fc4565b60405180910390f35b6101ae6103c5565b6040516101bb9190610f40565b60405180910390f35b6101de60048036038101906101d99190610fdd565b6103cb565b6040516101eb9190610f40565b60405180910390f35b6101fc610410565b005b610206610423565b6040516102139190611017565b60405180910390f35b61022461044b565b6040516102319190610e0f565b60405180910390f35b610254600480360381019061024f9190610ec0565b6104db565b6040516102619190610f18565b60405180910390f35b6102726105a7565b60405161027f9190611017565b60405180910390f35b6102a2600480360381019061029d9190611030565b6105cc565b6040516102af9190610f40565b60405180910390f35b6102d260048036038101906102cd9190610fdd565b61064e565b005b6060600380546102e39061109b565b80601f016020809104026020016040519081016040528092919081815260200182805461030f9061109b565b801561035a5780601f106103315761010080835404028352916020019161035a565b820191905f5260205f20905b81548152906001019060200180831161033d57829003601f168201915b5050505050905090565b5f8061036e6106d2565b905061037b8185856106d9565b600191505092915050565b5f600254905090565b5f806103996106d2565b90506103a68582856106eb565b6103b185858561077d565b60019150509392505050565b5f6012905090565b60065481565b5f805f8373ffffffffffffffffffffffffffffffffffffffff1673ffffffffffffffffffffffffffffffffffffffff1681526020019081526020015f20549050919050565b61041861086d565b6104215f6108f4565b565b5f60055f9054906101000a900473ffffffffffffffffffffffffffffffffffffffff16905090565b60606004805461045a9061109b565b80601f01602080910402602001604051908101604052809291908181526020018280546104869061109b565b80156104d15780601f106104a8576101008083540402835291602001916104d1565b820191905f5260205f20905b8154815290600101906020018083116104b457829003601f168201915b5050505050905090565b5f80612710600654846104ee91906110f8565b6104f89190611166565b90505f81846105079190611196565b9050818161051591906111c9565b8414610556576040517f08c379a000000000000000000000000000000000000000000000000000000000815260040161054d90611246565b60405180910390fd5b6105896105616106d2565b60075f9054906101000a900473ffffffffffffffffffffffffffffffffffffffff168461077d565b61059b6105946106d2565b868361077d565b60019250505092915050565b60075f9054906101000a900473ffffffffffffffffffffffffffffffffffffffff1681565b5f60015f8473ffffffffffffffffffffffffffffffffffffffff1673ffffffffffffffffffffffffffffffffffffffff1681526020019081526020015f205f8373ffffffffffffffffffffffffffffffffffffffff1673ffffffffffffffffffffffffffffffffffffffff1681526020019081526020015f2054905092915050565b61065661086d565b5f73ffffffffffffffffffffffffffffffffffffffff168173ffffffffffffffffffffffffffffffffffffffff16036106c6575f6040517f1e4fbdf70000000000000000000000000000000000000000000000000000000081526004016106bd9190611017565b60405180910390fd5b6106cf816108f4565b50565b5f33905090565b6106e683838360016109b7565b505050565b5f6106f684846105cc565b90507fffffffffffffffffffffffffffffffffffffffffffffffffffffffffffffffff81146107775781811015610768578281836040517ffb8f41b200000000000000000000000000000000000000000000000000000000815260040161075f93929190611264565b60405180910390fd5b61077684848484035f6109b7565b5b50505050565b5f73ffffffffffffffffffffffffffffffffffffffff168373ffffffffffffffffffffffffffffffffffffffff16036107ed575f6040517f96c6fd1e0000000000000000000000000000000000000000000000000000000081526004016107e49190611017565b60405180910390fd5b5f73ffffffffffffffffffffffffffffffffffffffff168273ffffffffffffffffffffffffffffffffffffffff160361085d575f6040517fec442f050000000000000000000000000000000000000000000000000000000081526004016108549190611017565b60405180910390fd5b610868838383610b86565b505050565b6108756106d2565b73ffffffffffffffffffffffffffffffffffffffff16610893610423565b73ffffffffffffffffffffffffffffffffffffffff16146108f2576108b66106d2565b6040517f118cdaa70000000000000000000000000000000000000000000000000000000081526004016108e99190611017565b60405180910390fd5b565b5f60055f9054906101000a900473ffffffffffffffffffffffffffffffffffffffff1690508160055f6101000a81548173ffffffffffffffffffffffffffffffffffffffff021916908373ffffffffffffffffffffffffffffffffffffffff1602179055508173ffffffffffffffffffffffffffffffffffffffff168173ffffffffffffffffffffffffffffffffffffffff167f8be0079c531659141344cd1fd0a4f28419497f9722a3daafe3b4186f6b6457e060405160405180910390a35050565b5f73ffffffffffffffffffffffffffffffffffffffff168473ffffffffffffffffffffffffffffffffffffffff1603610a27575f6040517fe602df05000000000000000000000000000000000000000000000000000000008152600401610a1e9190611017565b60405180910390fd5b5f73ffffffffffffffffffffffffffffffffffffffff168373ffffffffffffffffffffffffffffffffffffffff1603610a97575f6040517f94280d62000000000000000000000000000000000000000000000000000000008152600401610a8e9190611017565b60405180910390fd5b8160015f8673ffffffffffffffffffffffffffffffffffffffff1673ffffffffffffffffffffffffffffffffffffffff1681526020019081526020015f205f8573ffffffffffffffffffffffffffffffffffffffff1673ffffffffffffffffffffffffffffffffffffffff1681526020019081526020015f20819055508015610b80578273ffffffffffffffffffffffffffffffffffffffff168473ffffffffffffffffffffffffffffffffffffffff167f8c5be1e5ebec7d5bd14f71427d1e84f3dd0314c0f7b2291e5b200ac8c7c3b92584604051610b779190610f40565b60405180910390a35b50505050565b5f73ffffffffffffffffffffffffffffffffffffffff168373ffffffffffffffffffffffffffffffffffffffff1603610bd6578060025f828254610bca91906111c9565b92505081905550610ca4565b5f805f8573ffffffffffffffffffffffffffffffffffffffff1673ffffffffffffffffffffffffffffffffffffffff1681526020019081526020015f2054905081811015610c5f578381836040517fe450d38c000000000000000000000000000000000000000000000000000000008152600401610c5693929190611264565b60405180910390fd5b8181035f808673ffffffffffffffffffffffffffffffffffffffff1673ffffffffffffffffffffffffffffffffffffffff1681526020019081526020015f2081905550505b5f73ffffffffffffffffffffffffffffffffffffffff168273ffffffffffffffffffffffffffffffffffffffff1603610ceb578060025f8282540392505081905550610d35565b805f808473ffffffffffffffffffffffffffffffffffffffff1673ffffffffffffffffffffffffffffffffffffffff1681526020019081526020015f205f82825401925050819055505b8173ffffffffffffffffffffffffffffffffffffffff168373ffffffffffffffffffffffffffffffffffffffff167fddf252ad1be2c89b69c2b068fc378daa952ba7f163c4a11628f55a4df523b3ef83604051610d929190610f40565b60405180910390a3505050565b5f81519050919050565b5f82825260208201905092915050565b8281835e5f83830152505050565b5f601f19601f8301169050919050565b5f610de182610d9f565b610deb8185610da9565b9350610dfb818560208601610db9565b610e0481610dc7565b840191505092915050565b5f6020820190508181035f830152610e278184610dd7565b905092915050565b5f80fd5b5f73ffffffffffffffffffffffffffffffffffffffff82169050919050565b5f610e5c82610e33565b9050919050565b610e6c81610e52565b8114610e76575f80fd5b50565b5f81359050610e8781610e63565b92915050565b5f819050919050565b610e9f81610e8d565b8114610ea9575f80fd5b50565b5f81359050610eba81610e96565b92915050565b5f8060408385031215610ed657610ed5610e2f565b5b5f610ee385828601610e79565b9250506020610ef485828601610eac565b9150509250929050565b5f8115159050919050565b610f1281610efe565b82525050565b5f602082019050610f2b5f830184610f09565b92915050565b610f3a81610e8d565b82525050565b5f602082019050610f535f830184610f31565b92915050565b5f805f60608486031215610f7057610f6f610e2f565b5b5f610f7d86828701610e79565b9350506020610f8e86828701610e79565b9250506040610f9f86828701610eac565b9150509250925092565b5f60ff82169050919050565b610fbe81610fa9565b82525050565b5f602082019050610fd75f830184610fb5565b92915050565b5f60208284031215610ff257610ff1610e2f565b5b5f610fff84828501610e79565b91505092915050565b61101181610e52565b82525050565b5f60208201905061102a5f830184611008565b92915050565b5f806040838503121561104657611045610e2f565b5b5f61105385828601610e79565b925050602061106485828601610e79565b9150509250929050565b7f4e487b71000000000000000000000000000000000000000000000000000000005f52602260045260245ffd5b5f60028204905060018216806110b257607f821691505b6020821081036110c5576110c461106e565b5b50919050565b7f4e487b71000000000000000000000000000000000000000000000000000000005f52601160045260245ffd5b5f61110282610e8d565b915061110d83610e8d565b925082820261111b81610e8d565b91508282048414831517611132576111316110cb565b5b5092915050565b7f4e487b71000000000000000000000000000000000000000000000000000000005f52601260045260245ffd5b5f61117082610e8d565b915061117b83610e8d565b92508261118b5761118a611139565b5b828204905092915050565b5f6111a082610e8d565b91506111ab83610e8d565b92508282039050818111156111c3576111c26110cb565b5b92915050565b5f6111d382610e8d565b91506111de83610e8d565b92508282019050808211156111f6576111f56110cb565b5b92915050565b7f5472616e7366657220616d6f756e74206d69736d6174636800000000000000005f82015250565b5f611230601883610da9565b915061123b826111fc565b602082019050919050565b5f6020820190508181035f83015261125d81611224565b9050919050565b5f6060820190506112775f830186611008565b6112846020830185610f31565b6112916040830184610f31565b94935050505056fea26469706673582212209c9f543877471a81ce9ac52445cff31695aa76711c947e0f48086fdd1aa9dbfd64736f6c63430008190033",
					"opcodes": "PUSH1 0x80 PUSH1 0x40 MSTORE PUSH1 0x64 PUSH1 0x6 SSTORE CALLVALUE DUP1 ISZERO PUSH2 0x14 JUMPI PUSH0 DUP1 REVERT JUMPDEST POP PUSH1 0x40 MLOAD PUSH2 0x1E59 CODESIZE SUB DUP1 PUSH2 0x1E59 DUP4 CODECOPY DUP2 DUP2 ADD PUSH1 0x40 MSTORE DUP2 ADD SWAP1 PUSH2 0x36 SWAP2 SWAP1 PUSH2 0x58B JUMP JUMPDEST DUP2 PUSH1 0x40 MLOAD DUP1 PUSH1 0x40 ADD PUSH1 0x40 MSTORE DUP1 PUSH1 0x6 DUP2 MSTORE PUSH1 0x20 ADD PUSH32 0x596F7070656E0000000000000000000000000000000000000000000000000000 DUP2 MSTORE POP PUSH1 0x40 MLOAD DUP1 PUSH1 0x40 ADD PUSH1 0x40 MSTORE DUP1 PUSH1 0x3 DUP2 MSTORE PUSH1 0x20 ADD PUSH32 0x59504E0000000000000000000000000000000000000000000000000000000000 DUP2 MSTORE POP DUP2 PUSH1 0x3 SWAP1 DUP2 PUSH2 0xB2 SWAP2 SWAP1 PUSH2 0x803 JUMP JUMPDEST POP DUP1 PUSH1 0x4 SWAP1 DUP2 PUSH2 0xC2 SWAP2 SWAP1 PUSH2 0x803 JUMP JUMPDEST POP POP POP PUSH0 PUSH20 0xFFFFFFFFFFFFFFFFFFFFFFFFFFFFFFFFFFFFFFFF AND DUP2 PUSH20 0xFFFFFFFFFFFFFFFFFFFFFFFFFFFFFFFFFFFFFFFF AND SUB PUSH2 0x135 JUMPI PUSH0 PUSH1 0x40 MLOAD PUSH32 0x1E4FBDF700000000000000000000000000000000000000000000000000000000 DUP2 MSTORE PUSH1 0x4 ADD PUSH2 0x12C SWAP2 SWAP1 PUSH2 0x8E1 JUMP JUMPDEST PUSH1 0x40 MLOAD DUP1 SWAP2 SUB SWAP1 REVERT JUMPDEST PUSH2 0x144 DUP2 PUSH2 0x1C4 PUSH1 0x20 SHL PUSH1 0x20 SHR JUMP JUMPDEST POP PUSH2 0x17D DUP3 PUSH2 0x157 PUSH2 0x287 PUSH1 0x20 SHL PUSH1 0x20 SHR JUMP JUMPDEST PUSH1 0xA PUSH2 0x163 SWAP2 SWAP1 PUSH2 0xA62 JUMP JUMPDEST PUSH4 0x5F5E100 PUSH2 0x172 SWAP2 SWAP1 PUSH2 0xAAC JUMP JUMPDEST PUSH2 0x28F PUSH1 0x20 SHL PUSH1 0x20 SHR JUMP JUMPDEST DUP1 PUSH1 0x7 PUSH0 PUSH2 0x100 EXP DUP2 SLOAD DUP2 PUSH20 0xFFFFFFFFFFFFFFFFFFFFFFFFFFFFFFFFFFFFFFFF MUL NOT AND SWAP1 DUP4 PUSH20 0xFFFFFFFFFFFFFFFFFFFFFFFFFFFFFFFFFFFFFFFF AND MUL OR SWAP1 SSTORE POP POP POP PUSH2 0xB7D JUMP JUMPDEST PUSH0 PUSH1 0x5 PUSH0 SWAP1 SLOAD SWAP1 PUSH2 0x100 EXP SWAP1 DIV PUSH20 0xFFFFFFFFFFFFFFFFFFFFFFFFFFFFFFFFFFFFFFFF AND SWAP1 POP DUP2 PUSH1 0x5 PUSH0 PUSH2 0x100 EXP DUP2 SLOAD DUP2 PUSH20 0xFFFFFFFFFFFFFFFFFFFFFFFFFFFFFFFFFFFFFFFF MUL NOT AND SWAP1 DUP4 PUSH20 0xFFFFFFFFFFFFFFFFFFFFFFFFFFFFFFFFFFFFFFFF AND MUL OR SWAP1 SSTORE POP DUP2 PUSH20 0xFFFFFFFFFFFFFFFFFFFFFFFFFFFFFFFFFFFFFFFF AND DUP2 PUSH20 0xFFFFFFFFFFFFFFFFFFFFFFFFFFFFFFFFFFFFFFFF AND PUSH32 0x8BE0079C531659141344CD1FD0A4F28419497F9722A3DAAFE3B4186F6B6457E0 PUSH1 0x40 MLOAD PUSH1 0x40 MLOAD DUP1 SWAP2 SUB SWAP1 LOG3 POP POP JUMP JUMPDEST PUSH0 PUSH1 0x12 SWAP1 POP SWAP1 JUMP JUMPDEST PUSH0 PUSH20 0xFFFFFFFFFFFFFFFFFFFFFFFFFFFFFFFFFFFFFFFF AND DUP3 PUSH20 0xFFFFFFFFFFFFFFFFFFFFFFFFFFFFFFFFFFFFFFFF AND SUB PUSH2 0x2FF JUMPI PUSH0 PUSH1 0x40 MLOAD PUSH32 0xEC442F0500000000000000000000000000000000000000000000000000000000 DUP2 MSTORE PUSH1 0x4 ADD PUSH2 0x2F6 SWAP2 SWAP1 PUSH2 0x8E1 JUMP JUMPDEST PUSH1 0x40 MLOAD DUP1 SWAP2 SUB SWAP1 REVERT JUMPDEST PUSH2 0x310 PUSH0 DUP4 DUP4 PUSH2 0x314 PUSH1 0x20 SHL PUSH1 0x20 SHR JUMP JUMPDEST POP POP JUMP JUMPDEST PUSH0 PUSH20 0xFFFFFFFFFFFFFFFFFFFFFFFFFFFFFFFFFFFFFFFF AND DUP4 PUSH20 0xFFFFFFFFFFFFFFFFFFFFFFFFFFFFFFFFFFFFFFFF AND SUB PUSH2 0x364 JUMPI DUP1 PUSH1 0x2 PUSH0 DUP3 DUP3 SLOAD PUSH2 0x358 SWAP2 SWAP1 PUSH2 0xAED JUMP JUMPDEST SWAP3 POP POP DUP2 SWAP1 SSTORE POP PUSH2 0x432 JUMP JUMPDEST PUSH0 DUP1 PUSH0 DUP6 PUSH20 0xFFFFFFFFFFFFFFFFFFFFFFFFFFFFFFFFFFFFFFFF AND PUSH20 0xFFFFFFFFFFFFFFFFFFFFFFFFFFFFFFFFFFFFFFFF AND DUP2 MSTORE PUSH1 0x20 ADD SWAP1 DUP2 MSTORE PUSH1 0x20 ADD PUSH0 KECCAK256 SLOAD SWAP1 POP DUP2 DUP2 LT ISZERO PUSH2 0x3ED JUMPI DUP4 DUP2 DUP4 PUSH1 0x40 MLOAD PUSH32 0xE450D38C00000000000000000000000000000000000000000000000000000000 DUP2 MSTORE PUSH1 0x4 ADD PUSH2 0x3E4 SWAP4 SWAP3 SWAP2 SWAP1 PUSH2 0xB2F JUMP JUMPDEST PUSH1 0x40 MLOAD DUP1 SWAP2 SUB SWAP1 REVERT JUMPDEST DUP2 DUP2 SUB PUSH0 DUP1 DUP7 PUSH20 0xFFFFFFFFFFFFFFFFFFFFFFFFFFFFFFFFFFFFFFFF AND PUSH20 0xFFFFFFFFFFFFFFFFFFFFFFFFFFFFFFFFFFFFFFFF AND DUP2 MSTORE PUSH1 0x20 ADD SWAP1 DUP2 MSTORE PUSH1 0x20 ADD PUSH0 KECCAK256 DUP2 SWAP1 SSTORE POP POP JUMPDEST PUSH0 PUSH20 0xFFFFFFFFFFFFFFFFFFFFFFFFFFFFFFFFFFFFFFFF AND DUP3 PUSH20 0xFFFFFFFFFFFFFFFFFFFFFFFFFFFFFFFFFFFFFFFF AND SUB PUSH2 0x479 JUMPI DUP1 PUSH1 0x2 PUSH0 DUP3 DUP3 SLOAD SUB SWAP3 POP POP DUP2 SWAP1 SSTORE POP PUSH2 0x4C3 JUMP JUMPDEST DUP1 PUSH0 DUP1 DUP5 PUSH20 0xFFFFFFFFFFFFFFFFFFFFFFFFFFFFFFFFFFFFFFFF AND PUSH20 0xFFFFFFFFFFFFFFFFFFFFFFFFFFFFFFFFFFFFFFFF AND DUP2 MSTORE PUSH1 0x20 ADD SWAP1 DUP2 MSTORE PUSH1 0x20 ADD PUSH0 KECCAK256 PUSH0 DUP3 DUP3 SLOAD ADD SWAP3 POP POP DUP2 SWAP1 SSTORE POP JUMPDEST DUP2 PUSH20 0xFFFFFFFFFFFFFFFFFFFFFFFFFFFFFFFFFFFFFFFF AND DUP4 PUSH20 0xFFFFFFFFFFFFFFFFFFFFFFFFFFFFFFFFFFFFFFFF AND PUSH32 0xDDF252AD1BE2C89B69C2B068FC378DAA952BA7F163C4A11628F55A4DF523B3EF DUP4 PUSH1 0x40 MLOAD PUSH2 0x520 SWAP2 SWAP1 PUSH2 0xB64 JUMP JUMPDEST PUSH1 0x40 MLOAD DUP1 SWAP2 SUB SWAP1 LOG3 POP POP POP JUMP JUMPDEST PUSH0 DUP1 REVERT JUMPDEST PUSH0 PUSH20 0xFFFFFFFFFFFFFFFFFFFFFFFFFFFFFFFFFFFFFFFF DUP3 AND SWAP1 POP SWAP2 SWAP1 POP JUMP JUMPDEST PUSH0 PUSH2 0x55A DUP3 PUSH2 0x531 JUMP JUMPDEST SWAP1 POP SWAP2 SWAP1 POP JUMP JUMPDEST PUSH2 0x56A DUP2 PUSH2 0x550 JUMP JUMPDEST DUP2 EQ PUSH2 0x574 JUMPI PUSH0 DUP1 REVERT JUMPDEST POP JUMP JUMPDEST PUSH0 DUP2 MLOAD SWAP1 POP PUSH2 0x585 DUP2 PUSH2 0x561 JUMP JUMPDEST SWAP3 SWAP2 POP POP JUMP JUMPDEST PUSH0 DUP1 PUSH1 0x40 DUP4 DUP6 SUB SLT ISZERO PUSH2 0x5A1 JUMPI PUSH2 0x5A0 PUSH2 0x52D JUMP JUMPDEST JUMPDEST PUSH0 PUSH2 0x5AE DUP6 DUP3 DUP7 ADD PUSH2 0x577 JUMP JUMPDEST SWAP3 POP POP PUSH1 0x20 PUSH2 0x5BF DUP6 DUP3 DUP7 ADD PUSH2 0x577 JUMP JUMPDEST SWAP2 POP POP SWAP3 POP SWAP3 SWAP1 POP JUMP JUMPDEST PUSH0 DUP2 MLOAD SWAP1 POP SWAP2 SWAP1 POP JUMP JUMPDEST PUSH32 0x4E487B7100000000000000000000000000000000000000000000000000000000 PUSH0 MSTORE PUSH1 0x41 PUSH1 0x4 MSTORE PUSH1 0x24 PUSH0 REVERT JUMPDEST PUSH32 0x4E487B7100000000000000000000000000000000000000000000000000000000 PUSH0 MSTORE PUSH1 0x22 PUSH1 0x4 MSTORE PUSH1 0x24 PUSH0 REVERT JUMPDEST PUSH0 PUSH1 0x2 DUP3 DIV SWAP1 POP PUSH1 0x1 DUP3 AND DUP1 PUSH2 0x644 JUMPI PUSH1 0x7F DUP3 AND SWAP2 POP JUMPDEST PUSH1 0x20 DUP3 LT DUP2 SUB PUSH2 0x657 JUMPI PUSH2 0x656 PUSH2 0x600 JUMP JUMPDEST JUMPDEST POP SWAP2 SWAP1 POP JUMP JUMPDEST PUSH0 DUP2 SWAP1 POP DUP2 PUSH0 MSTORE PUSH1 0x20 PUSH0 KECCAK256 SWAP1 POP SWAP2 SWAP1 POP JUMP JUMPDEST PUSH0 PUSH1 0x20 PUSH1 0x1F DUP4 ADD DIV SWAP1 POP SWAP2 SWAP1 POP JUMP JUMPDEST PUSH0 DUP3 DUP3 SHL SWAP1 POP SWAP3 SWAP2 POP POP JUMP JUMPDEST PUSH0 PUSH1 0x8 DUP4 MUL PUSH2 0x6B9 PUSH32 0xFFFFFFFFFFFFFFFFFFFFFFFFFFFFFFFFFFFFFFFFFFFFFFFFFFFFFFFFFFFFFFFF DUP3 PUSH2 0x67E JUMP JUMPDEST PUSH2 0x6C3 DUP7 DUP4 PUSH2 0x67E JUMP JUMPDEST SWAP6 POP DUP1 NOT DUP5 AND SWAP4 POP DUP1 DUP7 AND DUP5 OR SWAP3 POP POP POP SWAP4 SWAP3 POP POP POP JUMP JUMPDEST PUSH0 DUP2 SWAP1 POP SWAP2 SWAP1 POP JUMP JUMPDEST PUSH0 DUP2 SWAP1 POP SWAP2 SWAP1 POP JUMP JUMPDEST PUSH0 PUSH2 0x707 PUSH2 0x702 PUSH2 0x6FD DUP5 PUSH2 0x6DB JUMP JUMPDEST PUSH2 0x6E4 JUMP JUMPDEST PUSH2 0x6DB JUMP JUMPDEST SWAP1 POP SWAP2 SWAP1 POP JUMP JUMPDEST PUSH0 DUP2 SWAP1 POP SWAP2 SWAP1 POP JUMP JUMPDEST PUSH2 0x720 DUP4 PUSH2 0x6ED JUMP JUMPDEST PUSH2 0x734 PUSH2 0x72C DUP3 PUSH2 0x70E JUMP JUMPDEST DUP5 DUP5 SLOAD PUSH2 0x68A JUMP JUMPDEST DUP3 SSTORE POP POP POP POP JUMP JUMPDEST PUSH0 SWAP1 JUMP JUMPDEST PUSH2 0x748 PUSH2 0x73C JUMP JUMPDEST PUSH2 0x753 DUP2 DUP5 DUP5 PUSH2 0x717 JUMP JUMPDEST POP POP POP JUMP JUMPDEST JUMPDEST DUP2 DUP2 LT ISZERO PUSH2 0x776 JUMPI PUSH2 0x76B PUSH0 DUP3 PUSH2 0x740 JUMP JUMPDEST PUSH1 0x1 DUP2 ADD SWAP1 POP PUSH2 0x759 JUMP JUMPDEST POP POP JUMP JUMPDEST PUSH1 0x1F DUP3 GT ISZERO PUSH2 0x7BB JUMPI PUSH2 0x78C DUP2 PUSH2 0x65D JUMP JUMPDEST PUSH2 0x795 DUP5 PUSH2 0x66F JUMP JUMPDEST DUP2 ADD PUSH1 0x20 DUP6 LT ISZERO PUSH2 0x7A4 JUMPI DUP2 SWAP1 POP JUMPDEST PUSH2 0x7B8 PUSH2 0x7B0 DUP6 PUSH2 0x66F JUMP JUMPDEST DUP4 ADD DUP3 PUSH2 0x758 JUMP JUMPDEST POP POP JUMPDEST POP POP POP JUMP JUMPDEST PUSH0 DUP3 DUP3 SHR SWAP1 POP SWAP3 SWAP2 POP POP JUMP JUMPDEST PUSH0 PUSH2 0x7DB PUSH0 NOT DUP5 PUSH1 0x8 MUL PUSH2 0x7C0 JUMP JUMPDEST NOT DUP1 DUP4 AND SWAP2 POP POP SWAP3 SWAP2 POP POP JUMP JUMPDEST PUSH0 PUSH2 0x7F3 DUP4 DUP4 PUSH2 0x7CC JUMP JUMPDEST SWAP2 POP DUP3 PUSH1 0x2 MUL DUP3 OR SWAP1 POP SWAP3 SWAP2 POP POP JUMP JUMPDEST PUSH2 0x80C DUP3 PUSH2 0x5C9 JUMP JUMPDEST PUSH8 0xFFFFFFFFFFFFFFFF DUP2 GT ISZERO PUSH2 0x825 JUMPI PUSH2 0x824 PUSH2 0x5D3 JUMP JUMPDEST JUMPDEST PUSH2 0x82F DUP3 SLOAD PUSH2 0x62D JUMP JUMPDEST PUSH2 0x83A DUP3 DUP3 DUP6 PUSH2 0x77A JUMP JUMPDEST PUSH0 PUSH1 0x20 SWAP1 POP PUSH1 0x1F DUP4 GT PUSH1 0x1 DUP2 EQ PUSH2 0x86B JUMPI PUSH0 DUP5 ISZERO PUSH2 0x859 JUMPI DUP3 DUP8 ADD MLOAD SWAP1 POP JUMPDEST PUSH2 0x863 DUP6 DUP3 PUSH2 0x7E8 JUMP JUMPDEST DUP7 SSTORE POP PUSH2 0x8CA JUMP JUMPDEST PUSH1 0x1F NOT DUP5 AND PUSH2 0x879 DUP7 PUSH2 0x65D JUMP JUMPDEST PUSH0 JUMPDEST DUP3 DUP2 LT ISZERO PUSH2 0x8A0 JUMPI DUP5 DUP10 ADD MLOAD DUP3 SSTORE PUSH1 0x1 DUP3 ADD SWAP2 POP PUSH1 0x20 DUP6 ADD SWAP5 POP PUSH1 0x20 DUP2 ADD SWAP1 POP PUSH2 0x87B JUMP JUMPDEST DUP7 DUP4 LT ISZERO PUSH2 0x8BD JUMPI DUP5 DUP10 ADD MLOAD PUSH2 0x8B9 PUSH1 0x1F DUP10 AND DUP3 PUSH2 0x7CC JUMP JUMPDEST DUP4 SSTORE POP JUMPDEST PUSH1 0x1 PUSH1 0x2 DUP9 MUL ADD DUP9 SSTORE POP POP POP JUMPDEST POP POP POP POP POP POP JUMP JUMPDEST PUSH2 0x8DB DUP2 PUSH2 0x550 JUMP JUMPDEST DUP3 MSTORE POP POP JUMP JUMPDEST PUSH0 PUSH1 0x20 DUP3 ADD SWAP1 POP PUSH2 0x8F4 PUSH0 DUP4 ADD DUP5 PUSH2 0x8D2 JUMP JUMPDEST SWAP3 SWAP2 POP POP JUMP JUMPDEST PUSH32 0x4E487B7100000000000000000000000000000000000000000000000000000000 PUSH0 MSTORE PUSH1 0x11 PUSH1 0x4 MSTORE PUSH1 0x24 PUSH0 REVERT JUMPDEST PUSH0 DUP2 PUSH1 0x1 SHR SWAP1 POP SWAP2 SWAP1 POP JUMP JUMPDEST PUSH0 DUP1 DUP3 SWAP2 POP DUP4 SWAP1 POP JUMPDEST PUSH1 0x1 DUP6 GT ISZERO PUSH2 0x97C JUMPI DUP1 DUP7 DIV DUP2 GT ISZERO PUSH2 0x958 JUMPI PUSH2 0x957 PUSH2 0x8FA JUMP JUMPDEST JUMPDEST PUSH1 0x1 DUP6 AND ISZERO PUSH2 0x967 JUMPI DUP1 DUP3 MUL SWAP2 POP JUMPDEST DUP1 DUP2 MUL SWAP1 POP PUSH2 0x975 DUP6 PUSH2 0x927 JUMP JUMPDEST SWAP5 POP PUSH2 0x93C JUMP JUMPDEST SWAP5 POP SWAP5 SWAP3 POP POP POP JUMP JUMPDEST PUSH0 DUP3 PUSH2 0x994 JUMPI PUSH1 0x1 SWAP1 POP PUSH2 0xA4F JUMP JUMPDEST DUP2 PUSH2 0x9A1 JUMPI PUSH0 SWAP1 POP PUSH2 0xA4F JUMP JUMPDEST DUP2 PUSH1 0x1 DUP2 EQ PUSH2 0x9B7 JUMPI PUSH1 0x2 DUP2 EQ PUSH2 0x9C1 JUMPI PUSH2 0x9F0 JUMP JUMPDEST PUSH1 0x1 SWAP2 POP POP PUSH2 0xA4F JUMP JUMPDEST PUSH1 0xFF DUP5 GT ISZERO PUSH2 0x9D3 JUMPI PUSH2 0x9D2 PUSH2 0x8FA JUMP JUMPDEST JUMPDEST DUP4 PUSH1 0x2 EXP SWAP2 POP DUP5 DUP3 GT ISZERO PUSH2 0x9EA JUMPI PUSH2 0x9E9 PUSH2 0x8FA JUMP JUMPDEST JUMPDEST POP PUSH2 0xA4F JUMP JUMPDEST POP PUSH1 0x20 DUP4 LT PUSH2 0x133 DUP4 LT AND PUSH1 0x4E DUP5 LT PUSH1 0xB DUP5 LT AND OR ISZERO PUSH2 0xA25 JUMPI DUP3 DUP3 EXP SWAP1 POP DUP4 DUP2 GT ISZERO PUSH2 0xA20 JUMPI PUSH2 0xA1F PUSH2 0x8FA JUMP JUMPDEST JUMPDEST PUSH2 0xA4F JUMP JUMPDEST PUSH2 0xA32 DUP5 DUP5 DUP5 PUSH1 0x1 PUSH2 0x933 JUMP JUMPDEST SWAP3 POP SWAP1 POP DUP2 DUP5 DIV DUP2 GT ISZERO PUSH2 0xA49 JUMPI PUSH2 0xA48 PUSH2 0x8FA JUMP JUMPDEST JUMPDEST DUP2 DUP2 MUL SWAP1 POP JUMPDEST SWAP4 SWAP3 POP POP POP JUMP JUMPDEST PUSH0 PUSH1 0xFF DUP3 AND SWAP1 POP SWAP2 SWAP1 POP JUMP JUMPDEST PUSH0 PUSH2 0xA6C DUP3 PUSH2 0x6DB JUMP JUMPDEST SWAP2 POP PUSH2 0xA77 DUP4 PUSH2 0xA56 JUMP JUMPDEST SWAP3 POP PUSH2 0xAA4 PUSH32 0xFFFFFFFFFFFFFFFFFFFFFFFFFFFFFFFFFFFFFFFFFFFFFFFFFFFFFFFFFFFFFFFF DUP5 DUP5 PUSH2 0x985 JUMP JUMPDEST SWAP1 POP SWAP3 SWAP2 POP POP JUMP JUMPDEST PUSH0 PUSH2 0xAB6 DUP3 PUSH2 0x6DB JUMP JUMPDEST SWAP2 POP PUSH2 0xAC1 DUP4 PUSH2 0x6DB JUMP JUMPDEST SWAP3 POP DUP3 DUP3 MUL PUSH2 0xACF DUP2 PUSH2 0x6DB JUMP JUMPDEST SWAP2 POP DUP3 DUP3 DIV DUP5 EQ DUP4 ISZERO OR PUSH2 0xAE6 JUMPI PUSH2 0xAE5 PUSH2 0x8FA JUMP JUMPDEST JUMPDEST POP SWAP3 SWAP2 POP POP JUMP JUMPDEST PUSH0 PUSH2 0xAF7 DUP3 PUSH2 0x6DB JUMP JUMPDEST SWAP2 POP PUSH2 0xB02 DUP4 PUSH2 0x6DB JUMP JUMPDEST SWAP3 POP DUP3 DUP3 ADD SWAP1 POP DUP1 DUP3 GT ISZERO PUSH2 0xB1A JUMPI PUSH2 0xB19 PUSH2 0x8FA JUMP JUMPDEST JUMPDEST SWAP3 SWAP2 POP POP JUMP JUMPDEST PUSH2 0xB29 DUP2 PUSH2 0x6DB JUMP JUMPDEST DUP3 MSTORE POP POP JUMP JUMPDEST PUSH0 PUSH1 0x60 DUP3 ADD SWAP1 POP PUSH2 0xB42 PUSH0 DUP4 ADD DUP7 PUSH2 0x8D2 JUMP JUMPDEST PUSH2 0xB4F PUSH1 0x20 DUP4 ADD DUP6 PUSH2 0xB20 JUMP JUMPDEST PUSH2 0xB5C PUSH1 0x40 DUP4 ADD DUP5 PUSH2 0xB20 JUMP JUMPDEST SWAP5 SWAP4 POP POP POP POP JUMP JUMPDEST PUSH0 PUSH1 0x20 DUP3 ADD SWAP1 POP PUSH2 0xB77 PUSH0 DUP4 ADD DUP5 PUSH2 0xB20 JUMP JUMPDEST SWAP3 SWAP2 POP POP JUMP JUMPDEST PUSH2 0x12CF DUP1 PUSH2 0xB8A PUSH0 CODECOPY PUSH0 RETURN INVALID PUSH1 0x80 PUSH1 0x40 MSTORE CALLVALUE DUP1 ISZERO PUSH2 0xF JUMPI PUSH0 DUP1 REVERT JUMPDEST POP PUSH1 0x4 CALLDATASIZE LT PUSH2 0xE8 JUMPI PUSH0 CALLDATALOAD PUSH1 0xE0 SHR DUP1 PUSH4 0x715018A6 GT PUSH2 0x8A JUMPI DUP1 PUSH4 0xA9059CBB GT PUSH2 0x64 JUMPI DUP1 PUSH4 0xA9059CBB EQ PUSH2 0x23A JUMPI DUP1 PUSH4 0xC5F956AF EQ PUSH2 0x26A JUMPI DUP1 PUSH4 0xDD62ED3E EQ PUSH2 0x288 JUMPI DUP1 PUSH4 0xF2FDE38B EQ PUSH2 0x2B8 JUMPI PUSH2 0xE8 JUMP JUMPDEST DUP1 PUSH4 0x715018A6 EQ PUSH2 0x1F4 JUMPI DUP1 PUSH4 0x8DA5CB5B EQ PUSH2 0x1FE JUMPI DUP1 PUSH4 0x95D89B41 EQ PUSH2 0x21C JUMPI PUSH2 0xE8 JUMP JUMPDEST DUP1 PUSH4 0x23B872DD GT PUSH2 0xC6 JUMPI DUP1 PUSH4 0x23B872DD EQ PUSH2 0x158 JUMPI DUP1 PUSH4 0x313CE567 EQ PUSH2 0x188 JUMPI DUP1 PUSH4 0x5EA1D6F8 EQ PUSH2 0x1A6 JUMPI DUP1 PUSH4 0x70A08231 EQ PUSH2 0x1C4 JUMPI PUSH2 0xE8 JUMP JUMPDEST DUP1 PUSH4 0x6FDDE03 EQ PUSH2 0xEC JUMPI DUP1 PUSH4 0x95EA7B3 EQ PUSH2 0x10A JUMPI DUP1 PUSH4 0x18160DDD EQ PUSH2 0x13A JUMPI JUMPDEST PUSH0 DUP1 REVERT JUMPDEST PUSH2 0xF4 PUSH2 0x2D4 JUMP JUMPDEST PUSH1 0x40 MLOAD PUSH2 0x101 SWAP2 SWAP1 PUSH2 0xE0F JUMP JUMPDEST PUSH1 0x40 MLOAD DUP1 SWAP2 SUB SWAP1 RETURN JUMPDEST PUSH2 0x124 PUSH1 0x4 DUP1 CALLDATASIZE SUB DUP2 ADD SWAP1 PUSH2 0x11F SWAP2 SWAP1 PUSH2 0xEC0 JUMP JUMPDEST PUSH2 0x364 JUMP JUMPDEST PUSH1 0x40 MLOAD PUSH2 0x131 SWAP2 SWAP1 PUSH2 0xF18 JUMP JUMPDEST PUSH1 0x40 MLOAD DUP1 SWAP2 SUB SWAP1 RETURN JUMPDEST PUSH2 0x142 PUSH2 0x386 JUMP JUMPDEST PUSH1 0x40 MLOAD PUSH2 0x14F SWAP2 SWAP1 PUSH2 0xF40 JUMP JUMPDEST PUSH1 0x40 MLOAD DUP1 SWAP2 SUB SWAP1 RETURN JUMPDEST PUSH2 0x172 PUSH1 0x4 DUP1 CALLDATASIZE SUB DUP2 ADD SWAP1 PUSH2 0x16D SWAP2 SWAP1 PUSH2 0xF59 JUMP JUMPDEST PUSH2 0x38F JUMP JUMPDEST PUSH1 0x40 MLOAD PUSH2 0x17F SWAP2 SWAP1 PUSH2 0xF18 JUMP JUMPDEST PUSH1 0x40 MLOAD DUP1 SWAP2 SUB SWAP1 RETURN JUMPDEST PUSH2 0x190 PUSH2 0x3BD JUMP JUMPDEST PUSH1 0x40 MLOAD PUSH2 0x19D SWAP2 SWAP1 PUSH2 0xFC4 JUMP JUMPDEST PUSH1 0x40 MLOAD DUP1 SWAP2 SUB SWAP1 RETURN JUMPDEST PUSH2 0x1AE PUSH2 0x3C5 JUMP JUMPDEST PUSH1 0x40 MLOAD PUSH2 0x1BB SWAP2 SWAP1 PUSH2 0xF40 JUMP JUMPDEST PUSH1 0x40 MLOAD DUP1 SWAP2 SUB SWAP1 RETURN JUMPDEST PUSH2 0x1DE PUSH1 0x4 DUP1 CALLDATASIZE SUB DUP2 ADD SWAP1 PUSH2 0x1D9 SWAP2 SWAP1 PUSH2 0xFDD JUMP JUMPDEST PUSH2 0x3CB JUMP JUMPDEST PUSH1 0x40 MLOAD PUSH2 0x1EB SWAP2 SWAP1 PUSH2 0xF40 JUMP JUMPDEST PUSH1 0x40 MLOAD DUP1 SWAP2 SUB SWAP1 RETURN JUMPDEST PUSH2 0x1FC PUSH2 0x410 JUMP JUMPDEST STOP JUMPDEST PUSH2 0x206 PUSH2 0x423 JUMP JUMPDEST PUSH1 0x40 MLOAD PUSH2 0x213 SWAP2 SWAP1 PUSH2 0x1017 JUMP JUMPDEST PUSH1 0x40 MLOAD DUP1 SWAP2 SUB SWAP1 RETURN JUMPDEST PUSH2 0x224 PUSH2 0x44B JUMP JUMPDEST PUSH1 0x40 MLOAD PUSH2 0x231 SWAP2 SWAP1 PUSH2 0xE0F JUMP JUMPDEST PUSH1 0x40 MLOAD DUP1 SWAP2 SUB SWAP1 RETURN JUMPDEST PUSH2 0x254 PUSH1 0x4 DUP1 CALLDATASIZE SUB DUP2 ADD SWAP1 PUSH2 0x24F SWAP2 SWAP1 PUSH2 0xEC0 JUMP JUMPDEST PUSH2 0x4DB JUMP JUMPDEST PUSH1 0x40 MLOAD PUSH2 0x261 SWAP2 SWAP1 PUSH2 0xF18 JUMP JUMPDEST PUSH1 0x40 MLOAD DUP1 SWAP2 SUB SWAP1 RETURN JUMPDEST PUSH2 0x272 PUSH2 0x5A7 JUMP JUMPDEST PUSH1 0x40 MLOAD PUSH2 0x27F SWAP2 SWAP1 PUSH2 0x1017 JUMP JUMPDEST PUSH1 0x40 MLOAD DUP1 SWAP2 SUB SWAP1 RETURN JUMPDEST PUSH2 0x2A2 PUSH1 0x4 DUP1 CALLDATASIZE SUB DUP2 ADD SWAP1 PUSH2 0x29D SWAP2 SWAP1 PUSH2 0x1030 JUMP JUMPDEST PUSH2 0x5CC JUMP JUMPDEST PUSH1 0x40 MLOAD PUSH2 0x2AF SWAP2 SWAP1 PUSH2 0xF40 JUMP JUMPDEST PUSH1 0x40 MLOAD DUP1 SWAP2 SUB SWAP1 RETURN JUMPDEST PUSH2 0x2D2 PUSH1 0x4 DUP1 CALLDATASIZE SUB DUP2 ADD SWAP1 PUSH2 0x2CD SWAP2 SWAP1 PUSH2 0xFDD JUMP JUMPDEST PUSH2 0x64E JUMP JUMPDEST STOP JUMPDEST PUSH1 0x60 PUSH1 0x3 DUP1 SLOAD PUSH2 0x2E3 SWAP1 PUSH2 0x109B JUMP JUMPDEST DUP1 PUSH1 0x1F ADD PUSH1 0x20 DUP1 SWAP2 DIV MUL PUSH1 0x20 ADD PUSH1 0x40 MLOAD SWAP1 DUP2 ADD PUSH1 0x40 MSTORE DUP1 SWAP3 SWAP2 SWAP1 DUP2 DUP2 MSTORE PUSH1 0x20 ADD DUP3 DUP1 SLOAD PUSH2 0x30F SWAP1 PUSH2 0x109B JUMP JUMPDEST DUP1 ISZERO PUSH2 0x35A JUMPI DUP1 PUSH1 0x1F LT PUSH2 0x331 JUMPI PUSH2 0x100 DUP1 DUP4 SLOAD DIV MUL DUP4 MSTORE SWAP2 PUSH1 0x20 ADD SWAP2 PUSH2 0x35A JUMP JUMPDEST DUP3 ADD SWAP2 SWAP1 PUSH0 MSTORE PUSH1 0x20 PUSH0 KECCAK256 SWAP1 JUMPDEST DUP2 SLOAD DUP2 MSTORE SWAP1 PUSH1 0x1 ADD SWAP1 PUSH1 0x20 ADD DUP1 DUP4 GT PUSH2 0x33D JUMPI DUP3 SWAP1 SUB PUSH1 0x1F AND DUP3 ADD SWAP2 JUMPDEST POP POP POP POP POP SWAP1 POP SWAP1 JUMP JUMPDEST PUSH0 DUP1 PUSH2 0x36E PUSH2 0x6D2 JUMP JUMPDEST SWAP1 POP PUSH2 0x37B DUP2 DUP6 DUP6 PUSH2 0x6D9 JUMP JUMPDEST PUSH1 0x1 SWAP2 POP POP SWAP3 SWAP2 POP POP JUMP JUMPDEST PUSH0 PUSH1 0x2 SLOAD SWAP1 POP SWAP1 JUMP JUMPDEST PUSH0 DUP1 PUSH2 0x399 PUSH2 0x6D2 JUMP JUMPDEST SWAP1 POP PUSH2 0x3A6 DUP6 DUP3 DUP6 PUSH2 0x6EB JUMP JUMPDEST PUSH2 0x3B1 DUP6 DUP6 DUP6 PUSH2 0x77D JUMP JUMPDEST PUSH1 0x1 SWAP2 POP POP SWAP4 SWAP3 POP POP POP JUMP JUMPDEST PUSH0 PUSH1 0x12 SWAP1 POP SWAP1 JUMP JUMPDEST PUSH1 0x6 SLOAD DUP2 JUMP JUMPDEST PUSH0 DUP1 PUSH0 DUP4 PUSH20 0xFFFFFFFFFFFFFFFFFFFFFFFFFFFFFFFFFFFFFFFF AND PUSH20 0xFFFFFFFFFFFFFFFFFFFFFFFFFFFFFFFFFFFFFFFF AND DUP2 MSTORE PUSH1 0x20 ADD SWAP1 DUP2 MSTORE PUSH1 0x20 ADD PUSH0 KECCAK256 SLOAD SWAP1 POP SWAP2 SWAP1 POP JUMP JUMPDEST PUSH2 0x418 PUSH2 0x86D JUMP JUMPDEST PUSH2 0x421 PUSH0 PUSH2 0x8F4 JUMP JUMPDEST JUMP JUMPDEST PUSH0 PUSH1 0x5 PUSH0 SWAP1 SLOAD SWAP1 PUSH2 0x100 EXP SWAP1 DIV PUSH20 0xFFFFFFFFFFFFFFFFFFFFFFFFFFFFFFFFFFFFFFFF AND SWAP1 POP SWAP1 JUMP JUMPDEST PUSH1 0x60 PUSH1 0x4 DUP1 SLOAD PUSH2 0x45A SWAP1 PUSH2 0x109B JUMP JUMPDEST DUP1 PUSH1 0x1F ADD PUSH1 0x20 DUP1 SWAP2 DIV MUL PUSH1 0x20 ADD PUSH1 0x40 MLOAD SWAP1 DUP2 ADD PUSH1 0x40 MSTORE DUP1 SWAP3 SWAP2 SWAP1 DUP2 DUP2 MSTORE PUSH1 0x20 ADD DUP3 DUP1 SLOAD PUSH2 0x486 SWAP1 PUSH2 0x109B JUMP JUMPDEST DUP1 ISZERO PUSH2 0x4D1 JUMPI DUP1 PUSH1 0x1F LT PUSH2 0x4A8 JUMPI PUSH2 0x100 DUP1 DUP4 SLOAD DIV MUL DUP4 MSTORE SWAP2 PUSH1 0x20 ADD SWAP2 PUSH2 0x4D1 JUMP JUMPDEST DUP3 ADD SWAP2 SWAP1 PUSH0 MSTORE PUSH1 0x20 PUSH0 KECCAK256 SWAP1 JUMPDEST DUP2 SLOAD DUP2 MSTORE SWAP1 PUSH1 0x1 ADD SWAP1 PUSH1 0x20 ADD DUP1 DUP4 GT PUSH2 0x4B4 JUMPI DUP3 SWAP1 SUB PUSH1 0x1F AND DUP3 ADD SWAP2 JUMPDEST POP POP POP POP POP SWAP1 POP SWAP1 JUMP JUMPDEST PUSH0 DUP1 PUSH2 0x2710 PUSH1 0x6 SLOAD DUP5 PUSH2 0x4EE SWAP2 SWAP1 PUSH2 0x10F8 JUMP JUMPDEST PUSH2 0x4F8 SWAP2 SWAP1 PUSH2 0x1166 JUMP JUMPDEST SWAP1 POP PUSH0 DUP2 DUP5 PUSH2 0x507 SWAP2 SWAP1 PUSH2 0x1196 JUMP JUMPDEST SWAP1 POP DUP2 DUP2 PUSH2 0x515 SWAP2 SWAP1 PUSH2 0x11C9 JUMP JUMPDEST DUP5 EQ PUSH2 0x556 JUMPI PUSH1 0x40 MLOAD PUSH32 0x8C379A000000000000000000000000000000000000000000000000000000000 DUP2 MSTORE PUSH1 0x4 ADD PUSH2 0x54D SWAP1 PUSH2 0x1246 JUMP JUMPDEST PUSH1 0x40 MLOAD DUP1 SWAP2 SUB SWAP1 REVERT JUMPDEST PUSH2 0x589 PUSH2 0x561 PUSH2 0x6D2 JUMP JUMPDEST PUSH1 0x7 PUSH0 SWAP1 SLOAD SWAP1 PUSH2 0x100 EXP SWAP1 DIV PUSH20 0xFFFFFFFFFFFFFFFFFFFFFFFFFFFFFFFFFFFFFFFF AND DUP5 PUSH2 0x77D JUMP JUMPDEST PUSH2 0x59B PUSH2 0x594 PUSH2 0x6D2 JUMP JUMPDEST DUP7 DUP4 PUSH2 0x77D JUMP JUMPDEST PUSH1 0x1 SWAP3 POP POP POP SWAP3 SWAP2 POP POP JUMP JUMPDEST PUSH1 0x7 PUSH0 SWAP1 SLOAD SWAP1 PUSH2 0x100 EXP SWAP1 DIV PUSH20 0xFFFFFFFFFFFFFFFFFFFFFFFFFFFFFFFFFFFFFFFF AND DUP2 JUMP JUMPDEST PUSH0 PUSH1 0x1 PUSH0 DUP5 PUSH20 0xFFFFFFFFFFFFFFFFFFFFFFFFFFFFFFFFFFFFFFFF AND PUSH20 0xFFFFFFFFFFFFFFFFFFFFFFFFFFFFFFFFFFFFFFFF AND DUP2 MSTORE PUSH1 0x20 ADD SWAP1 DUP2 MSTORE PUSH1 0x20 ADD PUSH0 KECCAK256 PUSH0 DUP4 PUSH20 0xFFFFFFFFFFFFFFFFFFFFFFFFFFFFFFFFFFFFFFFF AND PUSH20 0xFFFFFFFFFFFFFFFFFFFFFFFFFFFFFFFFFFFFFFFF AND DUP2 MSTORE PUSH1 0x20 ADD SWAP1 DUP2 MSTORE PUSH1 0x20 ADD PUSH0 KECCAK256 SLOAD SWAP1 POP SWAP3 SWAP2 POP POP JUMP JUMPDEST PUSH2 0x656 PUSH2 0x86D JUMP JUMPDEST PUSH0 PUSH20 0xFFFFFFFFFFFFFFFFFFFFFFFFFFFFFFFFFFFFFFFF AND DUP2 PUSH20 0xFFFFFFFFFFFFFFFFFFFFFFFFFFFFFFFFFFFFFFFF AND SUB PUSH2 0x6C6 JUMPI PUSH0 PUSH1 0x40 MLOAD PUSH32 0x1E4FBDF700000000000000000000000000000000000000000000000000000000 DUP2 MSTORE PUSH1 0x4 ADD PUSH2 0x6BD SWAP2 SWAP1 PUSH2 0x1017 JUMP JUMPDEST PUSH1 0x40 MLOAD DUP1 SWAP2 SUB SWAP1 REVERT JUMPDEST PUSH2 0x6CF DUP2 PUSH2 0x8F4 JUMP JUMPDEST POP JUMP JUMPDEST PUSH0 CALLER SWAP1 POP SWAP1 JUMP JUMPDEST PUSH2 0x6E6 DUP4 DUP4 DUP4 PUSH1 0x1 PUSH2 0x9B7 JUMP JUMPDEST POP POP POP JUMP JUMPDEST PUSH0 PUSH2 0x6F6 DUP5 DUP5 PUSH2 0x5CC JUMP JUMPDEST SWAP1 POP PUSH32 0xFFFFFFFFFFFFFFFFFFFFFFFFFFFFFFFFFFFFFFFFFFFFFFFFFFFFFFFFFFFFFFFF DUP2 EQ PUSH2 0x777 JUMPI DUP2 DUP2 LT ISZERO PUSH2 0x768 JUMPI DUP3 DUP2 DUP4 PUSH1 0x40 MLOAD PUSH32 0xFB8F41B200000000000000000000000000000000000000000000000000000000 DUP2 MSTORE PUSH1 0x4 ADD PUSH2 0x75F SWAP4 SWAP3 SWAP2 SWAP1 PUSH2 0x1264 JUMP JUMPDEST PUSH1 0x40 MLOAD DUP1 SWAP2 SUB SWAP1 REVERT JUMPDEST PUSH2 0x776 DUP5 DUP5 DUP5 DUP5 SUB PUSH0 PUSH2 0x9B7 JUMP JUMPDEST JUMPDEST POP POP POP POP JUMP JUMPDEST PUSH0 PUSH20 0xFFFFFFFFFFFFFFFFFFFFFFFFFFFFFFFFFFFFFFFF AND DUP4 PUSH20 0xFFFFFFFFFFFFFFFFFFFFFFFFFFFFFFFFFFFFFFFF AND SUB PUSH2 0x7ED JUMPI PUSH0 PUSH1 0x40 MLOAD PUSH32 0x96C6FD1E00000000000000000000000000000000000000000000000000000000 DUP2 MSTORE PUSH1 0x4 ADD PUSH2 0x7E4 SWAP2 SWAP1 PUSH2 0x1017 JUMP JUMPDEST PUSH1 0x40 MLOAD DUP1 SWAP2 SUB SWAP1 REVERT JUMPDEST PUSH0 PUSH20 0xFFFFFFFFFFFFFFFFFFFFFFFFFFFFFFFFFFFFFFFF AND DUP3 PUSH20 0xFFFFFFFFFFFFFFFFFFFFFFFFFFFFFFFFFFFFFFFF AND SUB PUSH2 0x85D JUMPI PUSH0 PUSH1 0x40 MLOAD PUSH32 0xEC442F0500000000000000000000000000000000000000000000000000000000 DUP2 MSTORE PUSH1 0x4 ADD PUSH2 0x854 SWAP2 SWAP1 PUSH2 0x1017 JUMP JUMPDEST PUSH1 0x40 MLOAD DUP1 SWAP2 SUB SWAP1 REVERT JUMPDEST PUSH2 0x868 DUP4 DUP4 DUP4 PUSH2 0xB86 JUMP JUMPDEST POP POP POP JUMP JUMPDEST PUSH2 0x875 PUSH2 0x6D2 JUMP JUMPDEST PUSH20 0xFFFFFFFFFFFFFFFFFFFFFFFFFFFFFFFFFFFFFFFF AND PUSH2 0x893 PUSH2 0x423 JUMP JUMPDEST PUSH20 0xFFFFFFFFFFFFFFFFFFFFFFFFFFFFFFFFFFFFFFFF AND EQ PUSH2 0x8F2 JUMPI PUSH2 0x8B6 PUSH2 0x6D2 JUMP JUMPDEST PUSH1 0x40 MLOAD PUSH32 0x118CDAA700000000000000000000000000000000000000000000000000000000 DUP2 MSTORE PUSH1 0x4 ADD PUSH2 0x8E9 SWAP2 SWAP1 PUSH2 0x1017 JUMP JUMPDEST PUSH1 0x40 MLOAD DUP1 SWAP2 SUB SWAP1 REVERT JUMPDEST JUMP JUMPDEST PUSH0 PUSH1 0x5 PUSH0 SWAP1 SLOAD SWAP1 PUSH2 0x100 EXP SWAP1 DIV PUSH20 0xFFFFFFFFFFFFFFFFFFFFFFFFFFFFFFFFFFFFFFFF AND SWAP1 POP DUP2 PUSH1 0x5 PUSH0 PUSH2 0x100 EXP DUP2 SLOAD DUP2 PUSH20 0xFFFFFFFFFFFFFFFFFFFFFFFFFFFFFFFFFFFFFFFF MUL NOT AND SWAP1 DUP4 PUSH20 0xFFFFFFFFFFFFFFFFFFFFFFFFFFFFFFFFFFFFFFFF AND MUL OR SWAP1 SSTORE POP DUP2 PUSH20 0xFFFFFFFFFFFFFFFFFFFFFFFFFFFFFFFFFFFFFFFF AND DUP2 PUSH20 0xFFFFFFFFFFFFFFFFFFFFFFFFFFFFFFFFFFFFFFFF AND PUSH32 0x8BE0079C531659141344CD1FD0A4F28419497F9722A3DAAFE3B4186F6B6457E0 PUSH1 0x40 MLOAD PUSH1 0x40 MLOAD DUP1 SWAP2 SUB SWAP1 LOG3 POP POP JUMP JUMPDEST PUSH0 PUSH20 0xFFFFFFFFFFFFFFFFFFFFFFFFFFFFFFFFFFFFFFFF AND DUP5 PUSH20 0xFFFFFFFFFFFFFFFFFFFFFFFFFFFFFFFFFFFFFFFF AND SUB PUSH2 0xA27 JUMPI PUSH0 PUSH1 0x40 MLOAD PUSH32 0xE602DF0500000000000000000000000000000000000000000000000000000000 DUP2 MSTORE PUSH1 0x4 ADD PUSH2 0xA1E SWAP2 SWAP1 PUSH2 0x1017 JUMP JUMPDEST PUSH1 0x40 MLOAD DUP1 SWAP2 SUB SWAP1 REVERT JUMPDEST PUSH0 PUSH20 0xFFFFFFFFFFFFFFFFFFFFFFFFFFFFFFFFFFFFFFFF AND DUP4 PUSH20 0xFFFFFFFFFFFFFFFFFFFFFFFFFFFFFFFFFFFFFFFF AND SUB PUSH2 0xA97 JUMPI PUSH0 PUSH1 0x40 MLOAD PUSH32 0x94280D6200000000000000000000000000000000000000000000000000000000 DUP2 MSTORE PUSH1 0x4 ADD PUSH2 0xA8E SWAP2 SWAP1 PUSH2 0x1017 JUMP JUMPDEST PUSH1 0x40 MLOAD DUP1 SWAP2 SUB SWAP1 REVERT JUMPDEST DUP2 PUSH1 0x1 PUSH0 DUP7 PUSH20 0xFFFFFFFFFFFFFFFFFFFFFFFFFFFFFFFFFFFFFFFF AND PUSH20 0xFFFFFFFFFFFFFFFFFFFFFFFFFFFFFFFFFFFFFFFF AND DUP2 MSTORE PUSH1 0x20 ADD SWAP1 DUP2 MSTORE PUSH1 0x20 ADD PUSH0 KECCAK256 PUSH0 DUP6 PUSH20 0xFFFFFFFFFFFFFFFFFFFFFFFFFFFFFFFFFFFFFFFF AND PUSH20 0xFFFFFFFFFFFFFFFFFFFFFFFFFFFFFFFFFFFFFFFF AND DUP2 MSTORE PUSH1 0x20 ADD SWAP1 DUP2 MSTORE PUSH1 0x20 ADD PUSH0 KECCAK256 DUP2 SWAP1 SSTORE POP DUP1 ISZERO PUSH2 0xB80 JUMPI DUP3 PUSH20 0xFFFFFFFFFFFFFFFFFFFFFFFFFFFFFFFFFFFFFFFF AND DUP5 PUSH20 0xFFFFFFFFFFFFFFFFFFFFFFFFFFFFFFFFFFFFFFFF AND PUSH32 0x8C5BE1E5EBEC7D5BD14F71427D1E84F3DD0314C0F7B2291E5B200AC8C7C3B925 DUP5 PUSH1 0x40 MLOAD PUSH2 0xB77 SWAP2 SWAP1 PUSH2 0xF40 JUMP JUMPDEST PUSH1 0x40 MLOAD DUP1 SWAP2 SUB SWAP1 LOG3 JUMPDEST POP POP POP POP JUMP JUMPDEST PUSH0 PUSH20 0xFFFFFFFFFFFFFFFFFFFFFFFFFFFFFFFFFFFFFFFF AND DUP4 PUSH20 0xFFFFFFFFFFFFFFFFFFFFFFFFFFFFFFFFFFFFFFFF AND SUB PUSH2 0xBD6 JUMPI DUP1 PUSH1 0x2 PUSH0 DUP3 DUP3 SLOAD PUSH2 0xBCA SWAP2 SWAP1 PUSH2 0x11C9 JUMP JUMPDEST SWAP3 POP POP DUP2 SWAP1 SSTORE POP PUSH2 0xCA4 JUMP JUMPDEST PUSH0 DUP1 PUSH0 DUP6 PUSH20 0xFFFFFFFFFFFFFFFFFFFFFFFFFFFFFFFFFFFFFFFF AND PUSH20 0xFFFFFFFFFFFFFFFFFFFFFFFFFFFFFFFFFFFFFFFF AND DUP2 MSTORE PUSH1 0x20 ADD SWAP1 DUP2 MSTORE PUSH1 0x20 ADD PUSH0 KECCAK256 SLOAD SWAP1 POP DUP2 DUP2 LT ISZERO PUSH2 0xC5F JUMPI DUP4 DUP2 DUP4 PUSH1 0x40 MLOAD PUSH32 0xE450D38C00000000000000000000000000000000000000000000000000000000 DUP2 MSTORE PUSH1 0x4 ADD PUSH2 0xC56 SWAP4 SWAP3 SWAP2 SWAP1 PUSH2 0x1264 JUMP JUMPDEST PUSH1 0x40 MLOAD DUP1 SWAP2 SUB SWAP1 REVERT JUMPDEST DUP2 DUP2 SUB PUSH0 DUP1 DUP7 PUSH20 0xFFFFFFFFFFFFFFFFFFFFFFFFFFFFFFFFFFFFFFFF AND PUSH20 0xFFFFFFFFFFFFFFFFFFFFFFFFFFFFFFFFFFFFFFFF AND DUP2 MSTORE PUSH1 0x20 ADD SWAP1 DUP2 MSTORE PUSH1 0x20 ADD PUSH0 KECCAK256 DUP2 SWAP1 SSTORE POP POP JUMPDEST PUSH0 PUSH20 0xFFFFFFFFFFFFFFFFFFFFFFFFFFFFFFFFFFFFFFFF AND DUP3 PUSH20 0xFFFFFFFFFFFFFFFFFFFFFFFFFFFFFFFFFFFFFFFF AND SUB PUSH2 0xCEB JUMPI DUP1 PUSH1 0x2 PUSH0 DUP3 DUP3 SLOAD SUB SWAP3 POP POP DUP2 SWAP1 SSTORE POP PUSH2 0xD35 JUMP JUMPDEST DUP1 PUSH0 DUP1 DUP5 PUSH20 0xFFFFFFFFFFFFFFFFFFFFFFFFFFFFFFFFFFFFFFFF AND PUSH20 0xFFFFFFFFFFFFFFFFFFFFFFFFFFFFFFFFFFFFFFFF AND DUP2 MSTORE PUSH1 0x20 ADD SWAP1 DUP2 MSTORE PUSH1 0x20 ADD PUSH0 KECCAK256 PUSH0 DUP3 DUP3 SLOAD ADD SWAP3 POP POP DUP2 SWAP1 SSTORE POP JUMPDEST DUP2 PUSH20 0xFFFFFFFFFFFFFFFFFFFFFFFFFFFFFFFFFFFFFFFF AND DUP4 PUSH20 0xFFFFFFFFFFFFFFFFFFFFFFFFFFFFFFFFFFFFFFFF AND PUSH32 0xDDF252AD1BE2C89B69C2B068FC378DAA952BA7F163C4A11628F55A4DF523B3EF DUP4 PUSH1 0x40 MLOAD PUSH2 0xD92 SWAP2 SWAP1 PUSH2 0xF40 JUMP JUMPDEST PUSH1 0x40 MLOAD DUP1 SWAP2 SUB SWAP1 LOG3 POP POP POP JUMP JUMPDEST PUSH0 DUP2 MLOAD SWAP1 POP SWAP2 SWAP1 POP JUMP JUMPDEST PUSH0 DUP3 DUP3 MSTORE PUSH1 0x20 DUP3 ADD SWAP1 POP SWAP3 SWAP2 POP POP JUMP JUMPDEST DUP3 DUP2 DUP4 MCOPY PUSH0 DUP4 DUP4 ADD MSTORE POP POP POP JUMP JUMPDEST PUSH0 PUSH1 0x1F NOT PUSH1 0x1F DUP4 ADD AND SWAP1 POP SWAP2 SWAP1 POP JUMP JUMPDEST PUSH0 PUSH2 0xDE1 DUP3 PUSH2 0xD9F JUMP JUMPDEST PUSH2 0xDEB DUP2 DUP6 PUSH2 0xDA9 JUMP JUMPDEST SWAP4 POP PUSH2 0xDFB DUP2 DUP6 PUSH1 0x20 DUP7 ADD PUSH2 0xDB9 JUMP JUMPDEST PUSH2 0xE04 DUP2 PUSH2 0xDC7 JUMP JUMPDEST DUP5 ADD SWAP2 POP POP SWAP3 SWAP2 POP POP JUMP JUMPDEST PUSH0 PUSH1 0x20 DUP3 ADD SWAP1 POP DUP2 DUP2 SUB PUSH0 DUP4 ADD MSTORE PUSH2 0xE27 DUP2 DUP5 PUSH2 0xDD7 JUMP JUMPDEST SWAP1 POP SWAP3 SWAP2 POP POP JUMP JUMPDEST PUSH0 DUP1 REVERT JUMPDEST PUSH0 PUSH20 0xFFFFFFFFFFFFFFFFFFFFFFFFFFFFFFFFFFFFFFFF DUP3 AND SWAP1 POP SWAP2 SWAP1 POP JUMP JUMPDEST PUSH0 PUSH2 0xE5C DUP3 PUSH2 0xE33 JUMP JUMPDEST SWAP1 POP SWAP2 SWAP1 POP JUMP JUMPDEST PUSH2 0xE6C DUP2 PUSH2 0xE52 JUMP JUMPDEST DUP2 EQ PUSH2 0xE76 JUMPI PUSH0 DUP1 REVERT JUMPDEST POP JUMP JUMPDEST PUSH0 DUP2 CALLDATALOAD SWAP1 POP PUSH2 0xE87 DUP2 PUSH2 0xE63 JUMP JUMPDEST SWAP3 SWAP2 POP POP JUMP JUMPDEST PUSH0 DUP2 SWAP1 POP SWAP2 SWAP1 POP JUMP JUMPDEST PUSH2 0xE9F DUP2 PUSH2 0xE8D JUMP JUMPDEST DUP2 EQ PUSH2 0xEA9 JUMPI PUSH0 DUP1 REVERT JUMPDEST POP JUMP JUMPDEST PUSH0 DUP2 CALLDATALOAD SWAP1 POP PUSH2 0xEBA DUP2 PUSH2 0xE96 JUMP JUMPDEST SWAP3 SWAP2 POP POP JUMP JUMPDEST PUSH0 DUP1 PUSH1 0x40 DUP4 DUP6 SUB SLT ISZERO PUSH2 0xED6 JUMPI PUSH2 0xED5 PUSH2 0xE2F JUMP JUMPDEST JUMPDEST PUSH0 PUSH2 0xEE3 DUP6 DUP3 DUP7 ADD PUSH2 0xE79 JUMP JUMPDEST SWAP3 POP POP PUSH1 0x20 PUSH2 0xEF4 DUP6 DUP3 DUP7 ADD PUSH2 0xEAC JUMP JUMPDEST SWAP2 POP POP SWAP3 POP SWAP3 SWAP1 POP JUMP JUMPDEST PUSH0 DUP2 ISZERO ISZERO SWAP1 POP SWAP2 SWAP1 POP JUMP JUMPDEST PUSH2 0xF12 DUP2 PUSH2 0xEFE JUMP JUMPDEST DUP3 MSTORE POP POP JUMP JUMPDEST PUSH0 PUSH1 0x20 DUP3 ADD SWAP1 POP PUSH2 0xF2B PUSH0 DUP4 ADD DUP5 PUSH2 0xF09 JUMP JUMPDEST SWAP3 SWAP2 POP POP JUMP JUMPDEST PUSH2 0xF3A DUP2 PUSH2 0xE8D JUMP JUMPDEST DUP3 MSTORE POP POP JUMP JUMPDEST PUSH0 PUSH1 0x20 DUP3 ADD SWAP1 POP PUSH2 0xF53 PUSH0 DUP4 ADD DUP5 PUSH2 0xF31 JUMP JUMPDEST SWAP3 SWAP2 POP POP JUMP JUMPDEST PUSH0 DUP1 PUSH0 PUSH1 0x60 DUP5 DUP7 SUB SLT ISZERO PUSH2 0xF70 JUMPI PUSH2 0xF6F PUSH2 0xE2F JUMP JUMPDEST JUMPDEST PUSH0 PUSH2 0xF7D DUP7 DUP3 DUP8 ADD PUSH2 0xE79 JUMP JUMPDEST SWAP4 POP POP PUSH1 0x20 PUSH2 0xF8E DUP7 DUP3 DUP8 ADD PUSH2 0xE79 JUMP JUMPDEST SWAP3 POP POP PUSH1 0x40 PUSH2 0xF9F DUP7 DUP3 DUP8 ADD PUSH2 0xEAC JUMP JUMPDEST SWAP2 POP POP SWAP3 POP SWAP3 POP SWAP3 JUMP JUMPDEST PUSH0 PUSH1 0xFF DUP3 AND SWAP1 POP SWAP2 SWAP1 POP JUMP JUMPDEST PUSH2 0xFBE DUP2 PUSH2 0xFA9 JUMP JUMPDEST DUP3 MSTORE POP POP JUMP JUMPDEST PUSH0 PUSH1 0x20 DUP3 ADD SWAP1 POP PUSH2 0xFD7 PUSH0 DUP4 ADD DUP5 PUSH2 0xFB5 JUMP JUMPDEST SWAP3 SWAP2 POP POP JUMP JUMPDEST PUSH0 PUSH1 0x20 DUP3 DUP5 SUB SLT ISZERO PUSH2 0xFF2 JUMPI PUSH2 0xFF1 PUSH2 0xE2F JUMP JUMPDEST JUMPDEST PUSH0 PUSH2 0xFFF DUP5 DUP3 DUP6 ADD PUSH2 0xE79 JUMP JUMPDEST SWAP2 POP POP SWAP3 SWAP2 POP POP JUMP JUMPDEST PUSH2 0x1011 DUP2 PUSH2 0xE52 JUMP JUMPDEST DUP3 MSTORE POP POP JUMP JUMPDEST PUSH0 PUSH1 0x20 DUP3 ADD SWAP1 POP PUSH2 0x102A PUSH0 DUP4 ADD DUP5 PUSH2 0x1008 JUMP JUMPDEST SWAP3 SWAP2 POP POP JUMP JUMPDEST PUSH0 DUP1 PUSH1 0x40 DUP4 DUP6 SUB SLT ISZERO PUSH2 0x1046 JUMPI PUSH2 0x1045 PUSH2 0xE2F JUMP JUMPDEST JUMPDEST PUSH0 PUSH2 0x1053 DUP6 DUP3 DUP7 ADD PUSH2 0xE79 JUMP JUMPDEST SWAP3 POP POP PUSH1 0x20 PUSH2 0x1064 DUP6 DUP3 DUP7 ADD PUSH2 0xE79 JUMP JUMPDEST SWAP2 POP POP SWAP3 POP SWAP3 SWAP1 POP JUMP JUMPDEST PUSH32 0x4E487B7100000000000000000000000000000000000000000000000000000000 PUSH0 MSTORE PUSH1 0x22 PUSH1 0x4 MSTORE PUSH1 0x24 PUSH0 REVERT JUMPDEST PUSH0 PUSH1 0x2 DUP3 DIV SWAP1 POP PUSH1 0x1 DUP3 AND DUP1 PUSH2 0x10B2 JUMPI PUSH1 0x7F DUP3 AND SWAP2 POP JUMPDEST PUSH1 0x20 DUP3 LT DUP2 SUB PUSH2 0x10C5 JUMPI PUSH2 0x10C4 PUSH2 0x106E JUMP JUMPDEST JUMPDEST POP SWAP2 SWAP1 POP JUMP JUMPDEST PUSH32 0x4E487B7100000000000000000000000000000000000000000000000000000000 PUSH0 MSTORE PUSH1 0x11 PUSH1 0x4 MSTORE PUSH1 0x24 PUSH0 REVERT JUMPDEST PUSH0 PUSH2 0x1102 DUP3 PUSH2 0xE8D JUMP JUMPDEST SWAP2 POP PUSH2 0x110D DUP4 PUSH2 0xE8D JUMP JUMPDEST SWAP3 POP DUP3 DUP3 MUL PUSH2 0x111B DUP2 PUSH2 0xE8D JUMP JUMPDEST SWAP2 POP DUP3 DUP3 DIV DUP5 EQ DUP4 ISZERO OR PUSH2 0x1132 JUMPI PUSH2 0x1131 PUSH2 0x10CB JUMP JUMPDEST JUMPDEST POP SWAP3 SWAP2 POP POP JUMP JUMPDEST PUSH32 0x4E487B7100000000000000000000000000000000000000000000000000000000 PUSH0 MSTORE PUSH1 0x12 PUSH1 0x4 MSTORE PUSH1 0x24 PUSH0 REVERT JUMPDEST PUSH0 PUSH2 0x1170 DUP3 PUSH2 0xE8D JUMP JUMPDEST SWAP2 POP PUSH2 0x117B DUP4 PUSH2 0xE8D JUMP JUMPDEST SWAP3 POP DUP3 PUSH2 0x118B JUMPI PUSH2 0x118A PUSH2 0x1139 JUMP JUMPDEST JUMPDEST DUP3 DUP3 DIV SWAP1 POP SWAP3 SWAP2 POP POP JUMP JUMPDEST PUSH0 PUSH2 0x11A0 DUP3 PUSH2 0xE8D JUMP JUMPDEST SWAP2 POP PUSH2 0x11AB DUP4 PUSH2 0xE8D JUMP JUMPDEST SWAP3 POP DUP3 DUP3 SUB SWAP1 POP DUP2 DUP2 GT ISZERO PUSH2 0x11C3 JUMPI PUSH2 0x11C2 PUSH2 0x10CB JUMP JUMPDEST JUMPDEST SWAP3 SWAP2 POP POP JUMP JUMPDEST PUSH0 PUSH2 0x11D3 DUP3 PUSH2 0xE8D JUMP JUMPDEST SWAP2 POP PUSH2 0x11DE DUP4 PUSH2 0xE8D JUMP JUMPDEST SWAP3 POP DUP3 DUP3 ADD SWAP1 POP DUP1 DUP3 GT ISZERO PUSH2 0x11F6 JUMPI PUSH2 0x11F5 PUSH2 0x10CB JUMP JUMPDEST JUMPDEST SWAP3 SWAP2 POP POP JUMP JUMPDEST PUSH32 0x5472616E7366657220616D6F756E74206D69736D617463680000000000000000 PUSH0 DUP3 ADD MSTORE POP JUMP JUMPDEST PUSH0 PUSH2 0x1230 PUSH1 0x18 DUP4 PUSH2 0xDA9 JUMP JUMPDEST SWAP2 POP PUSH2 0x123B DUP3 PUSH2 0x11FC JUMP JUMPDEST PUSH1 0x20 DUP3 ADD SWAP1 POP SWAP2 SWAP1 POP JUMP JUMPDEST PUSH0 PUSH1 0x20 DUP3 ADD SWAP1 POP DUP2 DUP2 SUB PUSH0 DUP4 ADD MSTORE PUSH2 0x125D DUP2 PUSH2 0x1224 JUMP JUMPDEST SWAP1 POP SWAP2 SWAP1 POP JUMP JUMPDEST PUSH0 PUSH1 0x60 DUP3 ADD SWAP1 POP PUSH2 0x1277 PUSH0 DUP4 ADD DUP7 PUSH2 0x1008 JUMP JUMPDEST PUSH2 0x1284 PUSH1 0x20 DUP4 ADD DUP6 PUSH2 0xF31 JUMP JUMPDEST PUSH2 0x1291 PUSH1 0x40 DUP4 ADD DUP5 PUSH2 0xF31 JUMP JUMPDEST SWAP5 SWAP4 POP POP POP POP JUMP INVALID LOG2 PUSH5 0x6970667358 0x22 SLT KECCAK256 SWAP13 SWAP16 SLOAD CODESIZE PUSH24 0x471A81CE9AC52445CFF31695AA76711C947E0F48086FDD1A 0xA9 0xDB REVERT PUSH5 0x736F6C6343 STOP ADDMOD NOT STOP CALLER "
				},
				"gasEstimates": {
					"creation": {
						"codeDepositCost": "963000",
						"executionCost": "infinite",
						"totalCost": "infinite"
					},
					"external": {
						"allowance(address,address)": "infinite",
						"approve(address,uint256)": "infinite",
						"balanceOf(address)": "2918",
						"commissionRate()": "2492",
						"decimals()": "383",
						"name()": "infinite",
						"owner()": "2560",
						"renounceOwnership()": "infinite",
						"symbol()": "infinite",
						"totalSupply()": "2500",
						"transfer(address,uint256)": "infinite",
						"transferFrom(address,address,uint256)": "infinite",
						"transferOwnership(address)": "infinite",
						"treasuryAddress()": "2552"
					}
				},
				"methodIdentifiers": {
					"allowance(address,address)": "dd62ed3e",
					"approve(address,uint256)": "095ea7b3",
					"balanceOf(address)": "70a08231",
					"commissionRate()": "5ea1d6f8",
					"decimals()": "313ce567",
					"name()": "06fdde03",
					"owner()": "8da5cb5b",
					"renounceOwnership()": "715018a6",
					"symbol()": "95d89b41",
					"totalSupply()": "18160ddd",
					"transfer(address,uint256)": "a9059cbb",
					"transferFrom(address,address,uint256)": "23b872dd",
					"transferOwnership(address)": "f2fde38b",
					"treasuryAddress()": "c5f956af"
				}
			},
			"storageLayout": {
				"storage": [
					{
						"astId": 307,
						"contract": "contracts/YoppenTokenModified.sol:YoppenTokenModified",
						"label": "_balances",
						"offset": 0,
						"slot": "0",
						"type": "t_mapping(t_address,t_uint256)"
					},
					{
						"astId": 313,
						"contract": "contracts/YoppenTokenModified.sol:YoppenTokenModified",
						"label": "_allowances",
						"offset": 0,
						"slot": "1",
						"type": "t_mapping(t_address,t_mapping(t_address,t_uint256))"
					},
					{
						"astId": 315,
						"contract": "contracts/YoppenTokenModified.sol:YoppenTokenModified",
						"label": "_totalSupply",
						"offset": 0,
						"slot": "2",
						"type": "t_uint256"
					},
					{
						"astId": 317,
						"contract": "contracts/YoppenTokenModified.sol:YoppenTokenModified",
						"label": "_name",
						"offset": 0,
						"slot": "3",
						"type": "t_string_storage"
					},
					{
						"astId": 319,
						"contract": "contracts/YoppenTokenModified.sol:YoppenTokenModified",
						"label": "_symbol",
						"offset": 0,
						"slot": "4",
						"type": "t_string_storage"
					},
					{
						"astId": 8,
						"contract": "contracts/YoppenTokenModified.sol:YoppenTokenModified",
						"label": "_owner",
						"offset": 0,
						"slot": "5",
						"type": "t_address"
					},
					{
						"astId": 944,
						"contract": "contracts/YoppenTokenModified.sol:YoppenTokenModified",
						"label": "commissionRate",
						"offset": 0,
						"slot": "6",
						"type": "t_uint256"
					},
					{
						"astId": 946,
						"contract": "contracts/YoppenTokenModified.sol:YoppenTokenModified",
						"label": "treasuryAddress",
						"offset": 0,
						"slot": "7",
						"type": "t_address"
					}
				],
				"types": {
					"t_address": {
						"encoding": "inplace",
						"label": "address",
						"numberOfBytes": "20"
					},
					"t_mapping(t_address,t_mapping(t_address,t_uint256))": {
						"encoding": "mapping",
						"key": "t_address",
						"label": "mapping(address => mapping(address => uint256))",
						"numberOfBytes": "32",
						"value": "t_mapping(t_address,t_uint256)"
					},
					"t_mapping(t_address,t_uint256)": {
						"encoding": "mapping",
						"key": "t_address",
						"label": "mapping(address => uint256)",
						"numberOfBytes": "32",
						"value": "t_uint256"
					},
					"t_string_storage": {
						"encoding": "bytes",
						"label": "string",
						"numberOfBytes": "32"
					},
					"t_uint256": {
						"encoding": "inplace",
						"label": "uint256",
						"numberOfBytes": "32"
					}
				}
			},
			"userdoc": {
				"kind": "user",
				"methods": {},
				"version": 1
			}
		}
	}
}